:020000041008E2
:1000000000000828DDA408104DB10810E1AD08106B
:1000100051B1081055B1081059B108100000000086
:10002000000000000000000000000000ADAE08105D
:100030005DB108100000000061B1081065B1081042
:100040004FA1081075A108109BA10810C1A10810AC
:10005000E7A108100DA2081033A2081059A2081039
:1000600069B108106DB1081071B1081075B10810B0
:1000700079B108107DB1081081B1081085B1081060
:1000800040F0200070472DE9F14FB0B09246049146
:100090000DF142013A9A2B9199464A7000200AE0EC
:1000A0001AF8011B0498309A90470028049000F039
:1000B00034860D98401C0D909AF8000050B1252808
:1000C000EED1002100220791089209910A920B912A
:1000D0000C9204E00D9800F022BE41F001011AF8E4
:1000E000010F2028F9D023280CD02B2804D02D284C
:1000F00005D0302809D00BE041F00201EFE741F0D4
:100100000401ECE741F00801E9E741F01001E6E7FE
:100110002A280FD1D9F8002052F8040BC9F8002082
:1001200000280F9003D540420F9041F004010AF1DE
:10013000010A14E00F92DFF8EC3B0AE00F989842B6
:1001400005DA00EB800402EB4402303A0F920AF128
:10015000010A9AF80020A2F130000A28EED39AF89A
:1001600000002E2803D04FF0FF320E9229E01AF83B
:10017000010F2A2809D1D9F8000050F8042BC9F83A
:1001800000000E920AF1010A1BE02D280CBF0AF1B3
:10019000010A002000220E92DFF8884B0BE040B9E4
:1001A0000E9AA24205DA02EB820503EB4503303BCF
:1001B0000E930AF1010A9AF80030A3F130020A2ADC
:1001C000EDD3ADF840100FF660309AF8001000F053
:1001D000EDFE08B11AF8010B8DF842009DF84200BF
:1001E000682805D19AF8000068280CD1622106E041
:1001F0006C2804BF9AF800006C2804D171218DF896
:1002000042100AF1010A12A806901AF801BBBBF1CC
:1002100025012CD01C3900F09481091F022940F2DD
:100220009081133900F0AB84093900F08A81891E6E
:1002300000F04085491E00F0ED84491E022940F27D
:100240008081091F00F0E684491F00F0EF80491EFD
:1002500000F09584491E00F0D780C91E0CD0891E7D
:1002600000F08D84C91E00F08A8400F02EBD0123A9
:100270000793252100F026BDD9F8000050F8044B63
:10028000C9F80000002C059440F0AB802B99487809
:10029000002800F0A1804FF0FF340FF6942000F00A
:1002A00095FE241A40F0398500F01BBD01236A46F3
:1002B00002A9304600F000FE002840F02E85641EA2
:1002C000F4D13096079C12AF74B1309E17F8011B21
:1002D0000498B0470028049000F01F850D98401C3A
:1002E000641E0D90F2D130960A9C3021002C8DF8BE
:1002F00000100CDD309E01236A4602A9304600F052
:10030000DBFD002840F00985641EF4D13096059F7E
:10031000089C74B1309E17F8011B0498B047002860
:10032000049000F0FA840D98401C641E0D90F2D1E8
:1003300030960B9C3021002C8DF800100CDD309E87
:1003400001236A4602A9304600F0B6FD002840F0BD
:10035000E484641EF4D1309605980899099C4718E6
:1003600074B1309E17F8011B0498B0470028049020
:1003700000F0D3840D98401C641E0D90F2D130968D
:100380000C9C3021002C8DF800100CDD309E0123D8
:100390006A4602A9304600F08FFD002840F0BD8477
:1003A000641EF4D130969DF8400041077FF584AE7D
:1003B0002020002D8DF800007FF77EAE309C0123B9
:1003C0006A4602A9204600F077FD002840F0A58487
:1003D0006D1EF4D130946FE60FF63C30059000F0BE
:1003E00080BC0E9D002D04D5204600F00FFE044673
:1003F00007E02A46204600F025FE002814BF041B13
:100400002C46089400F06DBCD9F8001051F8040B8C
:10041000C9F8001020F00004002121F0FF35CDE9DB
:10042000024512AB0593782100F040BC2B99487827
:1004300020B14FF0FF340FF6B02030E79DF84200B6
:10044000622860D0682817D06A283FD06C2806D070
:10045000712847D074282CD07A281DD062E0D9F8B2
:10046000001051F8040BC9F80010002866D14FF0B5
:10047000FF340FF68C2012E7D9F8001051F8040B66
:10048000C9F8001020B94FF0FF340FF6742006E7CA
:100490000D99018000F025BCD9F8001051F8040B2B
:1004A000C9F80010002849D14FF0FF340FF6502052
:1004B000F5E6D9F8001051F8040BC9F8001000282F
:1004C0003CD14FF0FF340FF63820E8E6D9F80010A1
:1004D00051F8040BC9F8001080B94FF0FF340FF643
:1004E0002020DCE6D9F8001051F8040BC9F8001000
:1004F00020B94FF0FF340FF60820D0E60D9AD3173D
:10050000C0E90023EDE3D9F8001051F8040BC9F855
:10051000001020B94FF0FF340FF6E410BFE60D993C
:100520000170DEE3D9F8001051F8040BC9F800108F
:1005300020B94FF0FF340FF6C810B0E60D990160F6
:10054000CFE39DF842004C2807BFD9F80010CA1D20
:10055000D9F80000C21D22F00702C9F80020D2E934
:1005600000010832C9F80020CDE90201C80F02D00D
:1005700007982D210AE0BDF84000810702D50798B1
:100580002B2103E0C00705D50798202112AA11549A
:10059000401C079012A807994BF0200300EB010CB8
:1005A000DDE90201CDE92C01612BCDF814C021ACAD
:1005B0000BD00E98002848BF062105D404BF4BF08D
:1005C0002000672801D101210E91DDE902014F00D1
:1005D00047EAD0777E15FF174FF0FF32974208BFEA
:1005E000964210D1090341EA10510003002908BFC7
:1005F000002808D0ABF1610503211A2D089118D30A
:100600000FF61C1110E0DDE902014A00521512F14B
:10061000010F11D108030FD1ABF1610503211A2D90
:1006200008911FD30FF600110322604600F036FD3B
:1006300057E30FF6E801F7E7DDE902016A4600F04B
:100640008DFDCDE902014BF02000612811D1059804
:1006500030210170821C0592BBF1610F0CBF782123
:10066000582102E00FF6BC01DEE741700798801CBC
:100670000790DDE9020120F0000231F0004308BFDD
:10068000002A02D10026002542E14BF02008B8F1F3
:10069000610F40F092800E98002847BF2121019100
:1006A000401C0190019FDDE92C017F1C00220023EA
:1006B000DDE9024500F08AFD38BF85F0004500996C
:1006C0008DF88420091F002F00910DF1850632DD81
:1006D000204629460022002300F092FD2BD21C2246
:1006E00000F0A8FD04460D4600F026FEFF1F002F77
:1006F000804609DD00F027FE02460B4620462946CB
:1007000000F028FE04460D46F01D0721B8F1000F49
:100710000CDD491E5EBF08F00F0200F8012D4FEA04
:100720002818F3D502E0002200F8012D491EFAD561
:10073000C61D002FCCDC0DF18500361A01980DF195
:1007400085048642D8BF304600282FD4B04206DA4E
:100750000DF185010A5C082AA8BF0F2100DA0021EB
:10076000024621AB134400E0401E13F80159521E0B
:100770008D42F9D00F2904D10DF185018B5C5B1CF2
:100780008B54002A04D50099091D21AC401C00910E
:10079000411E0BD4621813783033DDB23A2DA4BF5A
:1007A0005B443A3B491E02F80139F4D50E99002901
:1007B00040F1AC80421E0E92A8E00099DFF8E826D6
:1007C00047F29750414391FBF2F20092DDE92C454C
:1007D000C2F10702002A25F0004504DD2046294623
:1007E00000F03EFB0BE052420020DFF8C01600F0A4
:1007F00037FB02460B462046294600F0B4FD04466E
:100800000D46B8F1660F06BF009F0A3706270E98FF
:100810003F18142FC8BF142730208DF884000DF125
:100820008506002F34DD2046294600F0A5FD01464F
:100830000A4606F1080304200A26B2FBF6F606EB88
:10084000860EA2EB4E02303203F8012C0A22B6FBD0
:10085000F2F202EB820EA6EB4E063036401E03F893
:10086000026DE9D1083F002F03F10806D9DD0846E3
:1008700000F089FD02460B462046294600F06AFD3D
:100880000022DFF82C3600F085FD04460D46CAE74D
:100890000DF18500361A0DF1850404E00098401E24
:1008A000761E0090641C20783028F7D0B8F1660FCF
:1008B00002D10098401C04E0B8F1650F0CBF012084
:1008C00000200E9940188642B8BF701E00281DD423
:1008D000B04204DA215C3429C8BF392100DC302160
:1008E0000246631E9D1800E0401E15F80169521E65
:1008F0008E42F9D0392902D1A15C491CA154002AA9
:1009000004D50099491C1C46401C00910646009DD8
:100910000E9F30B2002802DC01260FF210644BF06B
:100920002000662808BF6D1C15D067280FFA85F8CF
:1009300041D118F1040F44DBB84542DA9DF840007C
:100940006D1C010703D430B2B842D8BF074628B2A5
:100950003F1A48BF00270FFA85F8B8F1000F00F3DF
:10096000AF800898411C0891302205990A54002F45
:1009700003DC9DF84000010705D50898411C08914B
:100980002E2205990A5417EB080FB8BF7D422DB2ED
:100990006842ED1932B20B909542B8BF2E46059BC6
:1009A000089836B2099632462146184400F076FB84
:1009B000AD1B0C95CCE0BBF1610F15D14FF0700B66
:1009C00017E030B2B84204DA9DF840100A0758BF69
:1009D00007467F1E48BF0027BBF1670F14BF4FF0CB
:1009E000450B4FF0650B04E0BBF1410F08BF4FF022
:1009F000500B0898411C0891002F059914F8012B01
:100A00000A5403DC9DF84000010719D50898411CE1
:100A100008912E2205990A54002F11DD761E30B25E
:100A20008742B8BF3E460598089B32B2214618441B
:100A300000F034FB089836B23018BF1B08900B97B3
:100A4000059808990844B8F1000F80F800B003D465
:100A50002B224270821C04E02D2145464170821CED
:100A60006D4200212CAB28460AE004460A2094FB84
:100A7000F0F000EB8005A4EB450403F8014B491CA2
:100A800000B20028F1DC012906DC4BF020006528CB
:100A900004BF302002F8010B00292CAB08D1302014
:100AA00002F8010B06E0491E585C303002F8010BD9
:100AB0000029F8DC059908980844121A099247E0C1
:100AC00030B229B288421BDA0598089B32B221461F
:100AD000184400F0E3FA089936B271180891A8EBAF
:100AE0000600002F0B9003DC9DF84000020705D59F
:100AF000059A2E2050540999491C09910C9727E01A
:100B00000598089B2AB22146184400F0C7FA0898B5
:100B1000761B4044002F089003DC9DF840100A0724
:100B200004D5411C08912E2205990A5430B28742FF
:100B3000B8BF3E460598089B32B204EB0801184442
:100B400000F0ACFA089836B23018BE1B08900B962D
:100B50009DF8400000F01400102840F0C280079A71
:100B600008980B99821809988A1882180C980F997E
:100B70008018884280F2B580081A0A90B1E09DF88A
:100B80004200622808D068280ED06A2814D06C2849
:100B90001FD0712810D01CE0D9F8001051F8040BB8
:100BA000C9F80010C0B21AE0D9F8001051F8040BCF
:100BB000C9F8001080B212E0D9F80000C21D22F07E
:100BC0000702C9F80020D2E900010832C9F8002064
:100BD00006E0D9F8001051F8040BC9F80010002104
:100BE000CDE902019DF8400001075AD5DDE9022355
:100BF000002B08BF002A54D04BF02000782850D199
:100C0000079812A930220A54401C431C079301F88C
:100C100000B046E09DF84200622808D068280ED057
:100C20006A2814D06C281FD0712810D01CE0D9F885
:100C3000001051F8040BC9F8001040B21AE0D9F8BE
:100C4000001051F8040BC9F8001000B212E0D9F8F6
:100C50000000C21D22F00702C9F80020D2E90001FD
:100C60000832C9F8002006E0D9F8001051F8040B4A
:100C7000C9F80010C117CDE90201002902D5079873
:100C80002D210AE0BDF84000810702D507982B21ED
:100C900003E0C00705D50798202112AA1154401C73
:100CA000079012A8079901440591594602A800F03F
:100CB0004DF816E001200790D9F8000050F8041B09
:100CC000C9F800008DF848100BE001212522BBF186
:100CD000000F07918DF8482003D0022207928DF86B
:100CE00049B00F9D07990A986D1A08992D1A0B980B
:100CF0006D1A09992D1A0C986D1A9DF840102D1A2D
:100D000048073FF5DFAA2021002D8DF800107FF75E
:100D1000D9AA309E2C46FFF7C9BA4FF0FF3031B048
:100D2000BDE8F08FCBCCCC0C686A6C747A4C0000B8
:100D30007072696E74665F733A2062616420257315
:100D400020617267756D656E740000002DE9FC47C7
:100D500007468A463C6950466F2808BF082505D0DB
:100D6000FFF78EF9782814BF0A251025D7E900016E
:100D70003C2680468946BAF1640F18BFBAF1690F64
:100D800005D1002903D5D8F1000869EB4909B9F16B
:100D9000000F08BFB8F1000F0CD1386B50B9082D07
:100DA0003AD197F83800010736D530223B2684F82F
:100DB0003B2031E08DF800A0404649462A46EB171B
:100DC00000F014FB3032D0B2761E3A2801960EDACB
:100DD000A255404649462A46EB1700F007FB8046DD
:100DE0005FEA010908BFB8F1000F05D108E09DF8DE
:100DF00000001218513AEBE7F868A1198842DBD3DA
:100E0000082D09D197F83800010705D5A05D3028D5
:100E100002D0761E3020A055C6F13C03BB61A1195B
:100E2000F960386B834208DAC31A3B624FF6EF7001
:100E3000398F01403987BDE8F38700280ED597F830
:100E4000380000F01400102808D17A6B7969386AEC
:100E5000521A121AD21A002AC8BF3A62BDE8F387A2
:100E60002DE9D04306460F4614464FF00008DFF840
:100E7000449012E0E00707D542464B4630463946DB
:100E800000F088FA06460F464046494642464B4621
:100E900000F080FA641080468946002CEAD1304682
:100EA0003946BDE8D0830000A08601000000F03F75
:100EB00084D7974100002440F8B505460E461746F2
:100EC0001C4600205CB117F8011BB068A847B06051
:100ED00030B1F06A401CF0620020641EF3D1F2BD14
:100EE0004FF0FF30F2BD00007072696E74665F7380
:100EF0003A20256E20646973616C6C6F77656400BD
:100F00007072696E74663A2062616420256E206199
:100F10007267756D656E7400000000006E616E0092
:100F20004E414E00696E6600494E46003000F0B4F6
:100F30000246106895681318506803EB5004C00708
:100F400048BF4D44A3422DD013F8016B16F00300A7
:100F500004BF13F8010BC01C31090F2907D113F886
:100F6000011B0F3103E013F8017B05F8017B401EE4
:100F7000F9D10029E6D013F8010BC6F38106032E40
:100F800008BF13F8016B00EB0620404228440026FE
:100F9000B71E8F421EBF10F8017B05F8017B761C3F
:100FA000F6D1CFE7F0BC02F10C007047C9B202786D
:100FB0008A421AB11CBF10F8012FF9E718BF0020B0
:100FC00070470268531C03601170704780B500B908
:100FD00006A005490B681BB122220021984701E0B9
:100FE00000F01CFB222002BD18840328636F6E737F
:100FF000747261696E742068616E646C65723A2007
:10100000626164206D6573736167650000F10103BF
:10101000810704D010F8011B820781B1FAD1026860
:10102000A2F10131914311F0803104BF50F8042F37
:10103000F6E709BAB1FA81F100EBD100401CC01A01
:1010400070470000C9B2830706D0521E22D310F8A1
:10105000013B9942F7D11FE0083A13D302F1040291
:1010600041EA012141EA014150F8043B121F21BF2E
:101070004B40A3F1013C2CEA030C1CF0803FF3D061
:10108000C9B2001F083210F8013B521E28BF91EA76
:10109000030FF8D818BF0120401E704762B38B07BA
:1010A00008D0521E11F8013B00F8013B00F02480EB
:1010B0008B07F6D1830740F0208000BF103A07D39A
:1010C00030B4B1E83810103AA0E83810F9D230BC8A
:1010D000530724BFB1E80810A0E8081044BF51F836
:1010E000043B40F8043BD20724BF31F8022B20F820
:1010F000022B44BF0B7803707047121F17D35B009D
:1011000009D151F8043B20F8023B1B0C121F20F8B8
:10111000023BF6D20BE051F8043B00F8013B1B0AFE
:1011200020F8023B1B0C121F00F8013BF3D238BF22
:10113000121D521E24BF11F8013B00F8013BF8D8E4
:101140007047000010B5024651EC100B144600F039
:101150000BF841EC100B226010BD00BF10B5144617
:1011600000F002F8226010BDC1F30A5343B14A00F7
:1011700012F5001F28D2A3F2FE32A1EB02517047F4
:1011800050EA410C20D001F0004C31EA0C01B1FAD8
:1011900081F204BFB0FA80F3D2180B3AB2F1200307
:1011A0002CBF00FA03F1914041EA0C013EBFC2F1AD
:1011B000200C20FA0CF319439040524240F2FD33C8
:1011C000D21A01EB035170470022704741EA030C29
:1011D00050EA4C0C52EA0C0C4FF4001C09D307D017
:1011E0001CEB410F9CBF1CEB430F8B4208BF82429C
:1011F00070471CEB430FFBD8994208BF90427047E1
:1012000041EA030C50EA4C0C52EA0C0C4FF4001C5F
:1012100009D307D01CEB410F9CBF1CEB430F994235
:1012200008BF904270471CEB410FFBD88B4208BFB0
:101230008242704700B541EC100B104600F004F8F4
:1012400051EC100B00BD00BF020030EE101B40F24D
:10125000FF7C37D41CEA115313D063456BD09B1825
:10126000634504D201EB025120EE101B704701F0E0
:10127000004141EA0C51002041EC100BAFF300801B
:10128000704710EE100B50EA410054D0B2F57F7F4A
:1012900008D202EB5C010905002041EC110B20EEA5
:1012A000010B70474FF0FE41002341EC113B20EE53
:1012B000010BB2F57E7230EE101B4FEA410342EB98
:1012C0005353CDE752421CEA115316D0634532D036
:1012D0009A4204D2A1EB025120EE101B70475B1E14
:1012E000D21AA1EB035120EE101B372A0CD3002099
:1012F00001F0004141EC100BC0E710EE100B50EA7A
:10130000410018D0372AF2D2C2EB5C02110500204E
:1013100041EC110BF1EE100A20F01F0121F4F851FD
:10132000E1EE101A20EE010BF1EE101AE1EE100AB8
:1013300011F0080FA2D1704741EC100BBDEEC00BAD
:1013400010EE100A704700EE100AB8EEC00B51EC18
:10135000100B704741EC100B43EC112B30EE410B9E
:1013600051EC100B704741EC100B43EC112B80EE4D
:10137000010B51EC100B704741EC100BBCEEC00B95
:1013800010EE100A704700EE100AB8EE400B51EC58
:10139000100B704741EC100B43EC112B20EE010BAE
:1013A00051EC100B7047000013F0004C03D55B426A
:1013B000524263F100039CEA210C00F0178010B543
:1013C000644603D34942404261F1000100F00EF847
:1013D000640004D34942404261F10001244203D534
:1013E0005B42524263F1000310BD0000BBBBE1B1A0
:1013F000B2F5803F80F07E80022A1ED98C46B1FB78
:10140000F2F102FB11C31B0443EA1043B3FBF2FCED
:1014100002FB1C3380B240EA0343B3FBF2F002FB51
:10142000103240EA0C4000237047022A05D9844656
:10143000B0FBF2F002FB10C270474AB105D100F0D8
:10144000010249085FEA300070470022002370471C
:1014500000F0E8B80B000200002100207047904225
:1014600071EB030CF6D3B3F5803F2FD2F0B5B3FA8E
:1014700083F7B1FA81F4A7F10F0E3D1B5340CEF173
:10148000200602FA0EF2F3415340B5F10F0746D899
:101490000F3C2C444140C4F12006A040F1414140A2
:1014A000B1FBF3F603FB1611A2FB0645001BA94195
:1014B00002D2761E8018594180EA010221FA0EF309
:1014C00062FA0EF200215A403046F0BD30B4B1FB52
:1014D000F3FC03FB1C11A2FB0C45001BA94103D22A
:1014E000ACF1010C8018594130BC02460B466046F5
:1014F00000217047B2F1807F65D3F0B5B2FA82F770
:10150000B1FA81F4C7F10F063D1B22FA06F307F189
:10151000110EF24120355A40B5F10F07B8D94140BC
:10152000C4F12006A040F1414140B1FBF3FC03FBB4
:101530001C11A2FB0C45001BA94103D2BCF1010CFC
:10154000801859410F2F12D30F3FC90341EA504170
:10155000B1FBF3F603FB1611A2FB0645D4EBC0303A
:10156000A94102D2761E8018594146EACC3C07B305
:101570004140C7F12006B840F1414140B1FBF3F6CC
:1015800003FB1611A2FB0645001BA94102D2761EE1
:101590008018594180EA010221FA0EF3C7F12004B4
:1015A00062FA0EF20CFA07F05A402CFA04F13043BA
:1015B000F0BD80EA010221FA0EF3002162FA0EF278
:1015C00060465A40F0BD8C46B1FBF2F102FB11C3FC
:1015D0001B0243EA1063B3FBF2FC02FB1C331B0249
:1015E0004CEA002043EA1063B3FBF2FC02FB1C331D
:1015F0001B024CEA002043EA1063B3FBF2FC02FB3F
:101600001C331B024CEA002043EA1063B3FBF2FCDC
:1016100002FB1C324CEA002000237047012000F03E
:1016200003B800007047000080B5AFF30080024AA5
:1016300011001820ABBEFBE72600020038B5602180
:101640000022DFF8F04B2500280000F08FFE00207C
:1016500020704E2084F84400452084F84C00DFF8C8
:10166000D80B2063002084F83400002084F8350073
:10167000002084F8240018210022DFF8C04B250048
:10168000280000F073FE0020207500F089F800208B
:10169000DFF8AC1B08700020DFF8F81B0870002092
:1016A000DFF8F41B08704FF480610022DFF8EC4B88
:1016B000200000F05BFE08210022DFF8E44B200050
:1016C00000F054FE4FF4FA7000F061FF0223022292
:1016D0005FF4E131022001F011FB1C22DFF8C41B92
:1016E000022001F0C8F9642000F051FF0B22DFF85E
:1016F000B81B022001F0BFF9322000F048FF0B2296
:10170000DFF8A81B022001F0B6F9322000F03FFFFD
:101710000B22DFF89C1B022001F0ADF9322000F013
:1017200036FF0B22DFF88C1B022001F0A4F93220D7
:1017300000F02DFF0B22DFF8CC1B022001F09BF9FB
:10174000322000F024FF0B22DFF8BC1B022001F046
:1017500092F9322000F01BFF0B22DFF8B01B0220B1
:1017600001F089F9322000F012FF0B22DFF8A01BF4
:10177000022001F080F9322000F009FF0B22DFF88F
:10178000941B022001F077F9322000F000FF0121C4
:10179000022001F034FA0120DFF8881B087031BD07
:1017A00010B50020DFF8701B08700020DFF86C1BFC
:1017B00008700020DFF8681B08700020DFF8681B45
:1017C00008700020DFF8641B087080210022DFF819
:1017D000604B200000F0CAFD10BDF8B5DFF8440BE7
:1017E000007800281DD16946022001F061F9002827
:1017F000F9D15CE19DF80000242812D1DFF81C0B20
:10180000002101700021DFF8182B11709DF80010E5
:10181000DFF81C2B0378D1540178491C017001209A
:1018200020706946022001F043F9002800F03F8152
:10183000DFF8E44A20780028DCD002284AD00AD316
:10184000042800F0AB80C0F09380062800F0C78029
:10185000C0F0BB8028E1DFF8C45A28787F2815DA69
:101860009DF80000DFF8C81A2A7888542878401CB0
:101870002870DFF8AC1A0A789DF8000042400A7020
:101880002878062804DB0220207001E0FFF788FF9B
:101890009DF800002A280BD09DF800000D2807D0E5
:1018A0009DF800000A2803D09DF80000242810D1DC
:1018B000FFF776FF9DF8000024280AD19DF800006C
:1018C000DFF86C1A2A7888542878401C2870012088
:1018D0002070A6E79DF800002A2811D1DFF83C0A05
:1018E0009DF80010DFF8482A0378D1540178491C8C
:1018F0000170032020700020DFF8301A087036E0F5
:101900009DF8000024280FD1FFF74AFFDFF80C0AEA
:101910009DF80010DFF8182A0378D1540178491C8B
:1019200001700120207022E09DF800000D2803D0F6
:101930009DF800000A2802D1FFF732FF17E0DFF818
:10194000DC0901787F2910DA9DF80010DFF8E02922
:101950000378D1540178491C0170DFF8C4190A7862
:101960009DF8000042400A7001E0FFF719FF58E7B8
:10197000DFF8A8099DF80010DFF8B4290378D154E6
:101980000178491C01709DF8000000F0E9F80001A1
:10199000DFF8941908700420207042E7DFF87C0912
:1019A0009DF80010DFF888290378D1540178491C8C
:1019B0000170DFF874592E789DF8000000F0D0F81F
:1019C00006432E70052020702BE79DF800000D289F
:1019D00002D10620207001E0FFF7E2FE21E79DF82A
:1019E00000000A285DD1DFF83449DFF844190020EF
:1019F00022788854DFF828090078DFF82C2912783B
:101A0000904249D1DFF89058287808281EDADFF88C
:101A1000306830782278521CDFF88038C0B2C001BC
:101A200003EB00073800FFF739FB2078DFF8701868
:101A3000327888543078401C082190FBF1F201FB89
:101A4000120030702878401C28702AE0DFF8F05728
:101A500028782278521CDFF84438C0B2C00103EB6A
:101A600000063000FFF71AFB2078DFF834182A78D8
:101A700088542878401C082190FBF1F201FB1200E9
:101A80002870DFF810080178491C082291FBF2F356
:101A900002FB1311017004E0DFF8B408C16D491CAA
:101AA000C165FFF77DFEBCE6FFF77AFEB9E6F1BD42
:101AB000F8B50024DFF86C080078002816D1002063
:101AC0004DE008E0380000F0B1FADFF88408816DDD
:101AD000491C816501243078401C082190FBF1F2FB
:101AE00001FB120030702878401E2870DFF8A857DC
:101AF000287800281AD0DFF89C67DFF8A007317833
:101B0000C90100EB0107380000F044F8C0B2012819
:101B100002D00228D6D0D4E7380000F0EDF8DFF884
:101B20003008416D491C41650124D4E72000C0B252
:101B3000002812D000F046FBDFF80007007D0028E7
:101B400006D0DFF80C080078002801D000F0B4FBC4
:101B50000120DFF8FC1781F84D002000C0B2F2BD73
:101B60000100C9B230390A2902D23038C0B210E0BF
:101B70000100C9B24139062902D23738C0B208E0A3
:101B80000100C9B26139062902D25738C0B200E05B
:101B90000020704738B504002078242801D00020A8
:101BA00022E012A503222900E01C01F093F900288D
:101BB00006D003222900A01C01F08CF9002801D1D5
:101BC000012011E00AA503222900E01C01F082F99E
:101BD000002806D003222900A01C01F07BF9002870
:101BE00001D1022000E0002032BD0000524D430030
:101BF0004747410070B403000025002400E0641C46
:101C000020001600C0B2F6B2B04214D22000C0B21A
:101C1000085C00280FD02000C0B2085C2C28EED150
:101C20006D1C28001E00C0B2F6B2B042E7D1641CA1
:101C30002000C0B200E0002070BC704730B585B015
:101C40000400142100226D46280000F08FFB0021C3
:101C500007E00800C0B2205C6A460B00DBB2D0543B
:101C6000491C0800C0B2205C2C280DD00800C0B26E
:101C7000205C2A2808D00800C0B2205C002803D0CD
:101C80000800C0B21328E4DB00206A46C9B25054F1
:101C9000684601F099FA05B030BD38B584B004004B
:101CA000102100226D46280000F060FB002107E0B3
:101CB0000800C0B2205C6A460B00DBB2D054491C5D
:101CC0000800C0B2205C2C280DD00800C0B2205CF7
:101CD0002A2808D00800C0B2205C002803D00800E1
:101CE000C0B20F28E4DB00206A46C9B250546846EF
:101CF00001F012FB05B030BD38B52DED048B0400AA
:101D0000802221000220FFF775FF0100C9B20029DF
:101D100000F08981C0B2205C0100C9B2412904D021
:101D20000100C9B2442940F00381C0B2442801D166
:101D3000022000E00120DFF81856287080222100E0
:101D40000320FFF757FF0100C9B2002904D00100AA
:101D5000C9B2615C2C2900D165E1C0B22044FFF713
:101D60006DFFB0EE409B802221000420FFF742FF70
:101D70000100C9B2002900F05681C0B2205685F892
:101D80004400802221000520FFF734FF0100C9B282
:101D9000002904D00100C9B2615C2C2900D142E1C4
:101DA000C0B22044FFF74AFFB0EE408B80222100F2
:101DB0000620FFF71FFF0100C9B2002900F03381A0
:101DC000C0B2205685F84C009FEDD41B89EE010B64
:101DD000BDEEC00B10EE100AE8876420E98F414386
:101DE00000EE101AB8EEC00B39EE401BBDEEC10B71
:101DF00010EE101AA5F840109FEDC60BB5F8401074
:101E000002EE101AB8EE422B31EE422B22EE002BDE
:101E1000BDEEC22B12EE101AA5F84210E98F02EEA9
:101E2000101AB8EE422B9FEDBF4B81EE041B32EE31
:101E3000011B85ED021B95F94410532905D195ED41
:101E4000021BB1EE411B85ED021B9FEDB42B88EE0A
:101E5000021BBDEEC11B11EE101AA5F84610B5F815
:101E6000461000FB01F001EE100AB8EEC11B38EE7F
:101E7000411BBDEEC12B12EE100AA5F84800B5F8C3
:101E8000480002EE100AB8EE422B31EE422B22EE51
:101E9000000BBDEEC00B10EE100AA5F84A00B5F815
:101EA000460000EE100AB8EE400B9FED9E3B81EE1F
:101EB000031B30EE010B85ED040B95F94C00572800
:101EC00005D195ED040BB1EE400B85ED040B80229E
:101ED00021000720FFF78EFE0100C9B2002910D0B3
:101EE0000100C9B2615C2C290BD0C0B22044FFF7BD
:101EF000A5FEB7EEC00BDFED8D0A20EE200A85EDC2
:101F00000A0A802221000820FFF774FE0100C9B2EE
:101F1000002911D00100C9B2615C2C290CD0C0B2DB
:101F20002044FFF78BFEB7EEC00B85ED0B0A03E0F4
:101F30000020DFF81C140870802221000120FFF728
:101F400059FE0100C9B200292FD00100C9B2615C5D
:101F50002C292AD00A22DFF8F8330100C9B2655CC7
:101F60000100C9B22144497802FB0515B5F1100101
:101F700083F83A100100C9B221448D780100C9B23A
:101F80002144C97802FB0515B5F1100183F83B1017
:101F90000100C9B221440979C0B22044407902FB52
:101FA0000102B2F1100083F83C00802221000920D8
:101FB000FFF720FE0100C9B2002930D00100C9B2EC
:101FC000615C2C292BD00A22DFF884330100C9B2CE
:101FD000655C0100C9B22144497802FB0515B5F1E1
:101FE000100183F839100100C9B221448D78010035
:101FF000C9B22144C97802FB0515B5F1100183F877
:1020000038100100C9B22144097911FB02F1C0B2B4
:102010002044407951FA80F010F5B860D886DFF896
:10202000400300F085F8BDEC048B31BD10B52DEDFB
:10203000028B0400802221000620FFF7DBFD010057
:10204000C9B2002963D0C0B2205C0100C9B23029F6
:102050005DD0C0B22C285AD0802221000720FFF783
:10206000C9FD0100C9B200290BD00100C9B2615CF1
:102070002C2906D0C0B22044FFF70FFEDFF8D012A3
:102080004870802221000820FFF7B4FD0100C9B28A
:1020900000290ED00100C9B2615C2C2909D0C0B260
:1020A0002044FFF7CBFDB7EEC00BDFF8A40280EDB4
:1020B0000C0A802221000920FFF79CFD0100C9B213
:1020C000002924D00100C9B2615C2C291FD0C0B204
:1020D0002044FFF7B3FDB7EEC08B802221000B2018
:1020E000FFF788FD0100C9B200290CD00100C9B278
:1020F000615C2C2907D0C0B22044FFF79FFDB7EEEA
:10210000C00B30EE088ADFF8480280ED068ABDEC8D
:10211000028B10BD000000000070B74000000000FE
:10212000000059400000000000004E40560EED3FF8
:1021300010B40179083101710179182940DB017966
:1021400018390171C178491CC1708178022917D1F1
:102150001C22017811F0030F07D10188642391FB41
:10216000F3F403FB1411002908D101884FF4C8735C
:1021700091FBF3F403FB1411002910D11D220EE092
:102180008178042908D08178062905D08178092929
:1021900002D081780B2901D11E2200E01F22C178D4
:1021A000D2B28A420CD20121C1708178491C81705F
:1021B00081780D2904DB012181700188491C01808F
:1021C00010BC7047624890ED0C0AF7EE000AB4EEBE
:1021D000600AF1EE10FA06D5012180F834100121D1
:1021E00080F8351025E090ED0C0AF0EE000AB4EE10
:1021F000600AF1EE10FA06D5022180F834100121B0
:1022000080F8351015E090ED0C0AF1EE000AB4EEFE
:10221000600AF1EE10FA06D5032180F8341001218E
:1022200080F8351005E0042180F83410002180F892
:1022300035107047E88003280000C642D08203288A
:102240002D84032838B5424C2078002801D1002085
:102250001EE0404D94ED020B85ED000B94ED040B58
:1022600085ED020B95ED000B9FED3B2B20EE020B55
:1022700001F0D2F9B7EEC00B85ED040A01202875F4
:10228000012084F824000020E06100202062012069
:1022900032BD00002E8403282F84032810760328E3
:1022A000BC83032874AE081098AF08108CAF0810D8
:1022B000A4AF0810B0AF08102649087D002820D030
:1022C000234890ED040B91ED021B30EE410B90ED95
:1022D000021B91ED002B31EE421B9FED222B20EED5
:1022E000020B91ED043AB7EEC33A20EE030BB7EEC2
:1022F000C00B80ED070A21EE020BB7EEC00B80ED9C
:10230000080A7047BCAF0810C8AF0810D4AF081057
:10231000E0AF0810ECAF08102884032829840328B4
:102320002A840328278403282B8403282C84032849
:10233000AC7F032806480078002801D0012000E087
:102340000020C0B27047024890F835007047000086
:10235000E8800328D0820328399D52A246DF913FAE
:102360001E81032800000000802DFB4062F30F2235
:1023700062F31F42401810F0030308D0C91A1FD39C
:10238000DB0748BF00F8012D28BF20F8022D1300FD
:1023900030B414461546103928BF20E93C00FAD85D
:1023A000490728BF20E90C0048BF40F8042D8900E8
:1023B00028BF20F8022D48BF00F8012D30BC70471F
:1023C000C91818BF00F8012DCB0728BF00F8012D50
:1023D00070470000022801D301200FE00B00DBB2A0
:1023E000042B01DB012009E0AA4B03EB8000C9B2FA
:1023F000405C824201D3012000E000207047F8B524
:1024000006000F0015001C00022E01D301201CE065
:102410002A003900C9B23000FFF7DCFF012801D1E2
:10242000012012E03800C0B2002811D1B4F5807F3D
:102430000CD299487603304400EB850010F58050AB
:10244000016864F30F2101600020F2BD0120FCE768
:10245000FFB2012F10D1B4F5803F0BD28E48760326
:10246000304400EB850010F5A050016864F317219B
:102470000160E9E70120E8E70120E6E700B2001289
:10248000C0B27047F8B505000E001700280000B272
:10249000FFF7F4FF04002000C0B2022801D301209E
:1024A00023E03A003100C9B22000C0B2FFF792FF2A
:1024B000012801D1012018E077492000C0B2400373
:1024C00008442A00D2B200EB8200D0F8000CF6B229
:1024D00066F3092067F30700E4B264032144EDB218
:1024E00001EB8501C1F8000C0020F2BD70B50400BD
:1024F0000D001600022C01D301201CE0320029003F
:10250000C9B22000FFF766FF012801D1012012E0C7
:1025100061496003085850F0004050F0407050F49A
:102520007F00EDB265F3092066F30700620388506F
:1025300064030859002070BDF8B50600F600574C3A
:10254000574D00212078C001284401F031F912E0F4
:102550002078C001284401F02DF9B842F8D3207842
:10256000C001284401F026F9361A00212078C00164
:10257000284401F01DF94CF25137BE42E8D22078D0
:10258000C001284401F016F98642F8D2F1BDF8B531
:1025900004004FF4FA504443404D414E0021287846
:1025A000C001304401F004F914E02878C00130443F
:1025B00001F000F9B842F8D33A4F3C192878C0012D
:1025C000304401F0F7F83F1839002878C001304452
:1025D00001F0EEF84CF25137BC42E6D22878C00147
:1025E000304401F0E7F88442F8D2F1BD38B594B038
:1025F000502100226C462000FFF7B8FE2A4C002232
:102600000121B4F90000FFF73DFFB4F90000FFF726
:1026100035FF092300220121C0B2FFF7F0FEB4F913
:102620000000FFF72BFF00220121C0B2FFF75EFF81
:102630005FF0FF30009000208DF8040000208DF83E
:10264000050000208DF8060000208DF8080003200A
:102650008DF844000120129001208DF807000F4CE6
:102660000F4D69462078C001284400F0D7FF20783C
:10267000C001284401F092F800212078C0012844CC
:1026800001F096F82078C001284401F0A3F815B0B5
:1026900030BD000064B008100000044085BF02286F
:1026A00000005940B03CFFFF78BF0228022801D348
:1026B000012010E00B00DBB2042B01DB01200AE05B
:1026C000DFF8CC3703EB8000C9B2405C824201D313
:1026D000012000E000207047F8B504000F0015004D
:1026E0001E00022C01D301202AE02A003900C9B2C1
:1026F0002000FFF7DBFF012801D1012020E0069830
:102700003900C9B202291ED1B6F5803F19D220285E
:1027100017D24FF4C052DFF87C1763030B4403EB6E
:10272000850313441F6866F317271F606403214461
:1027300001EB850111440A6860F3C7020A600020BA
:10274000F2BD0120FCE7FFB2032F1FD1B6F1807F5D
:102750001AD2202818D24FF4E052DFF8381763035A
:102760000B4403EB850313441F6807F0FF0757EA88
:1027700006271F606403214401EB850111440A68A8
:1027800060F3C7020A60DAE70120D9E70120D7E742
:1027900000B20012C0B27047F8B505000E00170075
:1027A000280000B2FFF7F4FF04002000C0B20228A6
:1027B00001D3012024E03A003100C9B22000C0B2A8
:1027C000FFF774FF012801D1012019E0DFF8C416DA
:1027D0002000C0B2400308442A00D2B200EB8200BD
:1027E000D0F8000CF6B266F3092067F30700E4B2F4
:1027F00064032144EDB201EB8501C1F8000C002017
:10280000F2BD70B504000D001600022C01D30120AA
:102810001DE032002900C9B22000FFF747FF012860
:1028200001D1012013E0DFF86C166003085850F066
:10283000004050F0407050F47F00EDB265F3092085
:1028400066F307006203885064030859002070BDD6
:10285000D0F840037047D0F80803C005C00D70479A
:10286000C0F840127047D0F80802C005C00D70478C
:10287000D0F80802C0F3C030704738B50500280012
:10288000FFF7F1FF04002800FFF7F2FF0419002C06
:1028900001D1012000E00020C0B232BDC0F8C81F45
:1028A0007047D0F8C80F7047C0F8881F7047D0F83D
:1028B000880F7047016851F000410160704738B5DA
:1028C00004001500C9B2002906D002291ED010D379
:1028D000042935D027D340E0DFF8BC05A0600120F3
:1028E0002073112060734FF48C70E08112202082DD
:1028F00039E0DFF8A805A060012020731120607383
:1029000040F21D10E0816B2020822CE0DFF8900562
:10291000A06001202073112060734FF48E70E0815D
:102920006A2020821FE0DFF87C05A060022020736F
:102930001120607340F21B10E0816920208212E0B8
:10294000DFF86405A06001202073132060734FF44A
:102950008D70E0816820208205E07C22DFF84C1534
:10296000002001F0E6F8EDB2002D06D0022D1ED0B9
:1029700010D3042D35D027D340E0DFF81C052060AC
:1029800000202071112060714FF48C70E0811220C2
:10299000208239E0DFF8040520600020207111203A
:1029A000607140F21D10E0816B2020822CE0DFF886
:1029B000F004206000202071112060714FF48E70AF
:1029C000E0816A2020821FE0DFF8D8042060012027
:1029D00020711120607140F21B10E081692020827B
:1029E00012E0DFF8C4042060002020711320607121
:1029F0004FF48D70E0816820208205E0A822DFF886
:102A0000AC14002001F095F831BD10B5C0B200281B
:102A100006D002280AD006D304280DD009D30EE030
:102A2000DFF88C4411E0DFF88C440EE0DFF88844D6
:102A30000BE0DFF8884408E0DFF8844405E0BD22BD
:102A4000DFF86814002001F074F8200010BD38B5DC
:102A50000400DFF87054C9B22000C0B255F820005D
:102A6000FFF7FEFE2000C0B255F82000FFF705FF7B
:102A70000028F7D031BD70B505000E00140006E047
:102A800031782800C0B2FFF7E2FF641E761C002CEC
:102A9000F6D170BD38B504000D0005E0297820009E
:102AA000C0B2FFF7D4FF6D1C28780028F6D131BDE5
:102AB00070B504000D000020DFF808642000C0B2EB
:102AC00056F82000FFF7C7FE002807D0E4B256F8FA
:102AD0002400FFF7BDFE2870012000E00020C0B2F6
:102AE00070BD70B505000C00DFF8D8632800C0B2D7
:102AF00056F82000FFF7DBFE4008400001002800E8
:102B0000C0B256F82000FFF7CFFE2800C0B256F83A
:102B10002000FFF7CCFE30F0020001002800C0B218
:102B200056F82000FFF7C0FE2800C0B256F820007B
:102B3000FFF7BDFE30F0200001002800C0B256F8BB
:102B40002000FFF7B1FE2800C0B256F82000FFF7C2
:102B5000AEFE30F0400001002800C0B256F8200060
:102B6000FFF7A2FE2800C0B256F82000FFF79FFE34
:102B700030F0100001002800C0B256F82000FFF726
:102B800093FE2800C0B256F82000FFF790FE30F404
:102B9000807001002800C0B256F82000FFF784FEC4
:102BA0002800C0B256F82000FFF781FE30F48060A4
:102BB00001002800C0B256F82000FFF775FE002C77
:102BC0000ED02800C0B256F82000FFF76AFE50F47D
:102BD00000700100EDB256F82500FFF765FE0DE02C
:102BE0002800C0B256F82000FFF75BFE30F40070FA
:102BF0000100EDB256F82500FFF756FE70BD70B526
:102C000005000C00DFF8BC622800C0B256F82000B6
:102C1000FFF747FE4008400001002800C0B256F808
:102C20002000FFF73BFE2800C0B256F82000FFF757
:102C300038FE30F0080001002800C0B256F820002D
:102C4000FFF72CFE2800C0B256F82000FFF729FE3F
:102C500030F0200001002800C0B256F82000FFF735
:102C60001DFE2800C0B256F82000FFF71AFE30F40F
:102C7000807001002800C0B256F82000FFF70EFE59
:102C80002800C0B256F82000FFF70BFE30F40070A9
:102C900001002800C0B256F82000FFF7FFFD280011
:102CA000C0B256F82000FFF7FCFD30F400600100D0
:102CB0002800C0B256F82000FFF7F0FD002C0ED01F
:102CC0002800C0B256F82000FFF7EBFD50F00400DA
:102CD0000100EDB256F82500FFF7E0FD0DE02800F9
:102CE000C0B256F82000FFF7DCFD30F00400010010
:102CF000EDB256F82500FFF7D1FD70BD2DE9F84182
:102D0000A7B005000F00160028003100C0B2C9B2FC
:102D1000884201D1012000E000201C00DFF88C81F6
:102D20004FF4CE724146C0B200F003FF28002100EC
:102D3000C0B2C9B2884201D1012000E0002040F2B7
:102D40009D124146C0B200F0F4FE02A8142100F02A
:102D500071FF342100220DF168084046FFF706FBA1
:102D60004C2100220DF11C084046FFF7FFFAFF003E
:102D70003A00002354480021FEF738FB07002200E8
:102D8000D2B23100C9B202A8FFF799FD08201B900A
:102D90009DF80D008DF870001AAA9DF80C1002988D
:102DA00000F0D7FF06201B909DF815008DF87000ED
:102DB0001AAA9DF81410049800F0CBFF0020079089
:102DC000082008900820099002200B9000200C9009
:102DD00000201290002014903A4C2800C0B254F801
:102DE000200001F037F939492A00D2B23820424395
:102DF0000A4407A92800C0B254F8200000F0E8FFF8
:102E00002800C0B254F82000FFF754FD2A00D2B2C7
:102E10000321BDF91600FFF7BFFCBDF91600FFF74F
:102E2000B7FC17F01F010091C7F357132A00D2B265
:102E30000321C0B2FFF750FCBDF91600FFF7A8FC54
:102E40002A00D2B20321C0B2FFF7DBFCBDF91800A3
:102E5000ADF800000320ADF8020001208DF8040059
:102E600007221B482900C9B250F82110684601F01A
:102E70008FF900212800C0B2FFF7C1FE0021280011
:102E8000C0B2FFF72EFE28B0BDE8F08100000000C0
:102E900064B00810000004400000314000023140DE
:102EA000000531408008314000073140ACAB0810CC
:102EB0000000604000006540000064400000634086
:102EC0000000624064BF022800809698007E0328BC
:102ED00050BF02288AB10B7890F800C09C4506D1FB
:102EE00010F8013B4BB1491C521EF4D105E002D24F
:102EF0004FF0FF30704701207047002070470000FE
:102F000038B52DED028B040082B00D4600F0C18073
:102F100051EC100B31F0004108BF002800F0B980DF
:102F200051EC100B4A00521512F1010F02D10803A7
:102F300000F0AF80002CB7EE008B4AD564425749B1
:102F4000794401F5AC71082008E0E20744BF91ED37
:102F5000001B28EE018B64080831401E002C18BFAE
:102F60000028F2D16846FEF7EDF8009880EE080BD5
:102F7000FEF76AF951EC100B31F0004108BF002850
:102F800070D051EC100B4A00521512F1010F01D113
:102F9000080367D0002C65D06846FEF7D3F8009888
:102FA0009FED7A2B20EE020BFEF74EF951EC100B41
:102FB00031F0004108BF002854D051EC100B4A00FA
:102FC000521512F1010F01D108034BD0641EE3D159
:102FD00048E047DD31497944C2310820E20744BF67
:102FE00091ED001B28EE018B64100831401E002C6F
:102FF00001DD0028F2D16846FEF7A4F8009820EE23
:10300000080BFEF721F951EC100B31F0004108BF1D
:10301000002827D051EC100B4A00521512F1010F75
:1030200001D108031ED0002C1CDD6846FEF78AF88B
:1030300000989FED582B20EE020BFEF705F951EC9E
:10304000100B31F0004108BF00280BD051EC100BE1
:103050004A00521512F1010F01D1080302D0641E7B
:10306000002CE2DC51EC100B31F0004108BF0028CD
:1030700008D051EC100B4A00521512F1010F08D183
:10308000080306D1AFF300801DB1286840F00100AD
:10309000286002B0BDEC028B31BD00BFCC7B0000CC
:1030A0002DE9F14185B0884616461D001CBF002061
:1030B0002860059F05A801F086F8C41020F00800DC
:1030C000012804F0010425D10220009001AB0599EC
:1030D0004246384601F008F910B99FED300B15E073
:1030E0009DED020A0228B8EEC00B0FDB03A9401EBB
:1030F0009FED2C1B51F8042BB0EE402B00EE102A54
:10310000B8EEC00B401E02EE010BF3D10198294628
:10311000801927E0022828D1009001AB059942468A
:10312000384601F0B5F910B99FED1C0B15E09DED87
:10313000020A0228B8EEC00B0FDB03A9401E9FED68
:103140001B1B51F8042BB0EE402B00EE102AB8EEFA
:10315000C00B401E02EE010BF3D10198FEF774F88C
:1031600029463046FFF7CCFE0AE0032808BF9FED52
:10317000110B05D004280CBF9FED100B9FED070B22
:103180000CB1B1EE400B06B0BDE8F081436FAC640A
:103190002806C80A3CBF737FDD4F1575000000008C
:1031A000000000000000000065CDCD4100000000DF
:1031B0000000B041000000000000F07FFFFFFFFFB3
:1031C000FFFFFF7F00236BE700220021FAE70000EA
:1031D0002DE9F84F84B00BB100241C600446A046D2
:1031E00001E008F1010898F80000A0F10903052B9F
:1031F000F7D32028F5D02D2816BF2B2818F8015B0F
:103200002B25002A019103D4012A01D0252A03DBB2
:1032100000295AD00C6058E0002A0CDD102A04BFA7
:1032200098F80000302802BF98F8010040F0200014
:10323000782811D10CE098F80000302818BF0A2235
:103240000AD198F8010040F02000782803D110221C
:1032500008F1020800E00822CDF80C8001E008F136
:10326000010898F800003028F9D0074E7E4418363F
:103270004FF0000906F12800CDF80880CA468DF805
:10328000000017460DE000BF9079000001469DF850
:103290000000081ACA465FFA80FB07FB09B908F16B
:1032A000010898F80010A1F141001A2838BF203118
:1032B0003A4606F12800FDF7C5FE0028E6D103993D
:1032C000414504D1019800B10460002020E002993A
:1032D000F05DA8EB0101091A002910D406DCB9EB56
:1032E0000B0103D3B1FBF7F0504508D0AFF30080DA
:1032F000049808B1012101604FF0FF3903E02D2D42
:1033000008BFC9F10009019808B1C0F8008048461B
:1033100005B0BDE8F08F04E000E000000A220021C3
:10332000F9E7002354E700009FED8F2B20EE021BEE
:1033300053EC112B1946F0B421F0004457EC116BFB
:10334000274647EC126B9FED8A4BB4EE442BF1EE0F
:1033500010FA2DED068B2BD5B6EE002B53EC122B6D
:1033600001F00041194355EC124B0D4645EC124B50
:1033700032EE011BBDEEC11B11EE101A002900F048
:103380009D80BAEEC21B9FED7C3B01EE030B9FEDCF
:103390007C5B01EE050B9FED7C7B01EE070B9FED47
:1033A0007C9B01EE090B9FED7C3B01EE030B85E05E
:1033B00055EC104B6B0043EAD4735A15DB1712F12E
:1033C000010F14D14FF0FF30834208BF824208D171
:1033D0002D0345EA14552403002D08BF002C40F0AE
:1033E000BF80BDEC068B9FED6E0BF0BC704724F0E8
:1033F000000235F0004308BF002A08D1002800F081
:10340000AF80BDEC068BB7EE000BF0BC7047B6EE9C
:10341000002B53EC122B01F00041194355EC124BD9
:103420000D4645EC124B32EE011B53EC112B5D00A7
:1034300045EAD2755400002D08BF002C19D040F287
:103440003341A1EB5551352904DB02F0000203F0B2
:1034500000430CE0202903DD2039CB408B4000E005
:1034600001D1002203E00029C4BFCA408A4043ECD6
:10347000112B53EC112B22F0000433F0004508BF50
:10348000002C17D09FED483B21EE032B9FED3A5BBC
:1034900002EE050B9FED3A7B02EE070B9FED3A9B88
:1034A00002EE090B9FED3AAB02EE0A0B9FED3A5B81
:1034B00002EE050BBDEEC11B11EE101A53EC102BE2
:1034C00023F0004301F0030143EC112B9FED383B47
:1034D0000818B4EE431BF1EE10FA04D5C1073BD532
:1034E000B7EE000B38E0C10720EE001B1AD59FEDA8
:1034F000322B9FED334B01EE024B9FED336B04EE0D
:10350000016B9FED338B06EE018B9FED332B08EEA5
:10351000012B9FED334B02EE014BB7EE000B04EE97
:10352000010B19E09FED307B9FED314B01EE074B16
:103530009FED318B04EE018B9FED31AB08EE01ABBB
:103540009FED317B0AEE017B9FED314B20EE012B8D
:1035500007EE014B02EE040B800748BFB1EE400BB3
:10356000BDEC068BF0BC704783C8C96D305FE43F8B
:103570000000A0FFFFFFDF4100000050FB21B9C1A8
:1035800000000060B41011C00000002026A651BE4B
:10359000000000005C14D3BC000000209A833BBBF9
:1035A000FFFFFFFFFFFFFF7F000000000000303E35
:1035B000000000000000403E09260A1039BA213EF2
:1035C0003BA861C6F97D92BE63AC30909F01FA3E84
:1035D000F6FB51166CC156BFB10255555555A53F66
:1035E000AEFFFFFFFFFFDFBFB08F2FC310D8E53D59
:1035F0008F0C73A1E1E55ABE4DADE44FE31DC73E0C
:103600003EE3B519A0012ABFFAF010111111813F54
:10361000425555555555C5BF012085E610B40122C8
:1036200091F84C30052B03D291F84D30052B01D386
:103630001000A7E0002800F0A480002900F0A1807D
:10364000514A12684B7963F392428B7913F003036A
:1036500063F311420B7A13F0070363F31A62CB7919
:1036600063F39E720B7D63F3000291F8243063F3E1
:10367000410202600A7910F130031C6862F307040A
:103680001C604A79012A0BD18A79002A02D10022D2
:10369000826007E08A79012A04D10A68826001E029
:1036A00001228260CA6802610A694261CA69826154
:1036B0000A6AC2610A680262344A12680B7E03F029
:1036C000FF03120A12021A4391F8303003F0FF038D
:1036D00063F3174291F8403003F0FF0363F31F6276
:1036E00091F8483003F0FF0363F30F224264284A45
:1036F000126891F8383003F0FF03120A12021A43DD
:1037000091F8283003F0FF0363F30F228264214A0B
:1037100012688B7D13F00303920892001A4391F80C
:10372000253013F0030363F38B2291F82C3013F050
:10373000030363F3051291F8343013F0030363F3CA
:10374000092291F83C3013F0030363F3871291F8D8
:10375000443013F0030363F38302C2640E4A126819
:1037600091F84C3013F00703D208D2001A4391F8B5
:103770004D3013F0070363F306124265497D8167FC
:103780000022100010BC704730B1081034B108108E
:1037900038B108103CB1081040B10810016851F070
:1037A000004101607047016821F0004101607047ED
:1037B00081607047806870477830016851F001017E
:1037C0000160704710F170010A6852F001020A604E
:1037D000006F70474030016851F010010160704780
:1037E00082B000200190002000900020019009E0AC
:1037F0000098401C00900098B0F5005FF8D3019845
:10380000401C01900198B0F5805F02D2002000902A
:10381000F1E702B0704780B501000020FFF73AF9E8
:1038200001BD2DE9F043ADF5137D07008846160074
:103830001C000020ADF802000020ADF800000020C0
:1038400002900020ADF804000020ADF806004046CC
:10385000FDF7DCFB0290DFF8A4532888002801D094
:1038600028698047DFF898030078002800F033814A
:103870002888002800F01181BDF90600411CADF830
:1038800006103A00010089B20020EB6898474746CD
:103890004046FDF7BBFB02906888A97990FBF1F0E8
:1038A000ADF804003800471C00780028FAD1002049
:1038B000ADF800000EE07F1E38782F2802D038784F
:1038C0005C2804D1BDF80000401CADF8000002984F
:1038D000401E0290BDF80000022802DA029800287B
:1038E000E9D50298002806D47A1CDFF8181353A8EB
:1038F00000F0D4FE0EE0BDF80000002805D13A002B
:10390000C14953A800F0CAFE04E03A00BD4953A8DB
:1039100000F0C4FE0020ADF8020042E0BDF8001047
:10392000BDF80020BDF8023053AF9BB2BDF90400D2
:10393000434313FA82F0385C43AA89B25054BDF86D
:103940000000401CADF80000BDF8000080B2BDF9D9
:10395000041088420EDA53A8FDF758FBBDF800208A
:10396000BDF802309BB2BDF904104B4313FA82F14B
:103970008842D3D2002043A9BDF800208854BDF965
:103980000600411CADF8061043AAE97911FB00F1CD
:1039900089B20020EB689847BDF80200401CADF8E2
:1039A0000200BDF8027053A8FDF730FBBDF904100A
:1039B000B0FBF1F0401CBFB2874203D20020ADF84B
:1039C0000000C1E73200914953A800F067FEBDF93D
:1039D0000600411CADF8061053AAE97911FB00F16D
:1039E00089B20020EB689847002C74D00020ADF815
:1039F000020041E0BDF80010BDF80020BDF8023023
:103A00009BB2BDF90400434313FA82F0205C43AA41
:103A100089B25054BDF80000401CADF80000BDF85C
:103A2000000080B2BDF9041088420EDA2000FDF7D4
:103A3000EDFABDF80020BDF802309BB2BDF90410CC
:103A40004B4313FA82F18842D4D2002043A9BDF837
:103A500000208854BDF90600411CADF8061043AAA9
:103A6000E97911FB00F189B20020EB689847BDF8B5
:103A70000200401CADF80200BDF802602000FDF716
:103A8000C5FABDF90410B0FBF1F0401CB6B2864295
:103A900021D20020ADF80000C1E74FF48071002270
:103AA0000DF10C094846FEF761FC3800A96888470B
:103AB000002C07D0009433004246554903A800F07B
:103AC000EDFD05E033004246524903A800F0E6FD53
:103AD00003A8A96888470DF5137DBDE8F08380B57C
:103AE0000A0001000020FEF7C6FF002002BD02B55B
:103AF000010000236A46484800F025FF009802BDF7
:103B000010B53F480078002809D0444C210000201F
:103B1000FEF7CEFF012221003F4800F044FE10BD19
:103B200010B514002200D2B20020FEF7A4FF20003E
:103B300010BD38B50C001500C0B2002803D13848BC
:103B40000078002800D131BD36490878002800D01F
:103B5000FEE70878401C087000F00EFB00232A00E6
:103B600021003148FFF75DFEFFF73AFEF6E700213E
:103B700001804FF6FF7141808180FF218171C17109
:103B8000002181600021C1600021016170471B4953
:103B900002880A8042884A8082888A8082798A7173
:103BA000C279CA7182688A60C268CA6000690861A5
:103BB000012013490870704700B585B06846FFF7CB
:103BC000D6FF1A4802906846FFF7E1FF05B000BD36
:103BD00080B5FFF7F1FF002300225FF4E131002000
:103BE000FFF78CF84023124A00210B4801F05EF8E1
:103BF00001210020FFF703F801BD00008C8303289A
:103C00003284032828B008105CAF081034B00810C4
:103C100090AE08102CAF08100083032833840328CB
:103C200084BF0228348403286CAF081017380810AA
:103C3000D4810328002201F059B8000030B4614B50
:103C40001818C009604C14EB001404290DD2236825
:103C50001F25C8008540AB43D2B212F01F02C90035
:103C600012FA01F1194321600CE0091F63681F2556
:103C7000C8008540AB43D2B212F01F02C9008A408F
:103C80001A43626030BC7047002A04D1012212FA44
:103C900001F1416003E0012212FA01F181607047F5
:103CA00010B48900436C0F248C40A34312F00F0220
:103CB00012FA01F11943416410BC704710B4836CCF
:103CC00001248C40A34312F0010212FA01F11943BE
:103CD000816410BC704710B4C36C01248C40A343B2
:103CE00012F0010212FA01F11943C16410BC7047CD
:103CF00010B449001031C36C03248C40A34312F06C
:103D0000030212FA01F11943C16410BC7047426901
:103D1000012212FA01F141614069704710B48369D0
:103D200001248C40A34312F0010212FA01F119435D
:103D3000816110BC704710B44900036C03248C40AF
:103D4000A34312F0030212FA01F11943016410BCFB
:103D50007047F8B505000E0014000027002D2ED086
:103D6000002C2CD0226831002800FFF78DFF227A2A
:103D700031002800FFF762FF626931002800FFF779
:103D80009DFFA26931002800FFF7A5FFE26931001D
:103D90002800FFF7ADFF626831002800FFF780FFC1
:103DA000E26831002800FFF7C6FF31002800FFF766
:103DB000AEFF226931002800FFF7B0FF00E0034F9B
:103DC0003800F2BD0000CFBF0000304001005A00B3
:103DD0002DE9F44FDFF8D822DFF8D8321B68DFF87E
:103DE000D8422468DFF8D4522D68DFF8D4623668F0
:103DF000DFF8D0723F68DFF8D0C2DCF800C0DFF82F
:103E0000CCE2DEF800E0DFF8C882D8F80080DFF806
:103E1000C492D9F80090DFF8C0A2DAF800A0002818
:103E200000F01581002900F012810A68022A06D1EB
:103E300091F82620002A02D15FF0000B03E0D1F8B0
:103E400004B0BBF1010B91F82420002A01D001221B
:103E500000E0002262F3104333F440436BF30303AA
:103E6000022262F3196303600A7812F0030262F31C
:103E70001964046491F82520002A01D0012200E091
:103E8000002262F38615CA7E002A01D0012200E0DA
:103E9000002262F38A254A7E002A01D0012200E036
:103EA000002262F308258A7E002A01D0012200E068
:103EB000002262F349258A6B521E12F00F0262F350
:103EC00013450A69521E12F00702ED08ED00154372
:103ED0004A6962F304154A69520862F3451585641C
:103EE0000A7B002A01D0012200E0002262F30826AA
:103EF0000A7E002A01D0012200E0002262F3492656
:103F00008A68521E12F01F02760976011643C0F825
:103F100000630A7F02F0FF023F0A3F02174391F855
:103F2000202002F0FF0262F31747C0F8107391F8E7
:103F30002720002A01D0012200E0002262F3082C91
:103F40000A69521E12F007025FEADC0C5FEACC0C31
:103F500052EA0C0C4A6962F3041C4A69520862F383
:103F6000451CC0F844C00A7B002A01D0012200E0B1
:103F7000002262F3082E8A68521E12F01F025FEAC6
:103F80005E1E5FEA4E1E52EA0E0E0A68012A01D139
:103F9000012200E0002262F3104EC0F800E291F826
:103FA0003C2002F0FF025FEA18285FEA082852EA84
:103FB0000808C0F8048391F82820002A01D00122C3
:103FC00000E0002262F35969CA6A012A01D1012284
:103FD00000E0002262F318694A6B012A01D1012333
:103FE00000E00023009A63F3104991F8303003F0A9
:103FF000FF035FEA19295FEA092953EA0909C0F8B2
:10400000509091F8443003F0FF035FEA1A2A5FEA08
:104010000A2A53EA0A0AC0F804A28B6CC0F8883F47
:10402000096CC0F8C81F002A10D000205060002082
:104030001060002090600020D060002010620020FE
:10404000D06200201063DFF894005063002210005B
:10405000BDE8F28FDFF8881001605FF44011016461
:104060000021816440F20711C0F800130022C0F85B
:1040700004230022C0F8102300224264C0F800127A
:104080000021C0F80412002101650021C0F8C81EFB
:104090000021C0F8881E0021C0F8C81F0021C0F808
:1040A000881F0021C0F8081F0021C0F8481F704772
:1040B0000160AA0000B1081004B1081008B108108E
:1040C0000CB1081010B1081014B1081018B1081084
:1040D0001CB1081020B1081024B10810EFCDAB00BE
:1040E0000F000003010009B2002908D4012210F0DA
:1040F0001F018A401B4900B2400941F82020704747
:10410000010009B2002908D4012210F01F018A40E1
:10411000154900B2400941F820207047020012B250
:10412000002A04D44901114A00B2115407E04901A0
:104130000F4A00B210F00F00104400F8041C704742
:10414000002800D162B60B480168491C0160704725
:1041500072B608490868002802D00868401E086046
:104160000868704700E100E080E200E000E400E061
:1041700018ED00E0F883032880B5FFF7E9FF00F0B1
:10418000CFFD01BD80B5C9B200B2FFF7C7FF01BDC9
:1041900070B504000D001600200000F0D1FD2900CC
:1041A000B4F9000000F00BFE3100C9B2B4F902000E
:1041B000FFF7E8FFB4F90200FFF7A2FFB4F902002D
:1041C000FFF790FF70BDF0B404682346002200E0C2
:1041D0005B1C1D78A5F10906052EF9D3202DF7D01B
:1041E0002D2D0CBF08222B2D00D15B1C1D7845F016
:1041F00020066E2E26D15A7842F02002612A02BF94
:104200009A7842F020026E2A02D02346002245E02E
:10421000DB1C1C4604222578282D3FD114F8015FB1
:10422000A5F161061A2EF9D3A5F141071A2F24BF73
:10423000303D0A2DF2D325785F2DEFD0292D2DD1D9
:10424000631C2BE0692E2CD15D7845F020056E2D86
:1042500002BF9D7845F02005662D02D0234600223E
:104260001CE013F8034F44F0200442F00302692CD1
:1042700002BF5C7844F020046E2C0FD19C7844F08F
:104280002004692C02BFDC7844F02004742C05D192
:104290001C7944F02004792C08BF5B1DF9B10B6038
:1042A0001DE0302D02BF597841F02001782914D14A
:1042B000991C0C782E2C08BF491C0978A1F16104C7
:1042C000052C84BFA1F14105052D02D930390A29F9
:1042D00003D29B1C42F0020201E042F001020360A3
:1042E0001046F0BC704700002DE9F0478CB0002765
:1042F000149C04EBC404804691464FF0000E2D2C14
:10430000C8BF2D2400201860586001E0491C01201E
:104310000A78302AFAD0002211E01868401C186090
:104320000878302809D04FF0010E06E0A242F4DAF6
:10433000A6F130000DF80200521C491C01200E7835
:10434000A6F130050A2DF1D32E2E08BF491C72B9F3
:104350000D78302D0BD11868401E1860491C0120C3
:10436000F6E7302E18BF4FF0010E491C01200E78E1
:10437000A6F130050A2D0AD2A242F2DAA6F13000E7
:104380000DF80200521C1868401E1860EDE7BEF1DF
:10439000000F8C460DD00DF1FF310D5D6D1C0D55DC
:1043A00007E00DF1FF34A15C49B91968491C196097
:1043B000521E002AF5DC04BF8DF80070012200288F
:1043C00058D04FF0090E92FBFEFEC2F109040EEB2D
:1043D000CE010C44092194FBF1F1002501EBC10150
:1043E000611A18D0012716E053F8271001EB81015C
:1043F00006EB410143F827100BE0092194FBF1F192
:1044000001EBC1011DF80560611AEDD17F1C43F875
:104410002760641C6D1C9542EFDB9CF8001041F096
:104420002001652926D161461CF8012F2B2A16BFD1
:104430002D2A1CF8016B2B2600220024DFF84CE00B
:1044400009E0744504DA04EB840205EB4204303CD5
:104450000CF1010C01229CF80050A5F1300ABAF1D0
:104460000A0FEED32D2E08BF64421E68A4191C60EB
:1044700002B98C46B9F1000F03D000B9C446C9F89F
:1044800000C038460CB0BDE8F08700BF00E1F5057C
:104490002DE9F14F8CB09146DDF85880C8EBC80883
:1044A0004FF0000AB8F1230FC8BF4FF02308C3F83C
:1044B00000A0C3F804A0002501E0491C01250878EC
:1044C0003028FAD069A201925FF000046DA2009238
:1044D0000DF1080B0E461F460EE03868401C386090
:1044E00008E0A045F9DB019A0099801A085C0BF8F6
:1044F0000400641C761C012596F800105BA01622AF
:10450000FCF7A0FD0028ECD130463E4601782F464E
:104510002E2908BF401C002C054616D128783028CB
:1045200013D13168491E31606D1C0127F6E7A045A3
:1045300009DB019A0099801A085C0BF80400641CDE
:104540003168491E31606D1C012729785FF0160221
:1045500046A0FCF777FD0028E9D1A04517DA1BF843
:104560000810072906DD0DF1070111F80820521C7B
:1045700001F8082044463268521C326007E00DF111
:104580000702115D49B93268521C3260641E002C6A
:10459000F5DC04BF8DF808A0012431688900002FE4
:1045A000316055D0072394FBF3F3C4F1070BC3EB41
:1045B000C3035B44072193FBF1F10022C1EBC1016E
:1045C000591A19D04FF0010A16E056F82A100BEBD1
:1045D000011046F82A000DE0072102A893FBF1F133
:1045E000C1EBC10110F802B0591AEED10AF1010A6B
:1045F00046F82AB05B1C521CA242EDDB297841F040
:104600002001702924D1294615F8012F2B2A16BF25
:104610002D2A15F8014B2B2400220023124808E014
:10462000834204DA03EB83020CEB4203303B6D1C44
:10463000012295F800C0ACF1300EBEF10A0FEFD3A5
:104640002D2C08BF5B4234681B19336002B90D463C
:10465000B9F1000F03D007B90C9DC9F800505046BE
:104660000DB0BDE8F08F000000E1F50530313233C8
:104670003435363738396162636465664142434494
:1046800045460000000102030405060708090A0B5D
:104690000C0D0E0F0A0B0C0D0E0F00000CB430B5F4
:1046A00083B00A4606A902910446002501940095AC
:1046B00002AB01A9084878441E30FBF7E4FC019ADC
:1046C000157000284EBF04460198041B204603B015
:1046D00030BC5DF80CFB00BFEBC8FFFF8268891897
:1046E000816003E082684169521A82608168426990
:1046F0009142F7D27047C2688918C16003E0C2686E
:104700004169521AC260C16842699142F7D270474A
:1047100070B50400002C01D0012000E000205422DC
:10472000DFF8C415C0B2FFF704FA0025207850F076
:10473000010020700020A0600020E060606920611E
:104740006078002803D0022810D007D315E06169F3
:10475000002266683000FDF709FE0EE0616949003D
:10476000002266683000FDF701FE06E061698900FD
:10477000002266683000FDF7F9FD00202070280057
:10478000C0B270BD10B50400002C01D0012000E0C3
:1047900000207022DFF85015C0B2FFF7CAF9606937
:1047A0002169401A10BD2DE9F84305001600002DBF
:1047B00001D0012000E000200C00AA22DFF828151B
:1047C000C0B2FFF7B6F900270020002C01D1032763
:1047D000B5E0287810F0050F01D00427AFE0287865
:1047E00050F0040028702869B042C0F0A380D5F8CA
:1047F0001480A868B8EB0008B04567D26878002834
:1048000003D0022841D01FD390E0424621006868BF
:10481000AB6800EB03094846FCF740FC4146280022
:10482000FFF75CFFB6EB080204EB08016868AB68B1
:1048300000EB03042000FCF731FCB6EB080841460E
:104840002800FFF74BFF71E05FEA4802210068682B
:10485000AB6800EB43094846FCF720FC41462800C2
:10486000FFF73CFFB6EB0802520004EB4801686812
:10487000AB6800EB43042000FCF710FCB6EB080823
:1048800041462800FFF72AFF50E05FEA8802210036
:104890006868AB6800EB83094846FCF7FFFB4146BC
:1048A0002800FFF71BFFB6EB0802920004EB88011B
:1048B0006868AB6800EB83042000FCF7EFFBB6EB05
:1048C000080841462800FFF709FF2FE06878002814
:1048D00003D002281DD00ED328E0320021006868E2
:1048E000AB6800EB03042000FCF7D8FB3100280084
:1048F000FFF7F4FE1AE0720021006868AB6800EB75
:1049000043042000FCF7CAFB31002800FFF7E6FE55
:104910000CE0B20021006868AB6800EB8304200063
:10492000FCF7BCFB31002800FFF7D8FE2869861B86
:104930002E6100E00527287810F0FB002870380071
:10494000C0B2BDE8F2832DE9F04705000E001F005C
:10495000002D01D0012000E000201400DFF8888342
:1049600040F25B124146C0B2FFF7E3F8002C01D0E1
:10497000012000E000204FF4AE724146C0B2FFF7C4
:10498000D8F85FF0000800200020002E02D15FF070
:1049900003088BE0297811F0030F03D020605FF04B
:1049A00006089CE02800FFF7EDFE2168884209D246
:1049B00020605FF00708002804D1287810F0F70085
:1049C00028708CE0287850F008002870D5F81490F2
:1049D000E868B9EB00092068814522D3687800288F
:1049E00003D0022813D008D35CE022686868E96825
:1049F00001443000FCF752FB54E022685200686822
:104A0000E96800EB41013000FCF748FB4AE022680E
:104A100092006868E96800EB81013000FCF73EFB1A
:104A200040E06878002803D0022827D011D339E06D
:104A30004A466868E9680144B2465046FCF72EFBD6
:104A40002268B2EB090269684E443000FCF726FB8D
:104A500028E05FEA49026868E96800EB4101B24674
:104A60005046FCF71BFB2268B2EB09025200696852
:104A700006EB49063000FCF711FB13E05FEA890200
:104A80006868E96800EB8101B2465046FCF706FB16
:104A90002268B2EB09029200696806EB89063000D1
:104AA000FCF7FCFA287810F0F7002870FFB2002F0E
:104AB00015D128780B2802D15FF002080FE0287882
:104AC00050F00200287021682800FFF714FE2969C1
:104AD000206841182961287810F0FD0028704046B0
:104AE000C0B2BDE8F0872DE9F04705000E001F00B9
:104AF000002D01D0012000E000201400DFF8E88143
:104B00004FF4DF724146C0B2FFF713F8002C01D01A
:104B1000012000E0002040F2BF124146C0B2FFF782
:104B200008F85FF0000800200020002E02D15FF09E
:104B30000308ABE0297811F0070F03D020605FF085
:104B40000608AFE02800FFF71DFE2168884209D261
:104B500020605FF00708002804D1287810F0F700E3
:104B600028709FE0287850F008002870E868A9684D
:104B7000884203D3A8682168884228D3687800282F
:104B800003D0022817D00AD37CE022686968AB689A
:104B900020681B1A19443000FCF780FA72E0226882
:104BA00052006968AB6820681B1A01EB43013000B2
:104BB000FCF774FA66E0226892006968AB682068C6
:104BC0001B1A01EB83013000FCF768FA5AE0D4F8B5
:104BD0000090A868B9EB00096878002803D0022883
:104BE00035D018D34EE04A4668686969B1EB0901CF
:104BF0000144B2465046FCF751FA2268B2EB090272
:104C00006968AB6820681B1A194406EB0904200088
:104C1000FCF744FA36E05FEA490268686969B1EB7B
:104C2000090100EB4101B2465046FCF737FA226811
:104C3000B2EB090252006968AB6820681B1A01EBED
:104C4000430106EB49042000FCF728FA1AE05FEA6A
:104C5000890268686969B1EB090100EB8101B2461C
:104C60005046FCF71BFA2268B2EB09029200696811
:104C7000AB6820681B1A01EB830106EB8904200056
:104C8000FCF70CFA287810F0F7002870FFB2002F1C
:104C900008D128780B2802D15FF0020802E0280032
:104CA000FFF736FD4046C0B2BDE8F087F8B5040016
:104CB0000E0017001D00002C01D0012000E0002094
:104CC0004FF407720849C0B2FEF733FF0020676057
:104CD0000021217066700021A1600021E160256142
:104CE0006561C0B2F2BD000040AB081000B500BF66
:104CF000130096469446103928BFA0E80C50FAD805
:104D00005FEA417C28BF0CC048BF40F8042BC907AC
:104D100028BF20F8022B48BF00F8012B00BD00007F
:104D2000002007E00549C2018A5822F00042C30171
:104D3000CA50401C3F28F5DB704700000000584077
:104D400030B40021234A1368234A1468002832D063
:104D5000224A1568C5F303250E2D0FD01268C2F341
:104D600003220D2A28D1827812F00F02240924018F
:104D700014430279002A15D0012214E0827812F03F
:104D80000F021B091B0113430279002A01D00122E3
:104D900000E0002262F3DF73114AB0F9000042F82C
:104DA000203009E0002262F3DF740E4AB0F90000FF
:104DB00042F8204000E00649080030BC70470A4B2A
:104DC0001A68002A03D01A6800B242F8201070470F
:104DD0000100560028B108102CB108100000204036
:104DE00000A0204000C0204030BF022838B54FF45A
:104DF000C9610022DFF8184A25002800FDF7B6FA3D
:104E00000020A4F840060020A4F84206002084F800
:104E1000440624210022DFF8584A25002800FDF727
:104E2000A5FA02202070002060700020A0700020F1
:104E3000E07000202071002060710020A07100202F
:104E4000E07100202072002060720020E0600020ED
:104E5000208200206082002020750020A061342183
:104E60000022DFF8104A25002800FDF77FFA002015
:104E700060720020A072002020720020E07231BD1C
:104E8000DFF88C09B0F840067047DFF88419B1F8F4
:104E90004006002804D1DFF8D8090078012820D086
:104EA0000020A1F84206DFF8C80901214170012164
:104EB00081700021C1700021017100214171002128
:104EC00081710021C171002101720021C1600021A6
:104ED000018200214182002101750020DFF8941930
:104EE000C8727047DFF88819087070472DE9F047DD
:104EF0002DED028B9FEDB00A9FEDAF8A0025DFF804
:104F000070697178012940F03C810400200000F0B4
:104F10004BFA0700200000F0A7FA80464246D2B2C2
:104F20003900C9B2200000F017FB82465046C0B2DB
:104F300000F088FB81465146C9B2B07800F091FB81
:104F4000002804D086F802A086F8099018E05046A0
:104F5000B178C0B2884208D1707A5FFA89F94845C1
:104F60000ED2707A401C70720AE0707A002803D06A
:104F7000707A401E707203E086F802A086F80990ED
:104F8000DFF8F09889F80C7089F80D80B07889F80E
:104F90000A00606BC9F814003800C0B200F0DAF9FA
:104FA000207B002813D0A07B002810D0DFF8CC0A8B
:104FB000B0F8400600280AD0200000F02BFCB0EE2C
:104FC000401AD4ED010A94ED000A00F0DFFC002045
:104FD000C9F82C000020C9F830003800C0B2002801
:104FE00007D094ED0B0AB4F92A0000F045FC89EDD6
:104FF0000B0A4046C0B2002804D0200000F0A2FCFA
:1050000089ED0C0A96F806A03078002802D0012815
:105010000ED026E0FFB2002F06D05FF0000A012577
:10502000092089F80B0002E0082089F80B0033E022
:105030005FFA88F8B8F1000F06D05FF0010A012589
:10504000092089F80B000BE0200000F017FA89F81E
:105050000B0099F80B00002802D1082089F80B00FA
:105060001AE04246D2B23900C9B2200000F00DFB6E
:1050700082465046C0B2002802D1FFB2002F08D1AC
:105080005046C0B2012806D15FFA88F8B8F1000F87
:1050900001D0012500E000252800C0B2002815D06D
:1050A00086F806A086F807A089F808A05046C0B286
:1050B000002805D199ED0B0A306A401C306207E0E8
:1050C00099ED0C0AF069401CF06101E09FED3A0A8D
:1050D000B078022809D01AD304280CD008D30628A7
:1050E0000FD00BD307280FD011E09FEDA98A0EE057
:1050F0009FEDA88A0BE09FEDA88A08E09FEDA78AA4
:1051000005E09FEDA78A02E09FEDA68AFFE7DFF8A2
:105110006C09B0F84216B0F84026914206D2B0F8B9
:1051200042160901084490ED038A0AE02800C0B243
:10513000002806D05FFA8AFABAF1000F01D19FED7C
:10514000998AEDB2002D01D19FED958A89ED018AF2
:1051500000F048FBB3EE0E1AFBEE0E0A00F0A4FCC2
:1051600089ED000AF07889F80E00307989F80F008F
:10517000307A89F81000707A89F81100707889F80F
:105180000900BDEC028BBDE8F087000080B531EE70
:10519000400A71EEE00A00F099FCDFEDB10A20EE62
:1051A000200AB5EE400AF1EE10FA03D5DFEDAD0AA4
:1051B00030EE200A01BD00000000000080B530EE96
:1051C000C00A00F03BFC01BD80B531EE400A71EE33
:1051D000E00A20EE000A00EEA00A00F0ADFC01BDDE
:1051E00080B52DED068BF0EE408AB0EE608A0100AE
:1051F00089B2002907D0DFF818160200B1F840364E
:1052000092B29A4202D39FEDB40A38E0020092B201
:1052100012010A4452F8102C09EE102A020092B230
:1052200012010A4452F80C2C09EE902A020092B2A4
:1052300012010A4492ED000A80B200010844D0ED48
:10524000010A30EE49AA70EEE9AA2AEE0A0A0AEE2D
:10525000AA0A00F071FCDFEDA10AB4EE600AF1EEDB
:1052600010FA02D59FED9C0A09E078EEC90A60EEBB
:10527000AA0A39EEC81A41EE0A0A80EE800ABDEC8D
:10528000068B01BD80B52DED068BB0EE418ADFF8AF
:105290008015B1F84006002805D0B1F84206B1F8F3
:1052A0004026904202D39FED8C0A50E0B1F84206AE
:1052B0000001084490ED001AB1F8420600010844CC
:1052C000D0ED011A71EE408A31EEE09AF0EE490A13
:1052D000B0EE680A00F0FAFBDFED610A60EE209A9A
:1052E000F5EE409AF1EE10FA03D59FED5E0A79EEE5
:1052F000809A39EEC88A03E09FED940A38EE008A5E
:105300009FED930AB4EE408AF1EE10FAF4DA9FEDC5
:10531000910AB4EE408AF1EE10FA04D59FED510ADD
:1053200038EE008AF3E7B6EE000A28EE00AA28EE6F
:10533000A80A09EE090A00F0FFFBDFF8640780ED18
:10534000080AC0ED099A80ED068AB0EE4A0ABDEC63
:10535000068B01BDC0B200280CD1DFF81405C1785E
:10536000491CC17000210171C17805290EDB0121A2
:1053700041710BE0DFF8F8040179491C017100214B
:10538000C1700179032901DB0021417170470000E0
:105390009A99193FCDCCCC3ECDCC4C3E3333B33E65
:1053A0009A99993ECDCC4C3F10B490F8301000291A
:1053B00005D10020DFF8B814087500204EE090F801
:1053C0003110142905DA0020DFF8A4140875002034
:1053D00044E0416B40F22D12914205D30020DFF8EA
:1053E00090140875002039E090F83A10032905D18F
:1053F0000020DFF87C14087500202FE0DFF87044EF
:10540000217D002907D1418D2182008F60820120FA
:105410002075012022E0428D218A521A110009B222
:10542000002901D512B25242038F618A5B1A19001A
:1054300009B2002901D51BB25B42418D2182008F48
:10544000608212B22E2A01DB002007E01BB240F27C
:10545000F510834201DB002000E0012010BC704702
:10546000E12E65420000B44380B500F007F8002843
:1054700001D1012000E00020C0B202BD017B002963
:1054800005D0417B002902D0817B002901D1052074
:1054900020E090ED040ADFED6A0AB4EE600AF1EE56
:1054A00010FA01DB052015E0406940F2DD51884229
:1054B00001D306200EE0DFF8C415B1F8400600283D
:1054C00005D0B1F84206B1F84016884201D3072052
:1054D00000E0002070470000000000006F12833AD7
:1054E00070B50C0015001E00FFF7C8FF56EA050155
:1054F000C9B2002907D10100C9B2002901D0C0B248
:1055000022E0082020E02100C9B200290CD1F6B227
:10551000002E07D10100C9B2002901D0C0B213E0AA
:10552000052011E001200FE0E4B2012C0BD1EDB217
:10553000002D04D0DFF838034079002801D0032083
:1055400002E0022000E0002070BD00000000B4C3B3
:1055500001003443000034C310B4DFF81443A378CF
:10556000032B0CD1837F002B09D0017E002904D0AE
:10557000407E022801DB04205FE003205DE0A37889
:10558000022B07D1837E002B02D1C37E002B01D0DA
:10559000022052E0A378062B08D190F82630002B89
:1055A00002D1437E002B01D0062046E0A378052BD4
:1055B00009D190F82230002B03D190F82330002B32
:1055C00001D0052039E0837F002B09D0017E00291E
:1055D00004D0407E022801DB04202EE003202CE0D2
:1055E00090F82230002B05D090F82330022B01DBFD
:1055F000052022E090F82630002B03D090F82730C9
:10560000022B05DA037E002B04D0437E022B01DB44
:10561000062012E0837E002B04D0C07E002801D03B
:1056200002200AE0D2B2002A01D0072005E0C9B268
:10563000002901D0012000E0002010BC70470000CC
:1056400001006040C0B2801E07D0401E022802D96F
:10565000C01E02D003E0022002E0012000E0002092
:1056600070470200D2B2032A05D10A00D2B2042A3E
:1056700001D1012008E0C0B2072804D1C9B2012934
:1056800001D1012000E00020704770B50500130033
:10569000774CA07802280BD0A078032808D0A078F7
:1056A000042805D0A078052802D0A078062818D1B3
:1056B000C9B2002910D0A079002805D004206D4976
:1056C000C8720020207205E001206A49C872207A61
:1056D000401C2072002084E008206649C872A0792E
:1056E0007FE00800C0B200282BD06079002828D1C4
:1056F000A07901280ED11800C0B200280AD0207A63
:10570000052807DA02205B49C872207A401C207203
:10571000012066E0A079002805D004205549C87210
:10572000002020720BE0DBB20A00D2B20021280078
:10573000FFF7D6FE4F49C872207A401C2072002025
:105740004FE01800C0B2002816D0A079012805D07B
:1057500003204849C872002020720BE0DBB20A0027
:10576000D2B201212800FFF7BBFE4249C872207A5D
:10577000401C2072012034E0C9B2002922D0A07957
:1057800000280CD03B4E2800FFF778FEF072F07A2C
:10579000002801D10520F0720020207210E02800BE
:1057A000FFF76CFE002805D02800FFF767FE31499F
:1057B000C87202E001202F49C872207A401C207272
:1057C00000200EE02800FFF759FE002805D0280031
:1057D000FFF754FE2749C87202E008202549C87225
:1057E000A07970BD10B5224CD4ED030A30EE600AEA
:1057F000B1EE081AF9EE080A00F056F9D4ED030AE2
:1058000030EE800A84ED030A94ED030A10BD000017
:10581000C86F032890ED0F0AF6EE000AB4EE600A96
:10582000F1EE10FA1ED590ED100ADFED910AB4EEFC
:10583000600AF1EE10FA15DB90ED100ADFED8D0A2B
:10584000B4EE600AF1EE10FA0CD590ED100AB5EE48
:10585000400AF1EE10FA05D09149026C8A6290ED8F
:10586000100A04E08E4982688A6290ED020A70474D
:105870004882032814820328F0EE400A9FED7E1A26
:10588000010009B200EE101AB8EEC00A20EE010ABB
:1058900084498978022907D048D3042920D011D31C
:1058A000062935D026D341E000B200EE100AB8EE4A
:1058B000C00A9FED731A20EE010AB1EE081A00EE3D
:1058C000810A3EE000B200EE100AB8EEC00A9FED79
:1058D0006D1A20EE010AB0EE081A00EE810A30E0DF
:1058E00000B200EE100AB8EEC00ADFED670A20EE43
:1058F000200A26E000B200EE100AB8EEC00A9FEDC2
:10590000631A20EE010AB0EE001A00EE810A18E0D8
:1059100000B200EE100AB8EEC00A9FED5D1A20EE4C
:10592000010AB7EE081A00EE810A0AE000B200EEA2
:10593000100AB8EEC00A20EE010AB1EE041A00EE19
:10594000810A704710B52DED028B04002000FFF78F
:1059500061FFB0EE401AF0EE001AD4ED010A94EDAA
:10596000000AFFF78FFCB0EE408A4448B0F84206C8
:10597000D4ED010A94ED000AFFF732FC484880EDAF
:10598000070AB0EE480ABDEC028B10BD70B52DEDD4
:10599000048BB0EE408AF0EE608AB0EE419A374C4C
:1059A000B4F84206B4F84016884244D2B4F842062D
:1059B000000104EB0005D5ED011A95ED001AF0EE9B
:1059C000680AB0EE480AFFF7FFFBF0EE409A344E4B
:1059D000C6ED089AD5ED011A95ED001AF0EE680AA9
:1059E000B0EE480AFFF7D2FBF0EE400AC6ED090A16
:1059F000B0EE490AFFF7E2FB86ED060AB7EE000AB1
:105A0000F4EE409AF1EE10FA15D5B4F84206401CB7
:105A1000A4F84206B4F84206B4F8401688420AD305
:105A200094F84406002803D00020A4F8420602E0BF
:105A300003201C494870BDEC048B70BD03E0DFED12
:105A4000150A30EE200ADFED140AB4EE600AF1EE1A
:105A500010FAF4DADFED110AB4EE600AF1EE10FA92
:105A600004D5DFED040A30EE200AF3E770470000AA
:105A7000FFFFB3C30000B443CDCC4C3EC86F032836
:105A80009A99993EEC51383ECDCCCC3D295C0F3EE5
:105A90008FC2F53D0000B4C301003443000034C39D
:105AA0001482032848820328B4EE600AF1EE10FA4B
:105AB00002D5B0EE600A07E0B4EE401AF1EE10FA3B
:105AC00002D5B0EE410AFFE77047000052EC101A11
:105AD000B0EEC00AC80F49005200F0EEE00A28BF3D
