:020000041008E2
:1000000000000828FD6708101572081021700810FC
:10001000197208101D7208102172081000000000EB
:10002000000000000000000000000000B170081097
:100030002572081000000000297208102D720810A7
:10004000D7630810FD630810236408104964081082
:100050006F64081095640810BB640810E164081010
:100060003172081035720810397208103D7208108C
:100070004172081045720810497208104D7208103C
:1000800040F0200070472DE9F14FB0B09246049146
:100090000DF142013A9A2B9199464A7000200AE0EC
:1000A0001AF8011B0498309A90470028049000F039
:1000B00034860D98401C0D909AF8000050B1252808
:1000C000EED1002100220791089209910A920B912A
:1000D0000C9204E00D9800F022BE41F001011AF8E4
:1000E000010F2028F9D023280CD02B2804D02D284C
:1000F00005D0302809D00BE041F00201EFE741F0D4
:100100000401ECE741F00801E9E741F01001E6E7FE
:100110002A280FD1D9F8002052F8040BC9F8002082
:1001200000280F9003D540420F9041F004010AF1DE
:10013000010A14E00F92DFF8EC3B0AE00F989842B6
:1001400005DA00EB800402EB4402303A0F920AF128
:10015000010A9AF80020A2F130000A28EED39AF89A
:1001600000002E2803D04FF0FF320E9229E01AF83B
:10017000010F2A2809D1D9F8000050F8042BC9F83A
:1001800000000E920AF1010A1BE02D280CBF0AF1B3
:10019000010A002000220E92DFF8884B0BE040B9E4
:1001A0000E9AA24205DA02EB820503EB4503303BCF
:1001B0000E930AF1010A9AF80030A3F130020A2ADC
:1001C000EDD3ADF840100FF660309AF8001000F053
:1001D000EDFE08B11AF8010B8DF842009DF84200BF
:1001E000682805D19AF8000068280CD1622106E041
:1001F0006C2804BF9AF800006C2804D171218DF896
:1002000042100AF1010A12A806901AF801BBBBF1CC
:1002100025012CD01C3900F09481091F022940F2DD
:100220009081133900F0AB84093900F08A81891E6E
:1002300000F04085491E00F0ED84491E022940F27D
:100240008081091F00F0E684491F00F0EF80491EFD
:1002500000F09584491E00F0D780C91E0CD0891E7D
:1002600000F08D84C91E00F08A8400F02EBD0123A9
:100270000793252100F026BDD9F8000050F8044B63
:10028000C9F80000002C059440F0AB802B99487809
:10029000002800F0A1804FF0FF340FF6942000F00A
:1002A00095FE241A40F0398500F01BBD01236A46F3
:1002B00002A9304600F000FE002840F02E85641EA2
:1002C000F4D13096079C12AF74B1309E17F8011B21
:1002D0000498B0470028049000F01F850D98401C3A
:1002E000641E0D90F2D130960A9C3021002C8DF8BE
:1002F00000100CDD309E01236A4602A9304600F052
:10030000DBFD002840F00985641EF4D13096059F7E
:10031000089C74B1309E17F8011B0498B047002860
:10032000049000F0FA840D98401C641E0D90F2D1E8
:1003300030960B9C3021002C8DF800100CDD309E87
:1003400001236A4602A9304600F0B6FD002840F0BD
:10035000E484641EF4D1309605980899099C4718E6
:1003600074B1309E17F8011B0498B0470028049020
:1003700000F0D3840D98401C641E0D90F2D130968D
:100380000C9C3021002C8DF800100CDD309E0123D8
:100390006A4602A9304600F08FFD002840F0BD8477
:1003A000641EF4D130969DF8400041077FF584AE7D
:1003B0002020002D8DF800007FF77EAE309C0123B9
:1003C0006A4602A9204600F077FD002840F0A58487
:1003D0006D1EF4D130946FE60FF63C30059000F0BE
:1003E00080BC0E9D002D04D5204600F00FFE044673
:1003F00007E02A46204600F025FE002814BF041B13
:100400002C46089400F06DBCD9F8001051F8040B8C
:10041000C9F8001020F00004002121F0FF35CDE9DB
:10042000024512AB0593782100F040BC2B99487827
:1004300020B14FF0FF340FF6B02030E79DF84200B6
:10044000622860D0682817D06A283FD06C2806D070
:10045000712847D074282CD07A281DD062E0D9F8B2
:10046000001051F8040BC9F80010002866D14FF0B5
:10047000FF340FF68C2012E7D9F8001051F8040B66
:10048000C9F8001020B94FF0FF340FF6742006E7CA
:100490000D99018000F025BCD9F8001051F8040B2B
:1004A000C9F80010002849D14FF0FF340FF6502052
:1004B000F5E6D9F8001051F8040BC9F8001000282F
:1004C0003CD14FF0FF340FF63820E8E6D9F80010A1
:1004D00051F8040BC9F8001080B94FF0FF340FF643
:1004E0002020DCE6D9F8001051F8040BC9F8001000
:1004F00020B94FF0FF340FF60820D0E60D9AD3173D
:10050000C0E90023EDE3D9F8001051F8040BC9F855
:10051000001020B94FF0FF340FF6E410BFE60D993C
:100520000170DEE3D9F8001051F8040BC9F800108F
:1005300020B94FF0FF340FF6C810B0E60D990160F6
:10054000CFE39DF842004C2807BFD9F80010CA1D20
:10055000D9F80000C21D22F00702C9F80020D2E934
:1005600000010832C9F80020CDE90201C80F02D00D
:1005700007982D210AE0BDF84000810702D50798B1
:100580002B2103E0C00705D50798202112AA11549A
:10059000401C079012A807994BF0200300EB010CB8
:1005A000DDE90201CDE92C01612BCDF814C021ACAD
:1005B0000BD00E98002848BF062105D404BF4BF08D
:1005C0002000672801D101210E91DDE902014F00D1
:1005D00047EAD0777E15FF174FF0FF32974208BFEA
:1005E000964210D1090341EA10510003002908BFC7
:1005F000002808D0ABF1610503211A2D089118D30A
:100600000FF61C1110E0DDE902014A00521512F14B
:10061000010F11D108030FD1ABF1610503211A2D90
:1006200008911FD30FF600110322604600F036FD3B
:1006300057E30FF6E801F7E7DDE902016A4600F04B
:1006400081FDCDE902014BF02000612811D1059810
:1006500030210170821C0592BBF1610F0CBF782123
:10066000582102E00FF6BC01DEE741700798801CBC
:100670000790DDE9020120F0000231F0004308BFDD
:10068000002A02D10026002542E14BF02008B8F1F3
:10069000610F40F092800E98002847BF2121019100
:1006A000401C0190019FDDE92C017F1C00220023EA
:1006B000DDE9024500F07EFD38BF85F00045009978
:1006C0008DF88420091F002F00910DF1850632DD81
:1006D000204629460022002300F086FD2BD21C2252
:1006E00000F09CFD04460D4600F01AFEFF1F002F8F
:1006F000804609DD00F01BFE02460B4620462946D7
:1007000000F01CFE04460D46F01D0721B8F1000F55
:100710000CDD491E5EBF08F00F0200F8012D4FEA04
:100720002818F3D502E0002200F8012D491EFAD561
:10073000C61D002FCCDC0DF18500361A01980DF195
:1007400085048642D8BF304600282FD4B04206DA4E
:100750000DF185010A5C082AA8BF0F2100DA0021EB
:10076000024621AB134400E0401E13F80159521E0B
:100770008D42F9D00F2904D10DF185018B5C5B1CF2
:100780008B54002A04D50099091D21AC401C00910E
:10079000411E0BD4621813783033DDB23A2DA4BF5A
:1007A0005B443A3B491E02F80139F4D50E99002901
:1007B00040F1AC80421E0E92A8E00099DFF8E826D6
:1007C00047F29750414391FBF2F20092DDE92C454C
:1007D000C2F10702002A25F0004504DD2046294623
:1007E00000F03EFB0BE052420020DFF8C01600F0A4
:1007F00037FB02460B462046294600F0A8FD04467A
:100800000D46B8F1660F06BF009F0A3706270E98FF
:100810003F18142FC8BF142730208DF884000DF125
:100820008506002F34DD2046294600F099FD01465B
:100830000A4606F1080304200A26B2FBF6F606EB88
:10084000860EA2EB4E02303203F8012C0A22B6FBD0
:10085000F2F202EB820EA6EB4E063036401E03F893
:10086000026DE9D1083F002F03F10806D9DD0846E3
:1008700000F07DFD02460B462046294600F05EFD55
:100880000022DFF82C3600F079FD04460D46CAE759
:100890000DF18500361A0DF1850404E00098401E24
:1008A000761E0090641C20783028F7D0B8F1660FCF
:1008B00002D10098401C04E0B8F1650F0CBF012084
:1008C00000200E9940188642B8BF701E00281DD423
:1008D000B04204DA215C3429C8BF392100DC302160
:1008E0000246631E9D1800E0401E15F80169521E65
:1008F0008E42F9D0392902D1A15C491CA154002AA9
:1009000004D50099491C1C46401C00910646009DD8
:100910000E9F30B2002802DC01260FF210644BF06B
:100920002000662808BF6D1C15D067280FFA85F8CF
:1009300041D118F1040F44DBB84542DA9DF840007C
:100940006D1C010703D430B2B842D8BF074628B2A5
:100950003F1A48BF00270FFA85F8B8F1000F00F3DF
:10096000AF800898411C0891302205990A54002F45
:1009700003DC9DF84000010705D50898411C08914B
:100980002E2205990A5417EB080FB8BF7D422DB2ED
:100990006842ED1932B20B909542B8BF2E46059BC6
:1009A000089836B2099632462146184400F076FB84
:1009B000AD1B0C95CCE0BBF1610F15D14FF0700B66
:1009C00017E030B2B84204DA9DF840100A0758BF69
:1009D00007467F1E48BF0027BBF1670F14BF4FF0CB
:1009E000450B4FF0650B04E0BBF1410F08BF4FF022
:1009F000500B0898411C0891002F059914F8012B01
:100A00000A5403DC9DF84000010719D50898411CE1
:100A100008912E2205990A54002F11DD761E30B25E
:100A20008742B8BF3E460598089B32B2214618441B
:100A300000F034FB089836B23018BF1B08900B97B3
:100A4000059808990844B8F1000F80F800B003D465
:100A50002B224270821C04E02D2145464170821CED
:100A60006D4200212CAB28460AE004460A2094FB84
:100A7000F0F000EB8005A4EB450403F8014B491CA2
:100A800000B20028F1DC012906DC4BF020006528CB
:100A900004BF302002F8010B00292CAB08D1302014
:100AA00002F8010B06E0491E585C303002F8010BD9
:100AB0000029F8DC059908980844121A099247E0C1
:100AC00030B229B288421BDA0598089B32B221461F
:100AD000184400F0E3FA089936B271180891A8EBAF
:100AE0000600002F0B9003DC9DF84000020705D59F
:100AF000059A2E2050540999491C09910C9727E01A
:100B00000598089B2AB22146184400F0C7FA0898B5
:100B1000761B4044002F089003DC9DF840100A0724
:100B200004D5411C08912E2205990A5430B28742FF
:100B3000B8BF3E460598089B32B204EB0801184442
:100B400000F0ACFA089836B23018BE1B08900B962D
:100B50009DF8400000F01400102840F0C280079A71
:100B600008980B99821809988A1882180C980F997E
:100B70008018884280F2B580081A0A90B1E09DF88A
:100B80004200622808D068280ED06A2814D06C2849
:100B90001FD0712810D01CE0D9F8001051F8040BB8
:100BA000C9F80010C0B21AE0D9F8001051F8040BCF
:100BB000C9F8001080B212E0D9F80000C21D22F07E
:100BC0000702C9F80020D2E900010832C9F8002064
:100BD00006E0D9F8001051F8040BC9F80010002104
:100BE000CDE902019DF8400001075AD5DDE9022355
:100BF000002B08BF002A54D04BF02000782850D199
:100C0000079812A930220A54401C431C079301F88C
:100C100000B046E09DF84200622808D068280ED057
:100C20006A2814D06C281FD0712810D01CE0D9F885
:100C3000001051F8040BC9F8001040B21AE0D9F8BE
:100C4000001051F8040BC9F8001000B212E0D9F8F6
:100C50000000C21D22F00702C9F80020D2E90001FD
:100C60000832C9F8002006E0D9F8001051F8040B4A
:100C7000C9F80010C117CDE90201002902D5079873
:100C80002D210AE0BDF84000810702D507982B21ED
:100C900003E0C00705D50798202112AA1154401C73
:100CA000079012A8079901440591594602A800F03F
:100CB0004DF816E001200790D9F8000050F8041B09
:100CC000C9F800008DF848100BE001212522BBF186
:100CD000000F07918DF8482003D0022207928DF86B
:100CE00049B00F9D07990A986D1A08992D1A0B980B
:100CF0006D1A09992D1A0C986D1A9DF840102D1A2D
:100D000048073FF5DFAA2021002D8DF800107FF75E
:100D1000D9AA309E2C46FFF7C9BA4FF0FF3031B048
:100D2000BDE8F08FCBCCCC0C686A6C747A4C0000B8
:100D30007072696E74665F733A2062616420257315
:100D400020617267756D656E740000002DE9FC47C7
:100D500007468A463C6950466F2808BF082505D0DB
:100D6000FFF78EF9782814BF0A251025D7E900016E
:100D70003C2680468946BAF1640F18BFBAF1690F64
:100D800005D1002903D5D8F1000869EB4909B9F16B
:100D9000000F08BFB8F1000F0CD1386B50B9082D07
:100DA0003AD197F83800010736D530223B2684F82F
:100DB0003B2031E08DF800A0404649462A46EB171B
:100DC00000F0E6FA3032D0B2761E3A2801960EDAFA
:100DD000A255404649462A46EB1700F0D9FA80460C
:100DE0005FEA010908BFB8F1000F05D108E09DF8DE
:100DF00000001218513AEBE7F868A1198842DBD3DA
:100E0000082D09D197F83800010705D5A05D3028D5
:100E100002D0761E3020A055C6F13C03BB61A1195B
:100E2000F960386B834208DAC31A3B624FF6EF7001
:100E3000398F01403987BDE8F38700280ED597F830
:100E4000380000F01400102808D17A6B7969386AEC
:100E5000521A121AD21A002AC8BF3A62BDE8F387A2
:100E60002DE9D04306460F4614464FF00008DFF840
:100E7000449012E0E00707D542464B4630463946DB
:100E800000F07CFA06460F464046494642464B462D
:100E900000F074FA641080468946002CEAD130468E
:100EA0003946BDE8D0830000A08601000000F03F75
:100EB00084D7974100002440F8B505460E461746F2
:100EC0001C4600205CB117F8011BB068A847B06051
:100ED00030B1F06A401CF0620020641EF3D1F2BD14
:100EE0004FF0FF30F2BD00007072696E74665F7380
:100EF0003A20256E20646973616C6C6F77656400BD
:100F00007072696E74663A2062616420256E206199
:100F10007267756D656E7400000000006E616E0092
:100F20004E414E00696E6600494E46003000F0B4F6
:100F30000246106895681318506803EB5004C00708
:100F400048BF4D44A3422DD013F8016B16F00300A7
:100F500004BF13F8010BC01C31090F2907D113F886
:100F6000011B0F3103E013F8017B05F8017B401EE4
:100F7000F9D10029E6D013F8010BC6F38106032E40
:100F800008BF13F8016B00EB0620404228440026FE
:100F9000B71E8F421EBF10F8017B05F8017B761C3F
:100FA000F6D1CFE7F0BC02F10C007047C9B202786D
:100FB0008A421AB11CBF10F8012FF9E718BF0020B0
:100FC00070470268531C03601170704780B500B908
:100FD00006A005490B681BB122220021984701E0B9
:100FE00000F0EEFA222002BD4C790328636F6E7385
:100FF000747261696E742068616E646C65723A2007
:10100000626164206D6573736167650000F10103BF
:10101000810704D010F8011B820781B1FAD1026860
:10102000A2F10131914311F0803104BF50F8042F37
:10103000F6E709BAB1FA81F100EBD100401CC01A01
:1010400070470000C9B2830706D0521E22D310F8A1
:10105000013B9942F7D11FE0083A13D302F1040291
:1010600041EA012141EA014150F8043B121F21BF2E
:101070004B40A3F1013C2CEA030C1CF0803FF3D061
:10108000C9B2001F083210F8013B521E28BF91EA76
:10109000030FF8D818BF0120401E704762B38B07BA
:1010A00008D0521E11F8013B00F8013B00F02480EB
:1010B0008B07F6D1830740F0208000BF103A07D39A
:1010C00030B4B1E83810103AA0E83810F9D230BC8A
:1010D000530724BFB1E80810A0E8081044BF51F836
:1010E000043B40F8043BD20724BF31F8022B20F820
:1010F000022B44BF0B7803707047121F17D35B009D
:1011000009D151F8043B20F8023B1B0C121F20F8B8
:10111000023BF6D20BE051F8043B00F8013B1B0AFE
:1011200020F8023B1B0C121F00F8013BF3D238BF22
:10113000121D521E24BF11F8013B00F8013BF8D8E4
:101140007047000010B5144600F002F8226010BD90
:10115000C1F30A5343B14A0012F5001F28D2A3F28B
:10116000FE32A1EB0251704750EA410C20D001F051
:10117000004C31EA0C01B1FA81F204BFB0FA80F3FD
:10118000D2180B3AB2F120032CBF00FA03F19140C0
:1011900041EA0C013EBFC2F1200C20FA0CF31943C6
:1011A0009040524240F2FD33D21A01EB0351704796
:1011B0000022704741EA030C50EA4C0C52EA0C0C36
:1011C0004FF4001C09D307D01CEB410F9CBF1CEB54
:1011D000430F8B4208BF824270471CEB430FFBD882
:1011E000994208BF9042704741EA030C50EA4C0C08
:1011F00052EA0C0C4FF4001C09D307D01CEB410F32
:101200009CBF1CEB430F994208BF904270471CEBF8
:10121000410FFBD88B4208BF8242704700B541ECBA
:10122000100B104600F004F851EC100B00BD00BF8D
:10123000020030EE101B40F2FF7C37D41CEA115341
:1012400013D063456BD09B18634504D201EB025168
:1012500020EE101B704701F0004141EA0C510020C4
:1012600041EC100BAFF30080704710EE100B50EA0A
:10127000410054D0B2F57F7F08D202EB5C01090532
:10128000002041EC110B20EE010B70474FF0FE41A6
:10129000002341EC113B20EE010BB2F57E7230EEE3
:1012A000101B4FEA410342EB5353CDE752421CEA75
:1012B000115316D0634532D09A4204D2A1EB0251A9
:1012C00020EE101B70475B1ED21AA1EB035120EEDB
:1012D000101B372A0CD3002001F0004141EC100B09
:1012E000C0E710EE100B50EA410018D0372AF2D2B6
:1012F000C2EB5C021105002041EC110BF1EE100A6B
:1013000020F01F0121F4F851E1EE101A20EE010B3C
:10131000F1EE101AE1EE100A11F0080FA2D1704799
:1013200041EC100BBDEEC00B10EE100A704700EE42
:10133000100AB8EEC00B51EC100B704741EC100BCB
:1013400043EC112B30EE410B51EC100B704741EC8C
:10135000100B43EC112B80EE010B51EC100B70477E
:1013600041EC100BBCEEC00B10EE100A704700EE03
:10137000100AB8EE400B51EC100B704741EC100B0B
:1013800043EC112B20EE010B51EC100B70470000C9
:10139000BBBBE1B1B2F5803F80F07E80022A1ED94E
:1013A0008C46B1FBF2F102FB11C31B0443EA10436C
:1013B000B3FBF2FC02FB1C3380B240EA0343B3FBF5
:1013C000F2F002FB103240EA0C4000237047022A80
:1013D00005D98446B0FBF2F002FB10C270474AB157
:1013E00005D100F0010249085FEA30007047002291
:1013F0000023704700F0E8B80B0002000021002035
:101400007047904271EB030CF6D3B3F5803F2FD2B7
:10141000F0B5B3FA83F7B1FA81F4A7F10F0E3D1BD3
:101420005340CEF1200602FA0EF2F3415340B5F1DB
:101430000F0746D80F3C2C444140C4F12006A04081
:10144000F1414140B1FBF3F603FB1611A2FB064547
:10145000001BA94102D2761E8018594180EA010280
:1014600021FA0EF362FA0EF200215A403046F0BD26
:1014700030B4B1FBF3FC03FB1C11A2FB0C45001BB9
:10148000A94103D2ACF1010C8018594130BC02468D
:101490000B46604600217047B2F1807F65D3F0B5FE
:1014A000B2FA82F7B1FA81F4C7F10F063D1B22FAB6
:1014B00006F307F1110EF24120355A40B5F10F073E
:1014C000B8D94140C4F12006A040F1414140B1FBF0
:1014D000F3FC03FB1C11A2FB0C45001BA94103D22A
:1014E000BCF1010C801859410F2F12D30F3FC903D3
:1014F00041EA5041B1FBF3F603FB1611A2FB06458E
:10150000D4EBC030A94102D2761E8018594146EA78
:10151000CC3C07B34140C7F12006B840F1414140FF
:10152000B1FBF3F603FB1611A2FB0645001BA94114
:1015300002D2761E8018594180EA010221FA0EF388
:10154000C7F1200462FA0EF20CFA07F05A402CFAA6
:1015500004F13043F0BD80EA010221FA0EF30021CC
:1015600062FA0EF260465A40F0BD8C46B1FBF2F1D1
:1015700002FB11C31B0243EA1063B3FBF2FC02FB44
:101580001C331B024CEA002043EA1063B3FBF2FC5D
:1015900002FB1C331B024CEA002043EA1063B3FB3E
:1015A000F2FC02FB1C331B024CEA002043EA1063EE
:1015B000B3FBF2FC02FB1C324CEA00200023704714
:1015C000012000F003B800007047000080B5AFF3C1
:1015D0000080024A11001820ABBEFBE72600020083
:1015E000DFF8C4110868C0F34000002801D00220D1
:1015F00002E0086810F001007047DFF8B0010068F1
:1016000010F0010070470000C21E022A01D3012021
:1016100002E0C01E0860002070471CB5FF24694628
:10162000FFF7F2FFC0B2002802D02000C0B207E0EE
:10163000DFF8FC01009950F8210010F00100C0B261
:1016400016BD0000002801D0032801D3012002E0CC
:10165000401E0860002070471CB5FF246946FFF754
:10166000F1FFC0B2002802D02000C0B208E0DFF8CD
:10167000C401009909010844C06810F00100C0B21B
:1016800016BD0000DFF8BC010068800810F0010002
:10169000704738B504002000C0B2082811D3DFF825
:1016A00098511822DFF89411280000F00DFC00205A
:1016B000E87540F65B00DFF888110860002000F054
:1016C0003BFCDFF8CC112000C0B251F82000C0F381
:1016D0000020002805D0E4B251F8240010F00F00DB
:1016E00000E0FF2032BD38B504002000C0B2082859
:1016F00011D3DFF844511822DFF84011280000F020
:10170000E3FB0020E8754FF40960DFF8341108604E
:10171000002000F011FCDFF87801E4B250F824005A
:10172000C0F30110C0B232BDDFF868211368C3F303
:10173000072303601068C0F3C40008607047DFF837
:1017400058211368C3F3072303601068C0F3C40073
:101750000860704738B50400072C11D3DFF8D85063
:101760001822DFF8C411280000F0AEFB0020E87555
:101770004FF4CE70DFF8C8100860002000F0DCFBEA
:10178000DFF8A00150F8240010F00700010009B2B2
:10179000042907D1DFF8880150F8240010F01F0059
:1017A00050F4807000B232BD24152640401526400A
:1017B000DFF8B01209688A03920B0260090E11F07B
:1017C0000101C171DFF8A01209680A00D204D20C2D
:1017D00082800A00120C02F0FF020281090C01F063
:1017E000FF014181DFF84411096811F00F02027313
:1017F0000A00C2F3031242730A00120AD204D20C86
:10180000C281090F11F003010174DFF86413096844
:101810000A00120A12F0070282710A00120CD205A5
:10182000D20D4282890F11F001010175704700004D
:10183000401626400019264038780328DC69081035
:1018400014790328100027401CB50C006946FFF7E7
:10185000DBFE0100C9B2002901D0C0B217E0DFF8F9
:10186000B404009950F8210010F07F012160C0F30A
:1018700004216160C0F30441A1600100090F11F06F
:1018800003016173C00E10F001002073002016BD2B
:101890004012264008002040080420401CB50C00DF
:1018A0006946FFF7CFFE0100C9B2002901D0C0B2DE
:1018B00035E0DFF8101500980001085800F0FF022D
:1018C0002260C0F304226260C0F30442A260000FF1
:1018D00010F00300207300980001084442681000D3
:1018E000C00F6073C2F30270002801D0012000E035
:1018F0000020A07322F07F4222610098000108447A
:1019000080680100C90F21750100090E11F0010165
:101910006175A075000C10F00700E075002016BD81
:1019200000012640001226405C6A08103815264047
:1019300080B50100DFF868051822FFF7BFFB012022
:10194000DFF860150870002002BDDFF85C1509683B
:10195000C90F002908D0DFF84C150978002907D1F4
:101960000021016003207047002101600320FAE795
:10197000DFF82C15096801600020F4E710B50400B9
:10198000FFF72EFE002803D10020206003200DE089
:10199000DFF810050078002805D0DFF8040580681E
:1019A0002060002002E000202060032010BD000025
:1019B000DFF8F0140978002905D0DFF8E41449684D
:1019C0000160002002E00021016003207047DFF881
:1019D000DC140968C90F002908D0DFF8C814097899
:1019E000002907D100210160032070470021016018
:1019F0000320FAE7DFF8A814C96801600020F4E7C3
:101A0000DFF8AC140968C90F002908D0DFF8941476
:101A10000978002907D100210160032070470021C7
:101A200001600320FAE7DFF87814096901600020FB
:101A3000F4E710B50400FFF725FE002803D10020CD
:101A4000206003200DE0DFF85C040078002805D05A
:101A5000DFF84C0440692060002002E00020206094
:101A6000032010BD301526403415264010B50C005B
:101A7000C0B2FFF76FFE00280ED0012810D0022858
:101A800012D0B0F5887F13D040F21111884213D0E4
:101A9000B0F58A7F14D017E02000FFF756FF16E05C
:101AA0002000FFF785FF12E02000FFF767FF0EE040
:101AB0002000FFF78CFF0AE02000FFF7BAFF06E0E6
:101AC0002000FFF79DFF02E000202060032010BDF2
:101AD00080B501000020FFF7C9FF02BD80B50322D9
:101AE000D2B2824203D200200860012003E0401CF1
:101AF000C0B2FFF7BBFF02BD18B587B0040068464F
:101B0000FFF7E6FF0100C9B2002903D000212160E0
:101B1000C0B22BE001A8FFF74BFE9DF8140002288D
:101B200003D100982060002020E0DFF888030068DF
:101B3000C00F002808D0FFF760FDC0B2002807D111
:101B400000202060032011E00098206000200DE0BC
:101B5000009901984143BDF80800B1FBF0F09DF8F1
:101B60000B10491CB0FBF1F02060002008B010BD44
:101B70003C152640F0B58BB005000C0069462800E6
:101B8000C0B2FFF7ABFF0100C9B2002903D00021AA
:101B90002160C0B2BCE02800C0B202284CD307A923
:101BA0002800C0B2401CFFF74FFEC0B2002811D081
:101BB000DFF804631822DFF80413300000F084F922
:101BC0000020F07540F66310DFF8F4120860002082
:101BD00000F0B2F94F482900C9B200EB810050F87B
:101BE000080CC00F002807D09DF82900022807D153
:101BF0000098206000208BE000982060002087E0A3
:101C0000EDB26D1C2800FFF708FD0100C9B20029E4
:101C100002D0C0B2FF2803D100202060032077E06B
:101C20000099079841430898B1FBF0F00999B0FB7F
:101C3000F1F0206000206BE001A92800C0B2401C38
:101C4000FFF72CFEC0B2002811D0DFF86C6218221A
:101C5000DFF86812300000F037F90020F07540F628
:101C60007F10DFF85C120860002000F065F955482D
:101C70002900C9B209014058C00F002807D09DF8BB
:101C80001000022807D100982060002040E0009852
:101C9000206000203CE0EDB26D1C2800FFF7DCFC6A
:101CA0000100C9B2002902D0C0B2FF2803D1002030
:101CB000206003202CE09DF8110001281DD1009A1E
:101CC0000023019E00273F0647EA1627360605989F
:101CD000002136184F41A6FB020106FB031107FB4A
:101CE0000211029A039BA3FB0223FFF751FB000E94
:101CF00040EA0120090E206009E000990198414363
:101D00000298B1FBF0F00399B0FBF1F020600020E5
:101D10000BB0F0BD0016264010B50323421E040090
:101D2000E4B2002C03D10800FFF7E6FE0CE014003B
:101D3000DBB2E4B2A34204D31000C0B2FFF71AFF33
:101D400002E0C0B2FFF792FE10BD38B505000C00EE
:101D50002800C0B2FFF79DFC0100C9B2FF2904D1E1
:101D60002000FFF7F2FDC0B21BE06946C0B2FFF7EA
:101D7000D3FF0100C9B2002903D000212160C0B205
:101D80000FE02800C0B2FFF7AEFCC0B2002805D0BB
:101D900002280BD006D303280CD00FE00098206057
:101DA000002032BD009840082060F9E700988008C4
:101DB0002060F5E70098C0082060F1E7002020606F
:101DC0000320EEE7001926401FB5040002A90120F8
:101DD000FFF7BBFF0100C9B2002903D00021216039
:101DE000C0B21AE0694601A8FFF79EFC01980021E5
:101DF000421C71F1FF335B0143EAD2635201009848
:101E0000002112184B4102980021490141EAD0619A
:101E10004001FFF7BDFA2060002004B010BD1FB5DF
:101E2000040002A90120FFF790FF0100C9B20029B8
:101E300003D000212160C0B21AE0694601A8FFF773
:101E40007EFC01980021421C71F1FF335B0143EAE3
:101E5000D26352010098002112184B4102980021D0
:101E6000490141EAD0614001FFF792FA2060002069
:101E700004B010BD80B5DFF84C100A68C2F303222D
:101E80000E2A07D00968C1F303210D2905D1FFF7F8
:101E9000C6FF02BDFFF798FFFBE70120F9E700004E
:101EA0002078032850790328181526400815264065
:101EB0000C15264030152640387803285C6A081037
:101EC000147903280000204001B58B071AD183073D
:101ED00024D1121F21D351F8043BA3F1013C2CEA79
:101EE000030C1CF0803C04BF40F8043BF1E79CFA73
:101EF0008CFCBCFA8CF1C1F118018B40CB4040F84E
:101F0000043B13E0042A09D311F8013B521E00F8E8
:101F1000013B5BB18B07F7D1D9E7121D5AB111F81C
:101F2000013B521E00F8013B03B1F8D111001CBF68
:101F3000002200F059F801BD01BEFEE780B5234A3A
:101F400023490B6893423ED00A60224A12684A62D3
:101F5000214A8A6202684A6042688A608268CA606E
:101F6000C2680A6102694A6142698A618269CA611A
:101F7000C2690A62F1EE102A12F0900F23D0174ABC
:101F80008A62026ACA62426A0A63826A4A63C26AEF
:101F90008A63026BCA63426B0A64826B4A64C26BD7
:101FA0008A64026CCA64426C0A65826C4A65C26CBF
:101FB0008A65026DCA65426D0A66826D4A66C26DA7
:101FC0008A66006EC86600F03EF801BDFAF9F8F7BF
:101FD0002477032828ED00E0A4A3A2A1ABAAA9A816
:101FE00062F30F2262F31F42401810F0030308D07F
:101FF000C91A1FD3DB0748BF00F8012D28BF20F8FE
:10200000022D130030B414461546103928BF20E9BC
:102010003C00FAD8490728BF20E90C0048BF40F827
:10202000042D890028BF20F8022D48BF00F8012D9B
:1020300030BC7047C91818BF00F8012DCB0728BF66
:1020400000F8012D7047FEE770B504000D00DFF8C1
:1020500034682A0092B2120AD2B22100C9B230000A
:1020600000F080FE2A00D2B2F021300000F07AFEAB
:1020700070BD2DE9F04704000D00012600275FF038
:1020800000085FF00A09484640B2002836D04846AA
:1020900040B2052190FBF1F201FB1200002810D1A3
:1020A000DFF8E0A72A0092B2120AD2B22100C9B228
:1020B000504600F057FE2A00D2B2F021504600F000
:1020C00051FEDFF8C0A72100C9B2504600F072FEF1
:1020D0000700F021504600F06DFE8046280080B2D7
:1020E0003900C9B24246D2B252EA0122904202D12C
:1020F0000020060002E0B9F10109C4E7300040B257
:10210000BDE8F08770B50400DFF878672100C9B238
:10211000300000F04FFE0500F021300000F04AFED4
:10212000EDB2C0B250EA052080B270BDF8B504002F
:10213000002500260127DFF84C075C210172E168C9
:10214000C16021680160616841600020FFF7DAFF2B
:102150000600300041F2243180B288420BD03000BA
:1021600041F2113180B2884205D0300041F2133182
:1021700080B2884202D10020070004E06D1C2800D4
:10218000C0B21528E1DB3800C0B2F2BD2DE9F14F35
:102190008AB05FF0000A00240020ADF8200000257E
:1021A0000020ADF806000020ADF81E000020ADF8BC
:1021B0001C0000265FF0000800270A98C088ADF8D0
:1021C00008000A984089ADF80A000A98C089ADF85D
:1021D0000C000A98408AADF80E000A98C08AADF843
:1021E00010000A98408BADF812000A98C08BADF829
:1021F00014000A98408CADF816000A98C08CADF80F
:102200001A004BF6EF61FE20FFF71EFF03210C20A2
:10221000FFF71AFF0020FFF775FF070041F224398E
:102220003800494680B288420BD0380041F2113163
:1022300080B2884205D0380041F2133180B2884222
:1022400000D109E018F101084046C0B2142802DBB1
:102250000120060000E0DDE73000C0B2002840F0B9
:102260000C83BDF81000792807DABDF81000800053
:10227000ADF806005AF0020A15E0BDF81000F1288A
:1022800007DABDF810004000ADF806005AF0010A68
:1022900009E0BDF8100040F2E111884203DABDF810
:1022A0001000ADF80600BDF80E00BD2806DABDF836
:1022B0000E00800005005AF0080A15E0BDF80E0077
:1022C00040F27911884206DABDF80E0040000500A0
:1022D0005AF0040A08E0BDF80E0040F2F1218842ED
:1022E00002DABDF80E000500DFF89CB540F24E3171
:1022F000280080B2091ACBF800103800494680B295
:1023000088427AD148F288310720FFF7B2FE80195F
:102310000600DFF87815BDF81020921C2B009BB248
:10232000DBF80000C3185A43121D91FBF2F00400C1
:10233000200080B240F2F511884202DB4FF4FA70BF
:1023400004002000BDF80C1080B2884201D2ADF824
:102350000C40DFF83C15DFF83405BDF80C2090FB8D
:10236000F2F2121F2B009BB2DBF80000C31892FBA5
:10237000F3F2BDF81000121A0A6047F621600A68ED
:10238000824202DA0A68022A0EDA0A68022A02DAAD
:102390000220086008E00A68824203DB47F62060FA
:1023A000086001E008680860DFF8E004BDF80C2070
:1023B00090FBF2F2121F0968BDF81000411892FB61
:1023C000F1F1280080B2091ACBF80010DBF8000008
:1023D0003D2803DA3D20CBF8000081E0DBF8000067
:1023E000B0F5806F04DB40F2FF30CBF8000077E0FF
:1023F000DBF80000CBF8000072E0DFF89014BDF8C5
:102400001020121D2B009BB2DBF80000C3185A43AA
:10241000121D91FBF2F00400200080B240F2F51191
:10242000884202DB4FF4FA7004002000BDF80C1063
:1024300080B2884201D2ADF80C40DFF85414DFF8C6
:102440004C04BDF80C2090FBF2F2121F2B009BB243
:10245000DBF80000C31892FBF3F2BDF81000121A6B
:102460000A6040F6B9300A68824202DA0A68042A31
:102470000EDA0A68042A02DA0420086008E00A6812
:10248000824203DB40F6B830086001E0086808606B
:10249000DFF8F803BDF80C2090FBF2F2121F096878
:1024A000BDF81000411892FBF1F1280080B2091A22
:1024B000CBF80010DBF800002B2803DA2B20CBF838
:1024C00000000DE0DBF80000B0F5806F04DB40F2A7
:1024D000FF30CBF8000003E0DBF80000CBF8000091
:1024E000DFF8AC030168BDF810004118891EBDF883
:1024F0000A00814208DADFF898030168BDF810008D
:102500004118881EADF80A00280080B2D0F53C7052
:10251000022190FBF1F0BDF91210020012B2D1427B
:1025200003DA010009B2494209E00100BDF91220B5
:1025300009B2914201DA010001E0BDF91210ADF8D3
:102540001210401CBDF91210411AADF81E10BDF852
:102550000610D1F5F071022291FBF2F1BDF91420C1
:102560000B001BB2DA4203DA080000B2404209E075
:102570000800BDF9142000B2904201DA080001E021
:10258000BDF91400ADF81400091DADF82010BDF917
:102590002010BDF914004118ADF81C1001211B20BA
:1025A000FFF767FD80198DF804009DF80400009086
:1025B000BDF81E100120FFF75CFD009940188DF852
:1025C00004009DF804000090BDF81C100220FFF7E5
:1025D00050FD009940188DF804009DF8040000900B
:1025E000BDF806100320FFF744FD009940188DF850
:1025F00004009DF804000090290089B20420FFF730
:1026000038FD009940188DF804009DF804000090F2
:10261000DBF80000010089B20520FFF72AFD0099D0
:1026200040188DF804009DF804B099480068010036
:1026300089B20620FFF71DFD10EB0B0B8DF804B0DF
:102640009DF804B04FF4B2710A20FFF712FD10EBB1
:102650000B0B8DF804B09DF804B040F2BB110820BC
:10266000FFF707FD10EB0B0B8DF804B09DF804B0DD
:1026700040F2D9110920FFF7FCFC10EB0B0BBDF861
:102680000800002807D1BDF80A100B20FFF7F1FC65
:1026900010EB0B0083465AF44C7189B20D20FFF702
:1026A000E8FC10EB0B008DF804009DF80460272176
:1026B0003120FFF7DEFC86198DF804609DF8046078
:1026C0001A213220FFF7D5FC86198DF804609DF899
:1026D000046005213320FFF7CCFC8619BDF81610E5
:1026E0003520FFF7C6FC80198DF80400380080B251
:1026F000484529D1504680B2042801DB012100E081
:1027000000219DF80460C9B2090189B27220FFF767
:10271000B0FC86198DF804609DF8049040F2011118
:102720000F20FFF7A6FC10EB090981214720FFF7D6
:10273000A0FC83461BEB090BEC214820FFF799FC1A
:10274000060016EB0B0615E09DF8049011210F20F2
:10275000FFF78FFC10EB090981214720FFF789FC67
:1027600083461BEB090BE7214820FFF782FC06009C
:1027700016EB0B064FF462710720FFF77AFC801905
:102780008DF804009DF804B040F203311C20FFF7DF
:1027900070FC10EB0B0B03212C20FFF76AFC814629
:1027A00019EB0B09BDF80800002807D10021AF2064
:1027B000FFF75FFC060016EB09064DE0BDF80810B8
:1027C000A520FFF756FC060016EB09060221A620FD
:1027D000FFF74FFC83461BEB060B0221A820FFF7F7
:1027E00048FC10EB0B008DF80400BDF80E10BDF88E
:1027F00010004143042091FBF0F0B0F5803F08DA6F
:10280000BDF80E10BDF810004143042091FBF0F11B
:1028100001E04FF6FF719DF8046089B2B020FFF728
:1028200028FC86198DF804609DF804901421AE20D0
:10283000FFF71FFC10EB090940F20111AF20FFF771
:1028400018FC83461BEB090BBDF80A10AD20FFF7FF
:1028500010FC060016EB0B06BDF808000D490860D9
:10286000BDF80A000C490860BDF810000B4908606B
:102870004DF6AD61FE20FFF7E7FB3000C0B20BB0B4
:10288000BDE8F08FF47803283C790328C0FC9B0155
:1028900038790328407903284479032848790328A4
:1028A0001CB50400002C01D0012000E000204122D2
:1028B000DFF8A414C0B200F091FCDFF8A0040121FD
:1028C0002278D21010EBC212237813F0070311FA0A
:1028D00003F313602279D21010EBC210227912F0A8
:1028E000070211FA02F20260E06800900098421EAE
:1028F00000920028FAD1DFF868242079C01012EB8A
:10290000C010237913F0070311FA03F30360E068A2
:1029100000900098431E00930028FAD12078C01040
:1029200012EBC012207810F0070081401160E068BF
:1029300000900098411E00910028FAD113BD1CB5EB
:102940000400002C01D0012000E000205522DFF817
:102950000814C0B200F042FCDFF80404012122791F
:10296000D21010EBC212237913F0070311FA03F30C
:1029700013602278D21010EBC210227812F00702F6
:1029800011FA02F20260E06800900098421E009284
:102990000028FAD1DFF8C4232078C01012EBC01051
:1029A000237813F0070311FA03F30360E068009043
:1029B0000098431E00930028FAD12079C01012EB32
:1029C000C012207910F0070081401160E06800908B
:1029D0000098411E00910028FAD113BD38B50400BB
:1029E0000D00002C01D0012000E000206A22DFF859
:1029F0006813C0B200F0F2FBDFF864130122207804
:102A0000C01011EBC010237813F0070312FA03F380
:102A10000360EDB2002D0CD02079C010DFF83C33FC
:102A200013EBC013207910F0070012FA00F01860C1
:102A300009E02079C01011EBC010237913F00703CF
:102A400012FA03F30360E06800900098431E0093BD
:102A50000028FAD1DFF804332078C01013EBC0103F
:102A6000257815F0070512FA05F50560E068009075
:102A70000098451E00950028FAD12078C01011EB6F
:102A8000C011207810F0070012FA00F008602079D9
:102A9000C01013EBC013207910F0070082401A60B9
:102AA00031BD2DE9FC410400002C01D0012000E0E3
:102AB00000208622DFF8A012C0B200F08FFB0025B4
:102AC000DFF8EC6201272078C01016EBC0102178E7
:102AD00011F0070117FA01F10160DFF88082207917
:102AE000C01018EBC010217911F0070117FA01F19D
:102AF0000160002200216068C0B200F054FCE06870
:102B000000900098411E00910028FAD12078C01052
:102B100018EBC018207810F0070017FA00F0C8F87A
:102B20000000E06800900098411E00910028FAD152
:102B30006068C0B200F016FC002800D001252078A3
:102B4000C01016EBC016207810F0070087403760E1
:102B5000032201216068C0B200F025FCE06800900B
:102B60000098411E00910028FAD12800C0B2BDE8AB
:102B7000F6817CB504000D00002C01D0012000E09E
:102B80000020A822DFF8D011C0B200F027FB80217E
:102B90000800C0B200284ED02800C0B208420CD0B5
:102BA0000120227912F0070290402279D210DFF83A
:102BB000AC3113EBC21318600BE00120227912F044
:102BC000070290402279D210DFF8E43113EBC213F0
:102BD0001860C9B24908E068400800900098421E99
:102BE00000920028FAD10122207810F0070012FA92
:102BF00000F02378DB10DFF8646116EBC316306059
:102C0000E06800900098431E00930028FAD12078D5
:102C100010F0070082402078C010DFF8943113EBE9
:102C2000C0131A60E068400800900098421E0092AD
:102C30000028FAD1ACE72000FFF733FF012801D1CB
:102C4000002000E00120C0B276BD2DE9FC47040061
:102C50000D00002C01D0012000E00020C222DFF88E
:102C6000F810C0B200F0BAFA00260827DFF8F080AA
:102C70005FF001092078C01018EBC010217811F026
:102C8000070119FA01F10160E06800900098411E07
:102C900000910028FAD1DFF8C4A02079C0101AEB07
:102CA000C010217911F0070119FA01F10160002229
:102CB00000216068C0B200F076FB27E02078C010E9
:102CC00018EBC010217811F0070119FA01F1016029
:102CD000E06800900098411E00910028FAD1207809
:102CE000C0101AEBC010217811F0070119FA01F198
:102CF0000160E06800900098411E00910028FAD120
:102D00006068C0B200F02EFB50EA46063800471E4D
:102D1000C0B20028D2D12078C01018EBC01820789B
:102D200010F0070019FA00F9C8F8009003220121F9
:102D30006068C0B200F037FBE06800900098411E68
:102D400000910028FAD12900C9B22000FFF746FE01
:102D50003000C0B2BDE8F6870C6E081008003140A4
:102D60000400314070B504000D001600002C01D0A5
:102D7000012000E0002040F28D224749C0B200F05F
:102D80002DFA2000FFF78CFD217A4900C9B22000FE
:102D9000FFF7EFFE2900C9B22000FFF7EAFE31007D
:102DA000C9B22000FFF7E5FE2000FFF7C8FD70BDA7
:102DB0000400314038B504000D00002C01D0012082
:102DC00000E0002040F29F223349C0B200F006FA32
:102DD00000202000FFF764FD217A4900C9B22000DD
:102DE000FFF7C7FE2900C9B22000FFF7C2FE20008E
:102DF000FFF7A5FD2000FFF753FD217A490051F0B0
:102E00000101C9B22000FFF7B4FE01212000FFF745
:102E10001CFF05002000FFF792FD2800C0B232BD64
:102E20002DE9F843040088461700002C01D001204A
:102E300000E00020089D1E00DFF85C9040F2BA22FE
:102E40004946C0B200F0CAF930002900C0B2C9B288
:102E5000884201D0012000E0002040F2BB22494618
:102E6000C0B200F0BBF93000C0B220602800C0B290
:102E7000606084F80880E7600323012201213000AC
:102E8000C0B200F0B7FA0323012201212800C0B22A
:102E900000F0B0FABDE8F1830C6E081082B000209B
:102EA0000190002000900020019009E00098401C53
:102EB00000900098B0F5005FF8D30198401C019095
:102EC0000198B0F5805F02D200200090F1E702B0D7
:102ED000704780B50100002000F0C6FC01BD2DE95F
:102EE000F043ADF5137D0700884616001C00002056
:102EF000ADF802000020ADF8000000200290002094
:102F0000ADF804000020ADF806004046FEF77EF85C
:102F10000290DFF890532888002801D02869804764
:102F2000DFF884030078002800F033812888002827
:102F300000F01181BDF90600411CADF806103A0001
:102F4000010089B20020EB68984747464046FEF7EB
:102F50005DF802906888A97990FBF1F0ADF8040063
:102F60003800471C00780028FAD10020ADF8000096
:102F70000EE07F1E38782F2802D038785C2804D1E4
:102F8000BDF80000401CADF800000298401E029001
:102F9000BDF80000022802DA02980028E9D502985C
:102FA000002806D47A1CDFF8041353A800F07CFE36
:102FB0000EE0BDF80000002805D13A00BC4953A836
:102FC00000F072FE04E03A00B84953A800F06CFE2D
:102FD0000020ADF8020042E0BDF80010BDF800206E
:102FE000BDF8023053AF9BB2BDF90400434313FA5E
:102FF00082F0385C43AA89B25054BDF80000401CEE
:10300000ADF80000BDF8000080B2BDF904108842A0
:103010000EDA53A8FDF7FAFFBDF80020BDF8023024
:103020009BB2BDF904104B4313FA82F18842D3D20C
:10303000002043A9BDF800208854BDF90600411CBA
:10304000ADF8061043AAE97911FB00F189B200201E
:10305000EB689847BDF80200401CADF80200BDF8CF
:10306000027053A8FDF7D2FFBDF90410B0FBF1F0D8
:10307000401CBFB2874203D20020ADF80000C1E778
:1030800032008C4953A800F00FFEBDF90600411C28
:10309000ADF8061053AAE97911FB00F189B20020BE
:1030A000EB689847002C74D00020ADF8020041E096
:1030B000BDF80010BDF80020BDF802309BB2BDF98C
:1030C0000400434313FA82F0205C43AA89B25054AF
:1030D000BDF80000401CADF80000BDF8000080B253
:1030E000BDF9041088420EDA2000FDF78FFFBDF80D
:1030F0000020BDF802309BB2BDF904104B4313FA17
:1031000082F18842D4D2002043A9BDF8002088541F
:10311000BDF90600411CADF8061043AAE97911FB80
:1031200000F189B20020EB689847BDF80200401C0E
:10313000ADF80200BDF802602000FDF767FFBDF9A1
:103140000410B0FBF1F0401CB6B2864221D2002040
:10315000ADF80000C1E74FF4807100220DF10C09B9
:103160004846FEF73DFF3800A9688847002C07D085
:10317000009433004246504903A800F095FD05E055
:10318000330042464D4903A800F08EFD03A8A9680C
:1031900088470DF5137DBDE8F08380B50A00010076
:1031A000002000F052FB002002BD02B50100002308
:1031B0006A46434800F0CDFE009802BD10B53A487B
:1031C0000078002809D03F4C2100002000F05AFB75
:1031D000012221003A4800F0ECFD10BD38B50C008A
:1031E0001500C0B2002803D137480078002800D16C
:1031F00031BD36490878002800D0FEE70878401C29
:10320000087001F0C3F800232A0021003048FFF7BE
:1032100066FEFFF743FEF6E7002101804FF6FF71DF
:1032200041808180FF218171C17100218160002175
:10323000C1600021016170471A4902880A804288F2
:103240004A8082888A8082798A71C279CA7182684A
:103250008A60C268CA60006908610120124908706A
:10326000704700B585B06846FFF7D6FF1948029051
:103270006846FFF7E1FF05B000BD80B5FFF7F1FF3D
:10328000002300225FF4E131002000F021FC402304
:10329000114A00210A4801F00FF80121002000F036
:1032A00098FB01BDE078032851790328607108106C
:1032B000307108106C7108109470081018710810A3
:1032C00050780328527903287EBF022853790328B7
:1032D00040710810D32E0810E07703280069C84019
:1032E00010F001007047012212FA01F1816070476D
:1032F000012212FA01F141607047012212FA01F134
:10330000C160704710B48900436C0F248C40A34304
:1033100012F00F0212FA01F11943416410BC704718
:1033200080B5C9B200290ED00100C9B2082291FBB4
:10333000F2F302FB1311514AC0B2C010C001104495
:10334000FFF7D1FF0DE00100C9B2082291FBF2F3B3
:1033500002FB1311494AC0B2C010C0011044FFF76C
:10336000C7FF01BD80B50100C9B2082291FBF2F38D
:1033700002FB1311414AC0B2C010C0011044FFF754
:10338000ADFFC0B202BD80B50100C9B2082291FBF9
:10339000F2F302FB1311394AC0B2C010C00110444D
:1033A000FFF7ABFF01BD10B5C9B200290BD1D2B2F6
:1033B000002A02D0022A02D003E00F220BE00B22E7
:1033C00009E00A2207E0D2B2042A01D10C2200E06F
:1033D0000E2212F007020100C9B2082391FBF3F498
:1033E00003FB1411254BC0B2C010C0011844FFF7F5
:1033F00089FF10BD2DE9F8418DB004000E001500C5
:103400001F0034210022E8464046FEF7E9FDF6B2EF
:10341000002E0ED1FFB2002F02D0022F03D005E004
:103420000F2001900DE0082001900AE00820019093
:1034300007E0FFB2042F02D10F20019001E00E201F
:1034400001902000C0B2C0280FD02100C9B20820CE
:103450006A4691FBF0F300FB131108482300DBB22E
:10346000DB10DB01184401F044F82900C9B2200048
:10347000C0B2FFF755FF0EB0BDE8F081000031404B
:10348000022801D3012010E00B00DBB2042B01DB8A
:1034900001200AE0DFF8CC3703EB8000C9B2405CC2
:1034A000824201D3012000E000207047F8B50400FB
:1034B0000F0015001E00022C01D301202AE02A0073
:1034C0003900C9B22000FFF7DBFF012801D101203C
:1034D00020E006983900C9B202291ED1B6F5803F16
:1034E00019D2202817D24FF4C052DFF87C1763039B
:1034F0000B4403EB850313441F6866F317271F6013
:103500006403214401EB850111440A6860F3C7029A
:103510000A600020F2BD0120FCE7FFB2032F1FD19B
:10352000B6F1807F1AD2202818D24FF4E052DFF88B
:10353000381763030B4403EB850313441F6807F03C
:10354000FF0757EA06271F606403214401EB85014A
:1035500011440A6860F3C7020A60DAE70120D9E77C
:103560000120D7E700B20012C0B27047F8B50500DD
:103570000E001700280000B2FFF7F4FF040020003F
:10358000C0B2022801D3012024E03A003100C9B2C0
:103590002000C0B2FFF774FF012801D1012019E01B
:1035A000DFF8C4162000C0B2400308442A00D2B29B
:1035B00000EB8200D0F8000CF6B266F3092067F346
:1035C0000700E4B264032144EDB201EB8501C1F8C8
:1035D000000C0020F2BD70B504000D001600022C96
:1035E00001D301201DE032002900C9B22000FFF7FD
:1035F00047FF012801D1012013E0DFF86C166003BA
:10360000085850F0004050F0407050F47F00EDB288
:1036100065F3092066F307006203885064030859C4
:10362000002070BDD0F840037047D0F80803C005F3
:10363000C00D7047C0F840127047D0F80802C005AE
:10364000C00D7047D0F80802C0F3C030704738B5DD
:1036500005002800FFF7F1FF04002800FFF7F2FF44
:103660000419002C01D1012000E00020C0B232BDBD
:10367000C0F8C81F7047D0F8C80F7047C0F8881F3F
:103680007047D0F8880F7047016851F00041016021
:10369000704738B504001500C9B2002906D00229C8
:1036A0001ED010D3042935D027D340E0DFF8BC0565
:1036B000A06001202073112060734FF48C70E081B2
:1036C0001220208239E0DFF8A805A06001202073D5
:1036D0001120607340F21D10E0816B2020822CE0ED
:1036E000DFF89005A06001202073112060734FF473
:1036F0008E70E0816A2020821FE0DFF87C05A060E8
:10370000022020731120607340F21B10E0816920B9
:10371000208212E0DFF86405A060012020731320EE
:1037200060734FF48D70E0816820208205E07C2278
:10373000DFF84C150020FFF751FDEDB2002D06D04B
:10374000022D1ED010D3042D35D027D340E0DFF852
:103750001C05206000202071112060714FF48C70D6
:10376000E0811220208239E0DFF80405206000208B
:1037700020711120607140F21D10E0816B202082C9
:103780002CE0DFF8F004206000202071112060712F
:103790004FF48E70E0816A2020821FE0DFF8D804A9
:1037A0002060012020711120607140F21B10E08127
:1037B0006920208212E0DFF8C4042060002020711C
:1037C000132060714FF48D70E0816820208205E045
:1037D000A822DFF8AC140020FFF700FD31BD10B5C2
:1037E000C0B2002806D002280AD006D304280DD083
:1037F00009D30EE0DFF88C4411E0DFF88C440EE0D2
:10380000DFF888440BE0DFF8884408E0DFF8844400
:1038100005E0BD22DFF868140020FFF7DFFC200080
:1038200010BD38B50400DFF87054C9B22000C0B232
:1038300055F82000FFF7FEFE2000C0B255F820002A
:10384000FFF705FF0028F7D031BD70B505000E0069
:10385000140006E031782800C0B2FFF7E2FF641ED2
:10386000761C002CF6D170BD38B504000D0005E0C3
:1038700029782000C0B2FFF7D4FF6D1C28780028FB
:10388000F6D131BD70B504000D000020DFF80864EA
:103890002000C0B256F82000FFF7C7FE002807D06E
:1038A000E4B256F82400FFF7BDFE2870012000E0C6
:1038B0000020C0B270BD70B505000C00DFF8D86301
:1038C0002800C0B256F82000FFF7DBFE4008400099
:1038D00001002800C0B256F82000FFF7CFFE2800F4
:1038E000C0B256F82000FFF7CCFE30F00200010015
:1038F0002800C0B256F82000FFF7C0FE2800C0B272
:1039000056F82000FFF7BDFE30F02000010028002F
:10391000C0B256F82000FFF7B1FE2800C0B256F83A
:103920002000FFF7AEFE30F0400001002800C0B2DA
:1039300056F82000FFF7A2FE2800C0B256F820007B
:10394000FFF79FFE30F0100001002800C0B256F8CB
:103950002000FFF793FE2800C0B256F82000FFF7C2
:1039600090FE30F4807001002800C0B256F82000AC
:10397000FFF784FE2800C0B256F82000FFF781FE52
:1039800030F4806001002800C0B256F82000FFF734
:1039900075FE002C0ED02800C0B256F82000FFF7AC
:1039A0006AFE50F400700100EDB256F82500FFF7F2
:1039B00065FE0DE02800C0B256F82000FFF75BFE60
:1039C00030F400700100EDB256F82500FFF756FE06
:1039D00070BD70B505000C00DFF8BC622800C0B2F5
:1039E00056F82000FFF747FE40084000010028007D
:1039F000C0B256F82000FFF73BFE2800C0B256F8D0
:103A00002000FFF738FE30F0080001002800C0B2A7
:103A100056F82000FFF72CFE2800C0B256F8200010
:103A2000FFF729FE30F0200001002800C0B256F850
:103A30002000FFF71DFE2800C0B256F82000FFF757
:103A40001AFE30F4807001002800C0B256F8200041
:103A5000FFF70EFE2800C0B256F82000FFF70BFE5D
:103A600030F4007001002800C0B256F82000FFF7C3
:103A7000FFFD2800C0B256F82000FFF7FCFD30F42F
:103A8000006001002800C0B256F82000FFF7F0FDEA
:103A9000002C0ED02800C0B256F82000FFF7EBFD36
:103AA00050F004000100EDB256F82500FFF7E0FDEC
:103AB0000DE02800C0B256F82000FFF7DCFD30F022
:103AC00004000100EDB256F82500FFF7D1FD70BDEE
:103AD0002DE9F841A7B005000F00160028003100BD
:103AE000C0B2C9B2884201D1012000E000201C0010
:103AF000DFF88C814FF4CE724146C0B2FFF76EFB07
:103B000028002100C0B2C9B2884201D1012000E0E2
:103B1000002040F29D124146C0B2FFF75FFB02A8B1
:103B2000142100F025FD342100220DF168084046E3
:103B3000FEF756FA4C2100220DF11C084046FEF714
:103B40004FFAFF003A00002354480021FDF720FC03
:103B500007002200D2B23100C9B202A8FFF799FDD6
:103B600008201B909DF80D008DF870001AAA9DF892
:103B70000C10029800F0BDFC06201B909DF815006B
:103B80008DF870001AAA9DF81410049800F0B1FC8A
:103B900000200790082008900820099002200B9030
:103BA00000200C9000201290002014903A4C280025
:103BB000C0B254F8200000F021FE39492A00D2B2E8
:103BC000382042430A4407A92800C0B254F8200014
:103BD00000F0D2FC2800C0B254F82000FFF754FDDA
:103BE0002A00D2B20321BDF91600FFF7BFFCBDF9D0
:103BF0001600FFF7B7FC17F01F010091C7F357132A
:103C00002A00D2B20321C0B2FFF750FCBDF9160062
:103C1000FFF7A8FC2A00D2B20321C0B2FFF7DBFCF9
:103C2000BDF91800ADF800000320ADF80200012036
:103C30008DF8040007221B482900C9B250F8211052
:103C4000684600F0AFFB00212800C0B2FFF7C1FEBC
:103C500000212800C0B2FFF72EFE28B0BDE8F08199
:103C60000000000090710810000004400000314086
:103C700000023140000531408008314000073140EA
:103C8000E86E0810000060400000654000006440DD
:103C9000000063400000624068BF022800809698E0
:103CA000C06F032854BF02280CB430B583B00A4655
:103CB00006A90291044600250194009502AB01A9D2
:103CC000084878441E30FCF7DEF9019A1570002888
:103CD0004EBF04460198041B204603B030BC5DF87B
:103CE0000CFB00BFDFD2FFFF82688918816003E010
:103CF00082684169521A8260816842699142F7D2B2
:103D00007047C2688918C16003E0C2684169521AED
:103D1000C260C16842699142F7D2704770B5040031
:103D2000002C01D0012000E000205422DFF8C4154F
:103D3000C0B2FFF753FA0025207850F00100207040
:103D40000020A0600020E0606069206160780028A9
:103D500003D0022810D007D315E0616900226668FD
:103D60003000FEF73DF90EE0616949000022666807
:103D70003000FEF735F906E06169890000226668C7
:103D80003000FEF72DF9002020702800C0B270BD71
:103D900010B50400002C01D0012000E000207022AA
:103DA000DFF85015C0B2FFF719FA60692169401AAF
:103DB00010BD2DE9F84305001600002D01D00120AB
:103DC00000E000200C00AA22DFF82815C0B2FFF79F
:103DD00005FA00270020002C01D10327B5E0287840
:103DE00010F0050F01D00427AFE0287850F0040050
:103DF00028702869B042C0F0A380D5F81480A86864
:103E0000B8EB0008B04567D26878002803D00228D4
:103E100041D01FD390E0424621006868AB6800EBB8
:103E200003094846FDF73AF941462800FFF75CFFD1
:103E3000B6EB080204EB08016868AB6800EB03040A
:103E40002000FDF72BF9B6EB080841462800FFF7E4
:103E50004BFF71E05FEA480221006868AB6800EB45
:103E600043094846FDF71AF941462800FFF73CFF91
:103E7000B6EB0802520004EB48016868AB6800EB3F
:103E800043042000FDF70AF9B6EB08084146280074
:103E9000FFF72AFF50E05FEA880221006868AB68FC
:103EA00000EB83094846FDF7F9F841462800FFF783
:103EB0001BFFB6EB0802920004EB88016868AB6850
:103EC00000EB83042000FDF7E9F8B6EB0808414653
:103ED0002800FFF709FF2FE06878002803D00228A8
:103EE0001DD00ED328E0320021006868AB6800EBDB
:103EF00003042000FDF7D2F831002800FFF7F4FE9C
:103F00001AE0720021006868AB6800EB43042000EF
:103F1000FDF7C4F831002800FFF7E6FE0CE0B20020
:103F200021006868AB6800EB83042000FDF7B6F859
:103F300031002800FFF7D8FE2869861B2E6100E0BB
:103F40000527287810F0FB0028703800C0B2BDE8C3
:103F5000F2832DE9F04705000E001F00002D01D06F
:103F6000012000E000201400DFF8888340F25B129B
:103F70004146C0B2FFF732F9002C01D0012000E029
:103F800000204FF4AE724146C0B2FFF727F95FF050
:103F9000000800200020002E02D15FF003088BE013
:103FA000297811F0030F03D020605FF006089CE031
:103FB0002800FFF7EDFE2168884209D220605FF0FB
:103FC0000708002804D1287810F0F70028708CE04A
:103FD000287850F008002870D5F81490E868B9EBFC
:103FE00000092068814522D36878002803D0022880
:103FF00013D008D35CE022686868E96801443000A7
:10400000FDF74CF854E0226852006868E96800EB5C
:1040100041013000FDF742F84AE0226892006868EA
:10402000E96800EB81013000FDF738F840E068787E
:10403000002803D0022827D011D339E04A46686807
:10404000E9680144B2465046FDF728F82268B2EB11
:10405000090269684E443000FDF720F828E05FEA65
:1040600049026868E96800EB4101B2465046FDF735
:1040700015F82268B2EB09025200696806EB49069E
:104080003000FDF70BF813E05FEA89026868E96821
:1040900000EB8101B2465046FDF700F82268B2EB12
:1040A00009029200696806EB89063000FCF7F6FF0A
:1040B000287810F0F7002870FFB2002F15D128786B
:1040C0000B2802D15FF002080FE0287850F00200C0
:1040D000287021682800FFF714FE2969206841181C
:1040E0002961287810F0FD0028704046C0B2BDE874
:1040F000F0872DE9F04705000E001F00002D01D0CC
:10410000012000E000201400DFF8E8814FF4DF72A6
:104110004146C0B2FFF762F8002C01D0012000E058
:10412000002040F2BF124146C0B2FFF757F85FF0DF
:10413000000800200020002E02D15FF00308ABE051
:10414000297811F0070F03D020605FF00608AFE078
:104150002800FFF71DFE2168884209D220605FF029
:104160000708002804D1287810F0F70028709FE095
:10417000287850F008002870E868A968884203D3BE
:10418000A8682168884228D36878002803D00228CC
:1041900017D00AD37CE022686968AB6820681B1AD4
:1041A00019443000FCF77AFF72E022685200696817
:1041B000AB6820681B1A01EB43013000FCF76EFF6F
:1041C00066E0226892006968AB6820681B1A01EB00
:1041D00083013000FCF762FF5AE0D4F80090A86831
:1041E000B9EB00096878002803D0022835D018D32D
:1041F0004EE04A4668686969B1EB09010144B2467C
:104200005046FCF74BFF2268B2EB09026968AB68C5
:1042100020681B1A194406EB09042000FCF73EFF36
:1042200036E05FEA490268686969B1EB090100EBB1
:104230004101B2465046FCF731FF2268B2EB090259
:1042400052006968AB6820681B1A01EB430106EB5A
:1042500049042000FCF722FF1AE05FEA890268683F
:104260006969B1EB090100EB8101B2465046FCF7E8
:1042700015FF2268B2EB090292006968AB682068FA
:104280001B1A01EB830106EB89042000FCF706FFF3
:10429000287810F0F7002870FFB2002F08D1287896
:1042A0000B2802D15FF0020802E02800FFF736FD7C
:1042B0004046C0B2BDE8F087F8B504000E00170014
:1042C0001D00002C01D0012000E000204FF40772F7
:1042D0000849C0B2FEF782FF00206760002121700C
:1042E00066700021A1600021E16025616561C0B2B6
:1042F000F2BD00007C6E0810010009B2002908D44C
:10430000012210F01F018A401B4900B2400941F808
:1043100020207047010009B2002908D4012210F0C2
:104320001F018A40154900B2400941F8202070471A
:10433000020012B2002A04D44901114A00B21154F9
:1043400007E049010F4A00B210F00F00104400F8D6
:10435000041C7047002800D162B60B480168491C54
:104360000160704772B608490868002802D00868E2
:10437000401E08600868704700E100E080E200E04D
:1043800000E400E018ED00E03079032880B5FFF785
:10439000E9FF00F07BFA01BD80B5C9B200B2FFF7BA
:1043A000C7FF01BD70B504000D001600200000F02D
:1043B0007DFA2900B4F9000000F0B7FA3100C9B263
:1043C000B4F90200FFF7E8FFB4F90200FFF7A2FF1B
:1043D000B4F90200FFF790FF70BD000030B4614BEC
:1043E0001818C009604C14EB001404290DD223687E
:1043F0001F25C8008540AB43D2B212F01F02C9008E
:1044000012FA01F1194321600CE0091F63681F25AE
:10441000C8008540AB43D2B212F01F02C9008A40E7
:104420001A43626030BC7047002A04D1012212FA9C
:1044300001F1416003E0012212FA01F1816070474D
:1044400010B48900436C0F248C40A34312F00F0278
:1044500012FA01F11943416410BC704710B4836C27
:1044600001248C40A34312F0010212FA01F1194316
:10447000816410BC704710B4C36C01248C40A3430A
:1044800012F0010212FA01F11943C16410BC704725
:1044900010B449001031C36C03248C40A34312F0C4
:1044A000030212FA01F11943C16410BC704742695A
:1044B000012212FA01F141614069704710B4836929
:1044C00001248C40A34312F0010212FA01F11943B6
:1044D000816110BC704710B44900036C03248C4008
:1044E000A34312F0030212FA01F11943016410BC54
:1044F0007047F8B505000E0014000027002D2ED0DF
:10450000002C2CD0226831002800FFF78DFF227A82
:1045100031002800FFF762FF626931002800FFF7D1
:104520009DFFA26931002800FFF7A5FFE269310075
:104530002800FFF7ADFF626831002800FFF780FF19
:10454000E26831002800FFF7C6FF31002800FFF7BE
:10455000AEFF226931002800FFF7B0FF00E0034FF3
:104560003800F2BD0000CFBF0000304001005A000B
:10457000002200F0F1B900002DE9F44FDFF8D82255
:10458000DFF8D8321B68DFF8D8422468DFF8D4524D
:104590002D68DFF8D4623668DFF8D0723F68DFF844
:1045A000D0C2DCF800C0DFF8CCE2DEF800E0DFF8D3
:1045B000C882D8F80080DFF8C492D9F80090DFF8FC
:1045C000C0A2DAF800A0002800F01581002900F050
:1045D00012810A68022A06D191F82620002A02D107
:1045E0005FF0000B03E0D1F804B0BBF1010B91F8D0
:1045F0002420002A01D0012200E0002262F31043AF
:1046000033F440436BF30303022262F31963036044
:104610000A7812F0030262F31964046491F8252009
:10462000002A01D0012200E0002262F38615CA7E32
:10463000002A01D0012200E0002262F38A254A7E8E
:10464000002A01D0012200E0002262F308258A7EC0
:10465000002A01D0012200E0002262F349258A6B82
:10466000521E12F00F0262F313450A69521E12F035
:104670000702ED08ED0015434A6962F304154A6923
:10468000520862F3451585640A7B002A01D0012295
:1046900000E0002262F308260A7E002A01D00122EF
:1046A00000E0002262F349268A68521E12F01F02BF
:1046B000760976011643C0F800630A7F02F0FF0214
:1046C0003F0A3F02174391F8202002F0FF0262F3F5
:1046D0001747C0F8107391F82720002A01D0012253
:1046E00000E0002262F3082C0A69521E12F0070251
:1046F0005FEADC0C5FEACC0C52EA0C0C4A6962F30C
:10470000041C4A69520862F3451CC0F844C00A7B85
:10471000002A01D0012200E0002262F3082E8A68FC
:10472000521E12F01F025FEA5E1E5FEA4E1E52EA40
:104730000E0E0A68012A01D1012200E0002262F374
:10474000104EC0F800E291F83C2002F0FF025FEA50
:1047500018285FEA082852EA0808C0F8048391F88C
:104760002820002A01D0012200E0002262F35969CA
:10477000CA6A012A01D1012200E0002262F318690D
:104780004A6B012A01D1012300E00023009A63F360
:10479000104991F8303003F0FF035FEA19295FEA0E
:1047A000092953EA0909C0F8509091F8443003F000
:1047B000FF035FEA1A2A5FEA0A2A53EA0A0AC0F8E4
:1047C00004A28B6CC0F8883F096CC0F8C81F002A8F
:1047D00010D0002050600020106000209060002069
:1047E000D060002010620020D06200201063DFF84B
:1047F0009400506300221000BDE8F28FDFF88810AB
:1048000001605FF4401101640021816440F20711EE
:10481000C0F800130022C0F804230022C0F81023BF
:1048200000224264C0F800120021C0F804120021E6
:1048300001650021C0F8C81E0021C0F8881E0021B3
:10484000C0F8C81F0021C0F8881F0021C0F8081F49
:104850000021C0F8481F70470160AA00C871081005
:10486000CC710810D0710810D4710810D8710810DC
:10487000DC710810E0710810E4710810E87108108C
:10488000EC710810EFCDAB000F000003002007E033
:104890000549C2018A5822F00042C301CA50401C97
:1048A0003F28F5DB704700000000584030B400217D
:1048B000234A1368234A1468002832D0224A156814
:1048C000C5F303250E2D0FD01268C2F303220D2A63
:1048D00028D1827812F00F022409240114430279AE
:1048E000002A15D0012214E0827812F00F021B0971
:1048F0001B0113430279002A01D0012200E00022AB
:1049000062F3DF73114AB0F9000042F8203009E089
:10491000002262F3DF740E4AB0F9000042F8204032
:1049200000E00649080030BC70470A4B1A68002AAC
:1049300003D01A6800B242F82010704701005600F8
:10494000F0710810F47108100000204000A0204011
:1049500000C0204030BF022800B500BF13009646BB
:104960009446103928BFA0E80C50FAD85FEA417C81
:1049700028BF0CC048BF40F8042BC90728BF20F847
:10498000022B48BF00F8012B00BD0000022801D314
:10499000012010E00B00DBB2042B01DB01200AE058
:1049A000DFF8B43303EB8000C9B2405C824201D32C
:1049B000012000E000207047F8B506000F00150048
:1049C0001C00022E01D301201DE02A003900C9B2CB
:1049D0003000FFF7DBFF012801D1012013E0380090
:1049E000C0B2002812D1B4F5807F0DD2DFF86C037D
:1049F0007603304400EB850010F58050016864F3C5
:104A00000F2101600020F2BD0120FCE7FFB2012F61
:104A100010D1B4F5803F0BD2D0487603304400EB80
:104A2000850010F5A050016864F317210160E9E7E3
:104A30000120E8E70120E6E700B20012C0B27047AB
:104A4000F8B505000E001700280000B2FFF7F4FFCC
:104A500004002000C0B2022801D3012023E03A0064
:104A60003100C9B22000C0B2FFF790FF012801D188
:104A7000012018E0B9492000C0B2400308442A00D0
:104A8000D2B200EB8200D0F8000CF6B266F3092037
:104A900067F30700E4B264032144EDB201EB850142
:104AA000C1F8000C0020F2BD70B504000D00160026
:104AB000022C01D301201CE032002900C9B22000E1
:104AC000FFF764FF012801D1012012E0A349600330
:104AD000085850F0004050F0407050F47F00EDB2A4
:104AE00065F3092066F307006203885064030859E0
:104AF000002070BD10B59A4800F023FA45F6200258
:104B0000130098490C00012B0EDB14F01F00C31892
:104B1000BFF34F8F944804602034203B012BF9DA17
:104B2000BFF34F8FBFF36F8F904C2000FCF7B6FAA6
:104B300001208F49087010BD10B596B040F2611485
:104B4000002201212000FFF77BFF2000FFF774FF08
:104B5000092300220121C0B2FFF72EFF2000FFF73A
:104B60006BFF00220121C0B2FFF79EFF4FF4CD7012
:104B7000ADF800000320ADF8020001208DF804001C
:104B800000227C496846FFF70DFC5021002202AC50
:104B90002000FDF725FA0020029000208DF80C007F
:104BA00001208DF80D0000208DF80E0000208DF8FA
:104BB000100003208DF84C000120149000208DF887
:104BC000540000208DF85500654C02A9200000F02B
:104BD000E9F8200000F0A6F9200000F0ACF96648E2
:104BE00000F0B7F916B010BD10B58EB001248A20C0
:104BF000009089234FF4C87200210AA8FEF710F92B
:104C00000AA8FDF793FA002817D168465B492822C5
:104C1000FCF754FA5A480178491CBC2211FB02F1F6
:104C2000ADF812100078401C782110FB01F0ADF8AF
:104C300016006846FDF7AAFA04002000C0B20EB0C4
:104C400010BD2DE9F8430020BFF34F8FBFF36F8FE6
:104C50004C4C206830F4003020604B4E0020306017
:104C6000BFF34F8FBFF36F8F484F00203860BFF303
:104C70004F8F206830F480302060BFF34F8FDFF813
:104C80001081D8F80010C1F34E32C1F3C90343F6C6
:104C9000E07515EA421050EA8370DFF8F8C0CCF8EE
:104CA00000001800431E0028F1D11000421E002809
:104CB000EBD1BFF34F8FBFF36F8F78203649088059
:104CC000BC2036490880FFF78FFF81464846C0B2B6
:104CD000002801D1FFF730FF2068800311D4BFF313
:104CE0004F8FBFF36F8F00203060BFF34F8FBFF344
:104CF0006F8F206850F400302060BFF34F8FBFF3F8
:104D00006F8F2068C00321D400203860BFF34F8F1D
:104D1000D8F80010C1F34E32C1F3C90315EA4210AE
:104D200050EA83701E4E30601800431E0028F5D1F3
:104D30001000421E0028EFD1BFF34F8F206850F4BF
:104D400080302060BFF34F8FBFF36F8F4846C0B2F3
:104D5000BDE8F283000000009071081000000440DC
:104D6000801D5840246002285CEF00E0A017032853
:104D700059790328F54A0810001E58408C6F081016
:104D80005A79032814ED00E050EF00E084ED00E0D4
:104D900080ED00E074EF00E0F06B0028F26B00287B
:104DA00060EF00E010B4012291F84C30052B03D2E3
:104DB00091F84D30052B01D31000A7E0002800F03A
:104DC000A480002900F0A180514A12684B7963F356
:104DD00092428B7913F0030363F311420B7A13F0C1
:104DE000070363F31A62CB7963F39E720B7D63F35F
:104DF000000291F8243063F3410202600A7910F155
:104E000030031C6862F307041C604A79012A0BD145
:104E10008A79002A02D10022826007E08A79012A79
:104E200004D10A68826001E001228260CA680261DE
:104E30000A694261CA6982610A6AC2610A680262D9
:104E4000344A12680B7E03F0FF03120A12021A435F
:104E500091F8303003F0FF0363F3174291F84030CC
:104E600003F0FF0363F31F6291F8483003F0FF0380
:104E700063F30F224264284A126891F8383003F035
:104E8000FF03120A12021A4391F8283003F0FF03BD
:104E900063F30F228264214A12688B7D13F00303AF
:104EA000920892001A4391F8253013F0030363F33C
:104EB0008B2291F82C3013F0030363F3051291F861
:104EC000343013F0030363F3092291F83C3013F0FC
:104ED000030363F3871291F8443013F0030363F381
:104EE0008302C2640E4A126891F84C3013F0070333
:104EF000D208D2001A4391F84D3013F0070363F340
:104F000006124265497D81670022100010BC70477F
:104F1000F8710810FC710810007208100472081073
:104F200008720810016851F000410160704781600B
:104F30007047806870477830016851F00101016066
:104F4000704710F170010A6852F001020A60006FA8
:104F500070474030016851F0100101607047000057
:104F60002DE9F84306000C001F005FF00008DFF891
:104F70006803AA21017002214170002C01D0002198
:104F800000E00121089D730153EA01131A43827066
:104F90000821C1708780C580DFF840930821D9F8C7
:104FA00000209047F6B2012E04D014D3032E0DD06A
:104FB00007D310E0BFB2ADB26F43082097FBF0F803
:104FC00009E0BFB2ADB26F43B84604E0BFB2ADB2C4
:104FD0006F437F00B846002C04D041462000D9F82A
:104FE00000209047BDE8F183F8B504000020DFF809
:104FF000F00285888178890600D56D00DFF8DC62D3
:10500000082132689047002720E03800C0B204EB46
:105010008000C068002808D0290089B23800C0B2DA
:1050200004EB8000C068326890473800C0B204EBDF
:105030008000C06A002808D0290089B23800C0B2B8
:1050400004EB8000C06A326890477F1C3800C0B211
:105050000828DADBF1BD30B4A14CAA252570032560
:1050600065700825E570A04C20722160A280E38065
:1050700030BC70472DE9F047814690461C00002067
:1050800000250026984F387A002801D0012000E042
:1050900000208A464FF484729249C0B2FEF79EF80F
:1050A000DFF83CE2AEF804A000208EF806005FF0C6
:1050B000000A0DE000205146C9B207EB8101C8602B
:1050C00000205146C9B207EB8101C8621AF1010AFA
:1050D0005046C0B20328EDDB40462100089ADDF8B7
:1050E00024C00A9B0B9CC8465FFA88F8B8F1000FF1
:1050F00008D0B8F1020F73D03AD3B8F1030F00F023
:10510000C280C0E000280DD06D1C9EF8063053F020
:1051100001038EF806305346DBB207EB8303D860F9
:105120001AF1010A00290DD06D1C9EF8060050F0FE
:1051300002008EF806005046C0B207EB8000C16046
:105140001AF1010A002A0DD06D1C9EF8060050F0DD
:1051500004008EF806005046C0B207EB8000C26023
:105160001AF1010AF888B0F5807F00DB01268AE099
:10517000BCF1000F0ED06D1C9EF8060050F001002F
:105180008EF806005046C0B207EB8000C0F82CC075
:105190001AF1010A002B0DD06D1C9EF8060050F08C
:1051A00002008EF806005046C0B207EB8000C362D2
:1051B0001AF1010A002C0DD06D1C9EF8060050F06B
:1051C00004008EF806005046C0B207EB8000C462AF
:1051D0001AF1010AB888B0F5807F00DB012652E0A1
:1051E000002818D0BCF1000F15D06D1C9EF8068069
:1051F00058F001088EF80680D0465FFA88F807EB71
:105200008808C8F80C005046C0B207EB8000C0F810
:105210002CC01AF1010A002914D0002B12D06D1CE9
:105220009EF8060050F002008EF806005046C0B20C
:1052300007EB8000C1605046C0B207EB8000C3623C
:105240001AF1010A002A14D0002C12D06D1C9EF80D
:10525000060050F004008EF806005046C0B207EB7E
:105260008000C2605046C0B207EB8000C4621AF1F1
:10527000010AB888B0F5807F03DAF888B0F5807F3E
:1052800000DB0126FFE7760156EA891635438EF8E2
:105290000250BDE8F08738B5134C207A002801D0C1
:1052A000012000E000204FF4BC720E49C0B2FDF7AF
:1052B00095FF0B4DE0880090A388AA7812F00F02AA
:1052C0002168207AFFF74CFEA87810F00F0F02D06B
:1052D0002000FFF789FE31BD0479032834BF02287E
:1052E0000C790328D46B081094770328D0F80803AE
:1052F000C005C00D704710F541710A6852F4803244
:105300000A6010F541710A6832F480320A60D0F800
:1053100004037047C0F840127047D0F80802C00577
:10532000C00D7047D0F80802C0F3C030704738B5E0
:1053300005002800FFF7F1FF04002800FFF7F2FF47
:105340000419002C01D1012000E00020C0B232BDC0
:105350000068C0F38130002801D1802000E04020A7
:10536000704780B5FFF7C2FF02BD80B5FFF7C3FFEE
:1053700001BDC9B2082902D0102946D096E0DFF855
:10538000E4110200D2B251F82220126832F44042F5
:105390000300DBB251F823301A600200D2B251F898
:1053A0002220D2F80022520952010300DBB251F848
:1053B0002330C3F800220200D2B251F82220D2F8E2
:1053C000002252F007020300DBB251F82330C3F889
:1053D00000220200D2B251F82220D2F80023520952
:1053E00052010300DBB251F82330C3F8002302005E
:1053F000D2B251F82220D2F8002352F00702C0B2F4
:1054000051F82000C0F8002350E0DFF858110200E6
:10541000D2B251F82220126832F440420300DBB2CB
:1054200051F823301A600200D2B251F822201268DB
:1054300052F480420300DBB251F823301A600200BC
:10544000D2B251F82220D2F80022520952010300B0
:10545000DBB251F82330C3F800220200D2B251F877
:105460002220D2F8002252F00F020300DBB251F8E2
:105470002330C3F800220200D2B251F82220D2F821
:105480000023520952010300DBB251F82330C3F864
:1054900000230200D2B251F82220D2F8002352F0A9
:1054A0000F02C0B251F82000C0F8002370472DE968
:1054B000F84307000D00140008213800C0B2FFF7C0
:1054C00058FFDFF8A4603800C0B2305C08280FD065
:1054D0003800C0B2305CC010DFF8901011EBC01182
:1054E00001203A00D2B2B25C12F00702904008608C
:1054F000DFF8708029783800C0B258F82000FFF734
:1055000009FF6D1C3800C0B258F82000FFF720FFDB
:1055100081463800C0B258F82000FFF7FEFE8145F2
:10552000F0D0641E002CE3D13800C0B258F820003F
:10553000FFF7FDFE0028F7D03800C0B2305C082825
:105540000ED03800C0B2305CC010DFF8241011EB70
:10555000C0110120FFB2F25D12F007029040086016
:10556000BDE8F18344BF02283479032804003140A8
:10557000080031402DE9F84380460D0016001C005C
:1055800008214046C0B2FFF7F4FEDFF8C470404681
:10559000C0B2385C08280FD04046C0B2385CC0109A
:1055A000DFF8B01011EBC01101204246D2B2BA5C54
:1055B00012F0070290400860DFF89C904046C0B2AD
:1055C00059F82000FFF7CDFE002805D04046C0B2B4
:1055D00059F82000FFF7C9FE29784046C0B259F8B3
:1055E0002000FFF797FE6D1C4046C0B259F820001E
:1055F000FFF79DFE0028F7D04046C0B259F82000C2
:10560000FFF7AFFE0028F7D04046C0B259F820009F
:10561000D0F840033070761C641E002CDCD140466C
:10562000C0B2385C082810D04046C0B2385CC01008
:10563000DFF8281011EBC01101205FFA88F817F885
:10564000082012F0070290400860BDE8F1830000D6
:10565000347903280400314044BF02280800314057
:10566000022801D301200FE00B00DBB2042B01DB89
:10567000012009E0AA4B03EB8000C9B2405C8242E2
:1056800001D3012000E000207047F8B506000F00AC
:1056900015001C00022E01D301201CE02A00390055
:1056A000C9B23000FFF7DCFF012801D1012012E070
:1056B0003800C0B2002811D1B4F5807F0CD29948CF
:1056C0007603304400EB850010F58050016864F3E8
:1056D0000F2101600020F2BD0120FCE7FFB2012F85
:1056E00010D1B4F5803F0BD28E487603304400EBE6
:1056F000850010F5A050016864F317210160E9E707
:105700000120E8E70120E6E700B20012C0B27047CE
:10571000F8B505000E001700280000B2FFF7F4FFEF
:1057200004002000C0B2022801D3012023E03A0087
:105730003100C9B22000C0B2FFF792FF012801D1A9
:10574000012018E077492000C0B2400308442A0035
:10575000D2B200EB8200D0F8000CF6B266F309205A
:1057600067F30700E4B264032144EDB201EB850165
:10577000C1F8000C0020F2BD70B504000D00160049
:10578000022C01D301201CE032002900C9B2200004
:10579000FFF766FF012801D1012012E06149600393
:1057A000085850F0004050F0407050F47F00EDB2C7
:1057B00065F3092066F30700620388506403085903
:1057C000002070BDF8B50600F600574C574D00217B
:1057D0002078C0012844FFF7AAFB12E02078C0011E
:1057E0002844FFF7A6FBB842F8D32078C00128442C
:1057F000FFF79FFB361A00212078C0012844FFF7ED
:1058000096FB4CF25137BE42E8D22078C0012844C2
:10581000FFF78FFB8642F8D2F1BDF8B504004FF4D4
:10582000FA504443404D414E00212878C001304495
:10583000FFF77DFB14E02878C0013044FFF779FBC7
:10584000B842F8D33A4F3C192878C0013044FFF7EA
:1058500070FB3F1839002878C0013044FFF767FB20
:105860004CF25137BC42E6D22878C0013044FFF7F1
:1058700060FB8442F8D2F1BD38B594B050210022CB
:105880006C462000FCF7ACFB2A4C00220121B4F945
:105890000000FFF73DFFB4F90000FFF735FF0923D3
:1058A00000220121C0B2FFF7F0FEB4F90000FFF7BB
:1058B0002BFF00220121C0B2FFF75EFF5FF0FF3037
:1058C000009000208DF8040000208DF805000020D5
:1058D0008DF8060000208DF8080003208DF84400A4
:1058E0000120129001208DF807000F4C0F4D6946E2
:1058F0002078C0012844FFF755FA2078C0012844D9
:10590000FFF710FB00212078C0012844FFF70FFBB0
:105910002078C0012844FFF71CFB15B030BD000003
:1059200090710810000004407FBF02280000594019
:10593000B03CFFFF7CBF022838B50400002564207E
:1059400044431420FDF70EFD002805D10A20FFF77F
:1059500039FF6D1CA542F4D3A54201D3012000E01C
:105960000020C0B232BD38B504000D000820DFF8B9
:10597000F41108600423220021000020FFF7FAFD43
:10598000280080B2002806D0ADB22B00221D211DB8
:105990000020FFF7EFFD0820DFF8CC11086031BDD3
:1059A000F8B504000D0016000820DFF8B8110860F3
:1059B000022028706E8004232A0029000020FFF7AF
:1059C000D9FD300080B221280EDB20232A1D2100C2
:1059D0000020FFF7CFFDB6B2203E320014F12001C7
:1059E0000020FFF764FD0CE0B6B22F1D320021004D
:1059F0003800FBF753FB20232A1D291D0020FFF749
:105A0000B9FD0820DFF860110860F1BDF0B589B07C
:105A100006000C00554D2878002858D10120287028
:105A20001CE03A0092B269463000FFF7B9FF9DF8DA
:105A30000000902803D09DF80000912809D1BDF8FE
:105A40000200002805D0BDF8022001A94848FEF751
:105A5000B0F9380080B2241ABFB23E44002C2AD0DC
:105A600040F6F970844202D340F6F87700E0270050
:105A70004FF47A70FFF760FF0028D2D01BE00220BD
:105A80008DF800000020ADF8020020216846FFF7E5
:105A90006AFF9DF80000902803D09DF8000091282F
:105AA00009D1BDF80200002805D0BDF8022001A9E7
:105AB0002F48FEF77EF99DF80000902805D14FF49D
:105AC0007A70FFF739FF0028D9D000202870200015
:105AD00009B0F0BD38B58AB004000D00002C01D02B
