:020000041008E2
:1000000000000828C9520810995A08104D580810C5
:100010009D5A0810A15A0810A55A081000000000A7
:100020000000000000000000000000001D59081042
:10003000A95A081000000000AD5A0810B15A081063
:10004000A34E0810C94E0810EF4E0810154F0810A7
:100050003B4F0810614F0810874F0810AD4F081034
:10006000B55A0810B95A0810BD5A0810C15A0810DC
:10007000C55A0810C95A0810CD5A0810D15A08108C
:1000800040F0200070472DE9F14FB0B09246049146
:100090000DF142013A9A2B9199464A7000200AE0EC
:1000A0001AF8011B0498309A90470028049000F039
:1000B00034860D98401C0D909AF8000050B1252808
:1000C000EED1002100220791089209910A920B912A
:1000D0000C9204E00D9800F022BE41F001011AF8E4
:1000E000010F2028F9D023280CD02B2804D02D284C
:1000F00005D0302809D00BE041F00201EFE741F0D4
:100100000401ECE741F00801E9E741F01001E6E7FE
:100110002A280FD1D9F8002052F8040BC9F8002082
:1001200000280F9003D540420F9041F004010AF1DE
:10013000010A14E00F92DFF8EC3B0AE00F989842B6
:1001400005DA00EB800402EB4402303A0F920AF128
:10015000010A9AF80020A2F130000A28EED39AF89A
:1001600000002E2803D04FF0FF320E9229E01AF83B
:10017000010F2A2809D1D9F8000050F8042BC9F83A
:1001800000000E920AF1010A1BE02D280CBF0AF1B3
:10019000010A002000220E92DFF8884B0BE040B9E4
:1001A0000E9AA24205DA02EB820503EB4503303BCF
:1001B0000E930AF1010A9AF80030A3F130020A2ADC
:1001C000EDD3ADF840100FF660309AF8001000F053
:1001D000EDFE08B11AF8010B8DF842009DF84200BF
:1001E000682805D19AF8000068280CD1622106E041
:1001F0006C2804BF9AF800006C2804D171218DF896
:1002000042100AF1010A12A806901AF801BBBBF1CC
:1002100025012CD01C3900F09481091F022940F2DD
:100220009081133900F0AB84093900F08A81891E6E
:1002300000F04085491E00F0ED84491E022940F27D
:100240008081091F00F0E684491F00F0EF80491EFD
:1002500000F09584491E00F0D780C91E0CD0891E7D
:1002600000F08D84C91E00F08A8400F02EBD0123A9
:100270000793252100F026BDD9F8000050F8044B63
:10028000C9F80000002C059440F0AB802B99487809
:10029000002800F0A1804FF0FF340FF6942000F00A
:1002A00095FE241A40F0398500F01BBD01236A46F3
:1002B00002A9304600F000FE002840F02E85641EA2
:1002C000F4D13096079C12AF74B1309E17F8011B21
:1002D0000498B0470028049000F01F850D98401C3A
:1002E000641E0D90F2D130960A9C3021002C8DF8BE
:1002F00000100CDD309E01236A4602A9304600F052
:10030000DBFD002840F00985641EF4D13096059F7E
:10031000089C74B1309E17F8011B0498B047002860
:10032000049000F0FA840D98401C641E0D90F2D1E8
:1003300030960B9C3021002C8DF800100CDD309E87
:1003400001236A4602A9304600F0B6FD002840F0BD
:10035000E484641EF4D1309605980899099C4718E6
:1003600074B1309E17F8011B0498B0470028049020
:1003700000F0D3840D98401C641E0D90F2D130968D
:100380000C9C3021002C8DF800100CDD309E0123D8
:100390006A4602A9304600F08FFD002840F0BD8477
:1003A000641EF4D130969DF8400041077FF584AE7D
:1003B0002020002D8DF800007FF77EAE309C0123B9
:1003C0006A4602A9204600F077FD002840F0A58487
:1003D0006D1EF4D130946FE60FF63C30059000F0BE
:1003E00080BC0E9D002D04D5204600F00FFE044673
:1003F00007E02A46204600F025FE002814BF041B13
:100400002C46089400F06DBCD9F8001051F8040B8C
:10041000C9F8001020F00004002121F0FF35CDE9DB
:10042000024512AB0593782100F040BC2B99487827
:1004300020B14FF0FF340FF6B02030E79DF84200B6
:10044000622860D0682817D06A283FD06C2806D070
:10045000712847D074282CD07A281DD062E0D9F8B2
:10046000001051F8040BC9F80010002866D14FF0B5
:10047000FF340FF68C2012E7D9F8001051F8040B66
:10048000C9F8001020B94FF0FF340FF6742006E7CA
:100490000D99018000F025BCD9F8001051F8040B2B
:1004A000C9F80010002849D14FF0FF340FF6502052
:1004B000F5E6D9F8001051F8040BC9F8001000282F
:1004C0003CD14FF0FF340FF63820E8E6D9F80010A1
:1004D00051F8040BC9F8001080B94FF0FF340FF643
:1004E0002020DCE6D9F8001051F8040BC9F8001000
:1004F00020B94FF0FF340FF60820D0E60D9AD3173D
:10050000C0E90023EDE3D9F8001051F8040BC9F855
:10051000001020B94FF0FF340FF6E410BFE60D993C
:100520000170DEE3D9F8001051F8040BC9F800108F
:1005300020B94FF0FF340FF6C810B0E60D990160F6
:10054000CFE39DF842004C2807BFD9F80010CA1D20
:10055000D9F80000C21D22F00702C9F80020D2E934
:1005600000010832C9F80020CDE90201C80F02D00D
:1005700007982D210AE0BDF84000810702D50798B1
:100580002B2103E0C00705D50798202112AA11549A
:10059000401C079012A807994BF0200300EB010CB8
:1005A000DDE90201CDE92C01612BCDF814C021ACAD
:1005B0000BD00E98002848BF062105D404BF4BF08D
:1005C0002000672801D101210E91DDE902014F00D1
:1005D00047EAD0777E15FF174FF0FF32974208BFEA
:1005E000964210D1090341EA10510003002908BFC7
:1005F000002808D0ABF1610503211A2D089118D30A
:100600000FF61C1110E0DDE902014A00521512F14B
:10061000010F11D108030FD1ABF1610503211A2D90
:1006200008911FD30FF600110322604600F036FD3B
:1006300057E30FF6E801F7E7DDE902016A4600F04B
:1006400081FDCDE902014BF02000612811D1059810
:1006500030210170821C0592BBF1610F0CBF782123
:10066000582102E00FF6BC01DEE741700798801CBC
:100670000790DDE9020120F0000231F0004308BFDD
:10068000002A02D10026002542E14BF02008B8F1F3
:10069000610F40F092800E98002847BF2121019100
:1006A000401C0190019FDDE92C017F1C00220023EA
:1006B000DDE9024500F07EFD38BF85F00045009978
:1006C0008DF88420091F002F00910DF1850632DD81
:1006D000204629460022002300F086FD2BD21C2252
:1006E00000F09CFD04460D4600F01AFEFF1F002F8F
:1006F000804609DD00F01BFE02460B4620462946D7
:1007000000F01CFE04460D46F01D0721B8F1000F55
:100710000CDD491E5EBF08F00F0200F8012D4FEA04
:100720002818F3D502E0002200F8012D491EFAD561
:10073000C61D002FCCDC0DF18500361A01980DF195
:1007400085048642D8BF304600282FD4B04206DA4E
:100750000DF185010A5C082AA8BF0F2100DA0021EB
:10076000024621AB134400E0401E13F80159521E0B
:100770008D42F9D00F2904D10DF185018B5C5B1CF2
:100780008B54002A04D50099091D21AC401C00910E
:10079000411E0BD4621813783033DDB23A2DA4BF5A
:1007A0005B443A3B491E02F80139F4D50E99002901
:1007B00040F1AC80421E0E92A8E00099DFF8E826D6
:1007C00047F29750414391FBF2F20092DDE92C454C
:1007D000C2F10702002A25F0004504DD2046294623
:1007E00000F03EFB0BE052420020DFF8C01600F0A4
:1007F00037FB02460B462046294600F0A8FD04467A
:100800000D46B8F1660F06BF009F0A3706270E98FF
:100810003F18142FC8BF142730208DF884000DF125
:100820008506002F34DD2046294600F099FD01465B
:100830000A4606F1080304200A26B2FBF6F606EB88
:10084000860EA2EB4E02303203F8012C0A22B6FBD0
:10085000F2F202EB820EA6EB4E063036401E03F893
:10086000026DE9D1083F002F03F10806D9DD0846E3
:1008700000F07DFD02460B462046294600F05EFD55
:100880000022DFF82C3600F079FD04460D46CAE759
:100890000DF18500361A0DF1850404E00098401E24
:1008A000761E0090641C20783028F7D0B8F1660FCF
:1008B00002D10098401C04E0B8F1650F0CBF012084
:1008C00000200E9940188642B8BF701E00281DD423
:1008D000B04204DA215C3429C8BF392100DC302160
:1008E0000246631E9D1800E0401E15F80169521E65
:1008F0008E42F9D0392902D1A15C491CA154002AA9
:1009000004D50099491C1C46401C00910646009DD8
:100910000E9F30B2002802DC01260FF210644BF06B
:100920002000662808BF6D1C15D067280FFA85F8CF
:1009300041D118F1040F44DBB84542DA9DF840007C
:100940006D1C010703D430B2B842D8BF074628B2A5
:100950003F1A48BF00270FFA85F8B8F1000F00F3DF
:10096000AF800898411C0891302205990A54002F45
:1009700003DC9DF84000010705D50898411C08914B
:100980002E2205990A5417EB080FB8BF7D422DB2ED
:100990006842ED1932B20B909542B8BF2E46059BC6
:1009A000089836B2099632462146184400F076FB84
:1009B000AD1B0C95CCE0BBF1610F15D14FF0700B66
:1009C00017E030B2B84204DA9DF840100A0758BF69
:1009D00007467F1E48BF0027BBF1670F14BF4FF0CB
:1009E000450B4FF0650B04E0BBF1410F08BF4FF022
:1009F000500B0898411C0891002F059914F8012B01
:100A00000A5403DC9DF84000010719D50898411CE1
:100A100008912E2205990A54002F11DD761E30B25E
:100A20008742B8BF3E460598089B32B2214618441B
:100A300000F034FB089836B23018BF1B08900B97B3
:100A4000059808990844B8F1000F80F800B003D465
:100A50002B224270821C04E02D2145464170821CED
:100A60006D4200212CAB28460AE004460A2094FB84
:100A7000F0F000EB8005A4EB450403F8014B491CA2
:100A800000B20028F1DC012906DC4BF020006528CB
:100A900004BF302002F8010B00292CAB08D1302014
:100AA00002F8010B06E0491E585C303002F8010BD9
:100AB0000029F8DC059908980844121A099247E0C1
:100AC00030B229B288421BDA0598089B32B221461F
:100AD000184400F0E3FA089936B271180891A8EBAF
:100AE0000600002F0B9003DC9DF84000020705D59F
:100AF000059A2E2050540999491C09910C9727E01A
:100B00000598089B2AB22146184400F0C7FA0898B5
:100B1000761B4044002F089003DC9DF840100A0724
:100B200004D5411C08912E2205990A5430B28742FF
:100B3000B8BF3E460598089B32B204EB0801184442
:100B400000F0ACFA089836B23018BE1B08900B962D
:100B50009DF8400000F01400102840F0C280079A71
:100B600008980B99821809988A1882180C980F997E
:100B70008018884280F2B580081A0A90B1E09DF88A
:100B80004200622808D068280ED06A2814D06C2849
:100B90001FD0712810D01CE0D9F8001051F8040BB8
:100BA000C9F80010C0B21AE0D9F8001051F8040BCF
:100BB000C9F8001080B212E0D9F80000C21D22F07E
:100BC0000702C9F80020D2E900010832C9F8002064
:100BD00006E0D9F8001051F8040BC9F80010002104
:100BE000CDE902019DF8400001075AD5DDE9022355
:100BF000002B08BF002A54D04BF02000782850D199
:100C0000079812A930220A54401C431C079301F88C
:100C100000B046E09DF84200622808D068280ED057
:100C20006A2814D06C281FD0712810D01CE0D9F885
:100C3000001051F8040BC9F8001040B21AE0D9F8BE
:100C4000001051F8040BC9F8001000B212E0D9F8F6
:100C50000000C21D22F00702C9F80020D2E90001FD
:100C60000832C9F8002006E0D9F8001051F8040B4A
:100C7000C9F80010C117CDE90201002902D5079873
:100C80002D210AE0BDF84000810702D507982B21ED
:100C900003E0C00705D50798202112AA1154401C73
:100CA000079012A8079901440591594602A800F03F
:100CB0004DF816E001200790D9F8000050F8041B09
:100CC000C9F800008DF848100BE001212522BBF186
:100CD000000F07918DF8482003D0022207928DF86B
:100CE00049B00F9D07990A986D1A08992D1A0B980B
:100CF0006D1A09992D1A0C986D1A9DF840102D1A2D
:100D000048073FF5DFAA2021002D8DF800107FF75E
:100D1000D9AA309E2C46FFF7C9BA4FF0FF3031B048
:100D2000BDE8F08FCBCCCC0C686A6C747A4C0000B8
:100D30007072696E74665F733A2062616420257315
:100D400020617267756D656E740000002DE9FC47C7
:100D500007468A463C6950466F2808BF082505D0DB
:100D6000FFF78EF9782814BF0A251025D7E900016E
:100D70003C2680468946BAF1640F18BFBAF1690F64
:100D800005D1002903D5D8F1000869EB4909B9F16B
:100D9000000F08BFB8F1000F0CD1386B50B9082D07
:100DA0003AD197F83800010736D530223B2684F82F
:100DB0003B2031E08DF800A0404649462A46EB171B
:100DC00000F0E6FA3032D0B2761E3A2801960EDAFA
:100DD000A255404649462A46EB1700F0D9FA80460C
:100DE0005FEA010908BFB8F1000F05D108E09DF8DE
:100DF00000001218513AEBE7F868A1198842DBD3DA
:100E0000082D09D197F83800010705D5A05D3028D5
:100E100002D0761E3020A055C6F13C03BB61A1195B
:100E2000F960386B834208DAC31A3B624FF6EF7001
:100E3000398F01403987BDE8F38700280ED597F830
:100E4000380000F01400102808D17A6B7969386AEC
:100E5000521A121AD21A002AC8BF3A62BDE8F387A2
:100E60002DE9D04306460F4614464FF00008DFF840
:100E7000449012E0E00707D542464B4630463946DB
:100E800000F07CFA06460F464046494642464B462D
:100E900000F074FA641080468946002CEAD130468E
:100EA0003946BDE8D0830000A08601000000F03F75
:100EB00084D7974100002440F8B505460E461746F2
:100EC0001C4600205CB117F8011BB068A847B06051
:100ED00030B1F06A401CF0620020641EF3D1F2BD14
:100EE0004FF0FF30F2BD00007072696E74665F7380
:100EF0003A20256E20646973616C6C6F77656400BD
:100F00007072696E74663A2062616420256E206199
:100F10007267756D656E7400000000006E616E0092
:100F20004E414E00696E6600494E46003000F0B4F6
:100F30000246106895681318506803EB5004C00708
:100F400048BF4D44A3422DD013F8016B16F00300A7
:100F500004BF13F8010BC01C31090F2907D113F886
:100F6000011B0F3103E013F8017B05F8017B401EE4
:100F7000F9D10029E6D013F8010BC6F38106032E40
:100F800008BF13F8016B00EB0620404228440026FE
:100F9000B71E8F421EBF10F8017B05F8017B761C3F
:100FA000F6D1CFE7F0BC02F10C007047C9B202786D
:100FB0008A421AB11CBF10F8012FF9E718BF0020B0
:100FC00070470268531C03601170704780B500B908
:100FD00006A005490B681BB122220021984701E0B9
:100FE00000F0EEFA222002BD140B0228636F6E732C
:100FF000747261696E742068616E646C65723A2007
:10100000626164206D6573736167650000F10103BF
:10101000810704D010F8011B820781B1FAD1026860
:10102000A2F10131914311F0803104BF50F8042F37
:10103000F6E709BAB1FA81F100EBD100401CC01A01
:1010400070470000C9B2830706D0521E22D310F8A1
:10105000013B9942F7D11FE0083A13D302F1040291
:1010600041EA012141EA014150F8043B121F21BF2E
:101070004B40A3F1013C2CEA030C1CF0803FF3D061
:10108000C9B2001F083210F8013B521E28BF91EA76
:10109000030FF8D818BF0120401E704762B38B07BA
:1010A00008D0521E11F8013B00F8013B00F02480EB
:1010B0008B07F6D1830740F0208000BF103A07D39A
:1010C00030B4B1E83810103AA0E83810F9D230BC8A
:1010D000530724BFB1E80810A0E8081044BF51F836
:1010E000043B40F8043BD20724BF31F8022B20F820
:1010F000022B44BF0B7803707047121F17D35B009D
:1011000009D151F8043B20F8023B1B0C121F20F8B8
:10111000023BF6D20BE051F8043B00F8013B1B0AFE
:1011200020F8023B1B0C121F00F8013BF3D238BF22
:10113000121D521E24BF11F8013B00F8013BF8D8E4
:101140007047000010B5144600F002F8226010BD90
:10115000C1F30A5343B14A0012F5001F28D2A3F28B
:10116000FE32A1EB0251704750EA410C20D001F051
:10117000004C31EA0C01B1FA81F204BFB0FA80F3FD
:10118000D2180B3AB2F120032CBF00FA03F19140C0
:1011900041EA0C013EBFC2F1200C20FA0CF31943C6
:1011A0009040524240F2FD33D21A01EB0351704796
:1011B0000022704741EA030C50EA4C0C52EA0C0C36
:1011C0004FF4001C09D307D01CEB410F9CBF1CEB54
:1011D000430F8B4208BF824270471CEB430FFBD882
:1011E000994208BF9042704741EA030C50EA4C0C08
:1011F00052EA0C0C4FF4001C09D307D01CEB410F32
:101200009CBF1CEB430F994208BF904270471CEBF8
:10121000410FFBD88B4208BF8242704700B541ECBA
:10122000100B104600F004F851EC100B00BD00BF8D
:10123000020030EE101B40F2FF7C37D41CEA115341
:1012400013D063456BD09B18634504D201EB025168
:1012500020EE101B704701F0004141EA0C510020C4
:1012600041EC100BAFF30080704710EE100B50EA0A
:10127000410054D0B2F57F7F08D202EB5C01090532
:10128000002041EC110B20EE010B70474FF0FE41A6
:10129000002341EC113B20EE010BB2F57E7230EEE3
:1012A000101B4FEA410342EB5353CDE752421CEA75
:1012B000115316D0634532D09A4204D2A1EB0251A9
:1012C00020EE101B70475B1ED21AA1EB035120EEDB
:1012D000101B372A0CD3002001F0004141EC100B09
:1012E000C0E710EE100B50EA410018D0372AF2D2B6
:1012F000C2EB5C021105002041EC110BF1EE100A6B
:1013000020F01F0121F4F851E1EE101A20EE010B3C
:10131000F1EE101AE1EE100A11F0080FA2D1704799
:1013200041EC100BBDEEC00B10EE100A704700EE42
:10133000100AB8EEC00B51EC100B704741EC100BCB
:1013400043EC112B30EE410B51EC100B704741EC8C
:10135000100B43EC112B80EE010B51EC100B70477E
:1013600041EC100BBCEEC00B10EE100A704700EE03
:10137000100AB8EE400B51EC100B704741EC100B0B
:1013800043EC112B20EE010B51EC100B70470000C9
:10139000BBBBE1B1B2F5803F80F07E80022A1ED94E
:1013A0008C46B1FBF2F102FB11C31B0443EA10436C
:1013B000B3FBF2FC02FB1C3380B240EA0343B3FBF5
:1013C000F2F002FB103240EA0C4000237047022A80
:1013D00005D98446B0FBF2F002FB10C270474AB157
:1013E00005D100F0010249085FEA30007047002291
:1013F0000023704700F0E8B80B0002000021002035
:101400007047904271EB030CF6D3B3F5803F2FD2B7
:10141000F0B5B3FA83F7B1FA81F4A7F10F0E3D1BD3
:101420005340CEF1200602FA0EF2F3415340B5F1DB
:101430000F0746D80F3C2C444140C4F12006A04081
:10144000F1414140B1FBF3F603FB1611A2FB064547
:10145000001BA94102D2761E8018594180EA010280
:1014600021FA0EF362FA0EF200215A403046F0BD26
:1014700030B4B1FBF3FC03FB1C11A2FB0C45001BB9
:10148000A94103D2ACF1010C8018594130BC02468D
:101490000B46604600217047B2F1807F65D3F0B5FE
:1014A000B2FA82F7B1FA81F4C7F10F063D1B22FAB6
:1014B00006F307F1110EF24120355A40B5F10F073E
:1014C000B8D94140C4F12006A040F1414140B1FBF0
:1014D000F3FC03FB1C11A2FB0C45001BA94103D22A
:1014E000BCF1010C801859410F2F12D30F3FC903D3
:1014F00041EA5041B1FBF3F603FB1611A2FB06458E
:10150000D4EBC030A94102D2761E8018594146EA78
:10151000CC3C07B34140C7F12006B840F1414140FF
:10152000B1FBF3F603FB1611A2FB0645001BA94114
:1015300002D2761E8018594180EA010221FA0EF388
:10154000C7F1200462FA0EF20CFA07F05A402CFAA6
:1015500004F13043F0BD80EA010221FA0EF30021CC
:1015600062FA0EF260465A40F0BD8C46B1FBF2F1D1
:1015700002FB11C31B0243EA1063B3FBF2FC02FB44
:101580001C331B024CEA002043EA1063B3FBF2FC5D
:1015900002FB1C331B024CEA002043EA1063B3FB3E
:1015A000F2FC02FB1C331B024CEA002043EA1063EE
:1015B000B3FBF2FC02FB1C324CEA00200023704714
:1015C000012000F003B800007047000080B5AFF3C1
:1015D0000080024A11001820ABBEFBE72600020083
:1015E000D0F80803C005C00D704710F541710A68B6
:1015F00052F480320A6010F541710A6832F4803288
:101600000A60D0F804037047C0F840127047D0F861
:101610000802C005C00D7047D0F80802C0F3C03002
:10162000704738B505002800FFF7F1FF04002800D7
:10163000FFF7F2FF0419002C01D1012000E0002087
:10164000C0B232BD0068C0F38130002801D18020D3
:1016500000E040207047016851F000410160704790
:101660002030026861F39B620260704780B5FFF72B
:10167000B7FF02BD80B5FFF7B8FF01BD022801D357
:10168000012010E00B00DBB2042B01DB01200AE09B
:10169000DFF8203503EB8000C9B2405C824201D301
:1016A000012000E000207047F8B504000F0015008D
:1016B0001E00022C01D301202AE02A003900C9B201
:1016C0002000FFF7DBFF012801D1012020E0069870
:1016D0003900C9B202291ED1B6F5803F19D220289F
:1016E00017D24FF4C052DFF8D01463030B4403EB5E
:1016F000850313441F6866F317271F6064032144A2
:1017000001EB850111440A6860F3C7020A600020FA
:10171000F2BD0120FCE7FFB2032F1FD1B6F1807F9D
:101720001AD2202818D24FF4E052DFF88C14630349
:101730000B4403EB850313441F6807F0FF0757EAC8
:1017400006271F606403214401EB850111440A68E8
:1017500060F3C7020A60DAE70120D9E70120D7E782
:1017600000B20012C0B27047F8B505000E001700B5
:10177000280000B2FFF7F4FF04002000C0B20228E6
:1017800001D3012024E03A003100C9B22000C0B2E8
:10179000FFF774FF012801D1012019E0DFF81814C8
:1017A0002000C0B2400308442A00D2B200EB8200FD
:1017B000D0F8000CF6B266F3092067F30700E4B234
:1017C00064032144EDB201EB8501C1F8000C002057
:1017D000F2BD70B504000D001600022C01D30120EB
:1017E0001DE032002900C9B22000FFF747FF0128A1
:1017F00001D1012013E0DFF8C0136003085850F056
:10180000004050F0407050F47F00EDB265F30920C5
:1018100066F307006203885064030859002070BD16
:101820000100C020C9B2002905D0022907D004D385
:10183000032906D006E0122004E0622002E07A20AC
:1018400000E01A20C0B270470100C020C9B20029D0
:1018500005D0022907D004D3032906D006E01120C1
:1018600004E0612002E0792000E01920C0B2704756
:101870000100C020C9B2002905D0022907D004D335
:10188000032906D006E0102004E0602002E0782062
:1018900000E01820C0B270470100C020C9B2002982
:1018A0000BD002290DD00AD304290ED00BD3062960
:1018B0000FD00CD307290ED00EE013200CE014201B
:1018C0000AE0632008E0642006E07B2004E0292091
:1018D00002E01B2000E01C20C0B270470100002085
:1018E000C9B2002905D0022907D004D3032906D0A4
:1018F00006E0132004E0132002E0132000E0132090
:10190000C0B2704701000020C9B2002905D00229E9
:1019100007D004D3032906D006E0132004E01320E7
:1019200002E0132000E01320C0B270470100002045
:10193000C9B2002905D0022907D004D3032906D053
:1019400006E0132004E0132002E0132000E013203F
:10195000C0B2704701000020C9B200290BD0022993
:101960000DD00AD304290ED00BD306290FD00CD3E7
:1019700007290ED00EE013200CE013200AE01320FC
:1019800008E0132006E0132004E0132002E01320F7
:1019900000E01320C0B27047C9B2082902D0102954
:1019A00046D096E0DFF8C8130200D2B251F82220E8
:1019B000126832F440420300DBB251F823301A605F
:1019C0000200D2B251F82220D2F80022520952016C
:1019D0000300DBB251F82330C3F800220200D2B278
:1019E00051F82220D2F8002252F007020300DBB2A5
:1019F00051F82330C3F800220200D2B251F822205D
:101A0000D2F80023520952010300DBB251F823300F
:101A1000C3F800230200D2B251F82220D2F80023EA
:101A200052F00702C0B251F82000C0F8002350E085
:101A3000DFF83C130200D2B251F82220126832F4CF
:101A400040420300DBB251F823301A600200D2B2E8
:101A500051F82220126852F480420300DBB251F8A0
:101A600023301A600200D2B251F82220D2F80022AC
:101A7000520952010300DBB251F82330C3F80022AF
:101A80000200D2B251F82220D2F8002252F00F0206
:101A90000300DBB251F82330C3F800220200D2B2B7
:101AA00051F82220D2F80023520952010300DBB280
:101AB00051F82330C3F800230200D2B251F822209B
:101AC000D2F8002352F00F02C0B251F82000C0F843
:101AD000002370472DE9F04104000F001600082193
:101AE0002000C0B2FFF758FFDFF888522000C0B2D4
:101AF000285C08280FD02000C0B2285CC010DFF896
:101B0000781211EBC01101202200D2B2AA5C12F0AF
:101B1000070290400860DFF85882FFB239002000C9
:101B2000C0B258F82000FFF76FFD2000C0B258F88F
:101B30002000FFF787FD07002000C0B258F8200002
:101B4000FFF765FD8742F0D0F6B231002000C0B249
:101B500058F82000FFF758FD2000C0B258F82000C8
:101B6000FFF770FD06002000C0B258F82000FFF714
:101B70004EFD8642F0D02000C0B258F82000FFF79A
:101B800050FD0028F7D02000C0B2285C08280ED0F5
:101B90002000C0B2285CC010DFF8E01111EBC011CA
:101BA0000120E4B22A5D12F0070290400860BDE80F
:101BB000F08100001C5A081000000440F8B5040031
:101BC0000D00002008212000C0B2FFF7E5FE694E9D
:101BD0002000C0B2305C08280ED02000C0B2305CBB
:101BE000C010654911EBC01101202200D2B2B25CD5
:101BF00012F00702904008605D4FEDB2290020000E
:101C0000C0B257F82000FFF7FFFC2000C0B257F821
:101C10002000FFF72BFD0028F7D02000C0B257F8B6
:101C20002000FFF727FD00212000C0B257F8200058
:101C3000FFF7EAFC2000C0B257F82000FFF7F1FCE4
:101C40000028F7D02000C0B257F82000FFF70EFDA3
:101C50000028F7D02000C0B257F82000D0F8400389
:101C60002100C9B2715C08290ED02100C9B2715C93
:101C7000C910DFF8082112EBC1120121E4B2335D73
:101C800013F0070399401160C0B2F2BD2DE9F8438B
:101C900080460D0016001C0008214046C0B2FFF728
:101CA0007BFE344F4046C0B2385C08280ED0404618
:101CB000C0B2385CC010304911EBC011012042465F
:101CC000D2B2BA5C12F0070290400860DFF8A09030
:101CD000EDB229004046C0B259F82000FFF794FC4D
:101CE0004046C0B259F82000FFF7C0FC0028F7D0EA
:101CF0004046C0B259F82000FFF7BCFC0021404626
:101D0000C0B259F82000FFF77FFC4046C0B259F836
:101D10002000FFF786FC0028F7D04046C0B259F8F3
:101D20002000FFF7A3FC0028F7D04046C0B259F8C6
:101D30002000D0F840033070761C641E002CDDD1EA
:101D40004046C0B2385C08280FD04046C0B2385C6C
:101D5000C0100A4911EBC01101205FFA88F817F88A
:101D6000082012F0070290400860BDE8F1830000EF
:101D7000F8060228100B0228040031400800314008
:101D80002DE9F04F9DB004000D001E0092000023CD
:101D9000A1480021FFF7FCFA0700342100220DF1D1
:101DA0000408404600F03EF93C2100220DF13808BD
:101DB000404600F037F920003100C0B2C9B2884275
:101DC00001D1012000E00020DDF89890DFF84CA25E
:101DD0004FF464725146C0B200F0F0FA3000494648
:101DE000C0B2C9B2884201D1012000E00020DDF874
:101DF0009C8040F291325146C0B200F0DFFA0620DA
:101E000002904846C0B2FFF77DFD8DF80C004846B1
:101E1000C0B2FFF719FD82465FF0080B4846C0B21A
:101E2000FFF712FDDFF8F89101AA9AFBFBF10BFB1B
:101E300011AA5146C0B2C010C001484400F0DBFBFB
:101E4000062002903000C0B2FFF748FD8DF80C006C
:101E50003000C0B2FFF7E4FC82465FF0080B3000B0
:101E6000C0B2FFF7DDFC01AA9AFBFBF10BFB11AA44
:101E70005146C0B2C010C001484400F0BCFB40460F
:101E8000C0B204281ED0082002904046C0B2FFF71E
:101E90004DFD8DF80C004046C0B2FFF7E9FC06008E
:101EA0005FF0080A4046C0B2FFF7E2FC01AA96FBC9
:101EB000FAF10AFB11663100C0B2C010C0014844FB
:101EC00000F099FB289E3000C0B208281ED00620E2
:101ED00002903000C0B2FFF73DFD8DF80C003000DD
:101EE000C0B2FFF7D9FC80465FF0080A3000C0B2EC
:101EF000FFF7D2FC01AA98FBFAF10AFB11884146D0
:101F0000C0B2C010C001484400F075FB2000C0B250
:101F1000032803D22000C0B2401C00E000202200B1
:101F2000D2B2521D032110F58F7000B2FFF71CFCD6
:101F30002000C0B2032803D22000C0B2401C00E041
:101F4000002010F58F7000B2FFF70AFC17F01F0198
:101F50000091C7F357132200D2B2521D0321C0B221
:101F6000FFF7A2FB2000C0B2032803D22000C0B2BA
:101F7000401C00E0002010F58F7000B2FFF7F0FB6E
:101F80002200D2B2521D0321C0B2FFF722FCEDB2F3
:101F9000002D05D0022D09D005D3032D09D00AE06C
:101FA0000020109007E00120109004E00220109023
:101FB00001E00320109001200E9000200F900420DB
:101FC0001190082012900820139001208DF85000E5
:101FD00001208DF853000F4D00220EA92000C0B241
:101FE00055F8200000F046FB00212000C0B255F853
:101FF0002000FFF735FB2000C0B255F82000FFF7A6
:102000002AFB0348E4B206551DB0BDE8F08F00007E
:10201000100B0228F80602280080969888560810AF
:102020000000314062F30F2262F31F42401810F0AB
:10203000030308D0C91A1FD3DB0748BF00F8012DDE
:1020400028BF20F8022D130030B41446154610396D
:1020500028BF20E93C00FAD8490728BF20E90C0036
:1020600048BF40F8042D890028BF20F8022D48BF42
:1020700000F8012D30BC7047C91818BF00F8012DB9
:10208000CB0728BF00F8012D7047000082B0002068
:102090000190002000900020019009E00098401C71
:1020A00000900098B0F5005FF8D30198401C0190B3
:1020B0000198B0F5805F02D200200090F1E702B0F5
:1020C000704780B50100002000F0C0FD01BD2DE982
:1020D000F043ADF5137D0700884616001C00002074
:1020E000ADF802000020ADF80000002002900020B2
:1020F000ADF804000020ADF806004046FEF786FF6C
:102100000290DFF8A0532888002801D02869804772
:10211000DFF894030078002800F033812888002835
:1021200000F01181BDF90600411CADF806103A001F
:10213000010089B20020EB68984747464046FEF709
:1021400065FF02906888A97990FBF1F0ADF8040072
:102150003800471C00780028FAD10020ADF80000B4
:102160000EE07F1E38782F2802D038785C2804D102
:10217000BDF80000401CADF800000298401E02901F
:10218000BDF80000022802DA02980028E9D502987A
:10219000002806D47A1CDFF8141353A800F076FF49
:1021A0000EE0BDF80000002805D13A00C04953A850
:1021B00000F06CFF04E03A00BC4953A800F066FF51
:1021C0000020ADF8020042E0BDF80010BDF800208C
:1021D000BDF8023053AF9BB2BDF90400434313FA7C
:1021E00082F0385C43AA89B25054BDF80000401C0C
:1021F000ADF80000BDF8000080B2BDF904108842BF
:102200000EDA53A8FEF702FFBDF80020BDF8023039
:102210009BB2BDF904104B4313FA82F18842D3D22A
:10222000002043A9BDF800208854BDF90600411CD8
:10223000ADF8061043AAE97911FB00F189B200203C
:10224000EB689847BDF80200401CADF80200BDF8ED
:10225000027053A8FEF7DAFEBDF90410B0FBF1F0EE
:10226000401CBFB2874203D20020ADF80000C1E796
:102270003200904953A800F009FFBDF90600411C47
:10228000ADF8061053AAE97911FB00F189B20020DC
:10229000EB689847002C74D00020ADF8020041E0B4
:1022A000BDF80010BDF80020BDF802309BB2BDF9AA
:1022B0000400434313FA82F0205C43AA89B25054CD
:1022C000BDF80000401CADF80000BDF8000080B271
:1022D000BDF9041088420EDA2000FEF797FEBDF823
:1022E0000020BDF802309BB2BDF904104B4313FA35
:1022F00082F18842D4D2002043A9BDF8002088543E
:10230000BDF90600411CADF8061043AAE97911FB9E
:1023100000F189B20020EB689847BDF80200401C2C
:10232000ADF80200BDF802602000FEF76FFEBDF9B7
:102330000410B0FBF1F0401CB6B2864221D200205E
:10234000ADF80000C1E74FF4807100220DF10C09D7
:102350004846FFF767FE3800A9688847002C07D079
:10236000009433004246544903A800F08FFE05E074
:1023700033004246514903A800F088FE03A8A9682B
:1023800088470DF5137DBDE8F08310B54648007809
:10239000002809D04B4C2100002000F065FC0122F0
:1023A0002100474800F0F7FE10BD10B514002200D0
:1023B000D2B2002000F03BFC200010BD38B50C006C
:1023C0001500C0B2002803D13F480078002800D192
:1023D00031BD3E490878002800D0FEE70878401C4F
:1023E000087001F0E1F800232A0021003848FFF7C7
:1023F0006EFEFFF74BFEF6E710B514001A00C0B2F0
:10240000002808D128480078002804D00B002100BB
:102410003048FFF75CFE10BD002101804FF6FF71D0
:1024200041808180FF218171C17100218160002183
:10243000C1600021016170471A4902880A80428800
:102440004A8082888A8082798A71C279CA71826858
:102450008A60C268CA600069086101201249087078
:10246000704700B585B06846FFF7D6FF1A4802905E
:102470006846FFF7E1FF05B000BD80B5FFF7F1FF4B
:10248000002300225FF4E131002000F013FD40231F
:10249000124A00210A4801F01EF80121002000F034
:1024A0008AFC01BDDC0A0228250B0228EC59081021
:1024B000CC590810F8590810E45808109C59081015
:1024C000AC0A0228260B022832070228270B022812
:1024D000DC590810045A0810C32008103C0A0228CE
:1024E00030B4614B1818C009604C14EB0014042977
:1024F0000DD223681F25C8008540AB43D2B212F02D
:102500001F02C90012FA01F1194321600CE0091FF2
:1025100063681F25C8008540AB43D2B212F01F028A
:10252000C9008A401A43626030BC7047002A04D157
:10253000012212FA01F1416003E0012212FA01F1D5
:102540008160704710B48900436C0F248C40A34312
:1025500012F00F0212FA01F11943416410BC7047E6
:1025600010B4836C01248C40A34312F0010212FAD0
:1025700001F11943816410BC704710B4C36C01248D
:102580008C40A34312F0010212FA01F11943C16415
:1025900010BC704710B449001031C36C03248C4048
:1025A000A34312F0030212FA01F11943C16410BCF3
:1025B00070474269012212FA01F141614069704796
:1025C00010B4836901248C40A34312F0010212FA73
:1025D00001F11943816110BC704710B44900036CCC
:1025E00003248C40A34312F0030212FA01F11943B1
:1025F000016410BC7047F8B505000E0014000027F8
:10260000002D2ED0002C2CD0226831002800FFF79E
:102610008DFF227A31002800FFF762FF62693100E6
:102620002800FFF79DFFA26931002800FFF7A5FFF2
:10263000E26931002800FFF7ADFF62683100280031
:10264000FFF780FFE26831002800FFF7C6FF310086
:102650002800FFF7AEFF226931002800FFF7B0FF26
:1026600000E0034F3800F2BD0000CFBF0000304053
:1026700001005A002DE9F041DFF8D0311C00DFF8ED
:10268000D051D5F800C0DFF8CC512D68DFF8C86113
:102690003668DFF8C8713F685FF0000E5FF0000E2B
:1026A000002800F0D080002900F0CD804C68002C7C
:1026B00001D18C6805E04C68022C01D1002400E0B7
:1026C0000224D1F810E0D1F81480C64502D3D1F825
:1026D00010E001E0D1F814E0BEF1090F08D23CF49B
:1026E000404C91F82130002B12D05CF4807C11E03A
:1026F000BEF1110F03D2012363F38F3CF1E7BEF16A
:10270000210F03D2022363F38F3CEAE718009BE01A
:102710003CF4807CCB685B1E13F00F035FEA1C1C4B
:102720005FEA0C1C53EA0C0C012363F3196CC0F82C
:1027300000C00B7F002B01D0002300E0012363F3D6
:1027400000054B681B0963F34105CB7E63F3041559
:102750004B7E63F345150B68012B01D1012300E08B
:10276000002363F3DF7523005B0863F3820564F3E2
:10277000C3054B7F63F308258B7F63F34925CB7F2C
:1027800063F38A2591F8203063F3CB250B7913F09E
:10279000030363F3196505620B7E63F308278B7EE1
:1027A00063F349270B695B1E13F01F037F097F0149
:1027B0001F43C0F8007391F8243003F0FF0310F5B5
:1027C000417425682D0A2D022B4323600B7E63F391
:1027D00008264B695B1E13F01F03760976011E4322
:1027E000C0F8006291F82C3003F0FF0310F501747B
:1027F00025682D0A2D022B4323600B6BC0F8883F00
:102800008B6AC0F8C83F91F8383010F570642568BD
:1028100063F34925256091F8391010F574631C683D
:1028200061F3CB241C600021C0F8C81E002A09D027
:1028300000201060002090610020D0600020D06156
:102840000748106200242000BDE8F0810140AA0082
:10285000445A0810485A08104C5A0810505A081088
:10286000EFCDAB00022801D3012010E00B00DBB25A
:10287000042B01DB01200AE0DFF8CC3703EB8000FA
:10288000C9B2405C824201D3012000E000207047C1
:10289000F8B504000F0015001E00022C01D3012022
:1028A0002AE02A003900C9B22000FFF7DBFF012827
:1028B00001D1012020E006983900C9B202291ED1B9
:1028C000B6F5803F19D2202817D24FF4C052DFF856
:1028D0007C1763030B4403EB850313441F6866F303
:1028E00017271F606403214401EB850111440A6826
:1028F00060F3C7020A600020F2BD0120FCE7FFB2CE
:10290000032F1FD1B6F1807F1AD2202818D24FF49E
:10291000E052DFF8381763030B4403EB85031344DD
:102920001F6807F0FF0757EA06271F60640321446A
:1029300001EB850111440A6860F3C7020A60DAE717
:102940000120D9E70120D7E700B20012C0B27047DA
:10295000F8B505000E001700280000B2FFF7F4FFDD
:1029600004002000C0B2022801D3012024E03A0074
:102970003100C9B22000C0B2FFF774FF012801D1B5
:10298000012019E0DFF8C4162000C0B2400308445B
:102990002A00D2B200EB8200D0F8000CF6B266F347
:1029A000092067F30700E4B264032144EDB201EBB0
:1029B0008501C1F8000C0020F2BD70B504000D00C7
:1029C0001600022C01D301201DE032002900C9B2FB
:1029D0002000FFF747FF012801D1012013E0DFF8B5
:1029E0006C166003085850F0004050F0407050F4EE
:1029F0007F00EDB265F3092066F30700620388509B
:102A000064030859002070BDD0F840037047D0F827
:102A10000803C005C00D7047C0F840127047D0F8D9
:102A20000802C005C00D7047D0F80802C0F3C030DE
:102A3000704738B505002800FFF7F1FF04002800B3
:102A4000FFF7F2FF0419002C01D1012000E0002063
:102A5000C0B232BDC0F8C81F7047D0F8C80F704769
:102A6000C0F8881F7047D0F8880F7047016851F090
:102A700000410160704738B504001500C9B2002953
:102A800006D002291ED010D3042935D027D340E028
:102A9000DFF8BC05A06001202073112060734FF4A3
:102AA0008C70E0811220208239E0DFF8A805A06058
:102AB000012020731120607340F21D10E0816B2013
:102AC00020822CE0DFF89005A06001202073112007
:102AD00060734FF48E70E0816A2020821FE0DFF87F
:102AE0007C05A060022020731120607340F21B104F
:102AF000E0816920208212E0DFF86405A0600120F7
:102B00002073132060734FF48D70E0816820208261
:102B100005E07C22DFF84C150020FFF74FFCEDB2FA
:102B2000002D06D0022D1ED010D3042D35D027D372
:102B300040E0DFF81C05206000202071112060714A
:102B40004FF48C70E0811220208239E0DFF8040518
:102B50002060002020711120607140F21D10E08182
:102B60006B2020822CE0DFF8F00420600020207130
:102B7000112060714FF48E70E0816A2020821FE086
:102B8000DFF8D8042060012020711120607140F22C
:102B90001B10E0816920208212E0DFF8C40420606D
:102BA00000202071132060714FF48D70E081682047
:102BB000208205E0A822DFF8AC140020FFF7FEFB1E
:102BC00031BD10B5C0B2002806D002280AD006D305
:102BD00004280DD009D30EE0DFF88C4411E0DFF8B3
:102BE0008C440EE0DFF888440BE0DFF8884408E00E
:102BF000DFF8844405E0BD22DFF868140020FFF709
:102C0000DDFB200010BD38B50400DFF87054C9B2F8
:102C10002000C0B255F82000FFF7FEFE2000C0B231
:102C200055F82000FFF705FF0028F7D031BD70B53B
:102C300005000E00140006E031782800C0B2FFF74E
:102C4000E2FF641E761C002CF6D170BD38B504007E
:102C50000D0005E029782000C0B2FFF7D4FF6D1CFD
:102C600028780028F6D131BD70B504000D00002091
:102C7000DFF808642000C0B256F82000FFF7C7FE56
:102C8000002807D0E4B256F82400FFF7BDFE2870F4
:102C9000012000E00020C0B270BD70B505000C003E
:102CA000DFF8D8632800C0B256F82000FFF7DBFE3B
:102CB0004008400001002800C0B256F82000FFF78D
:102CC000CFFE2800C0B256F82000FFF7CCFE30F04F
:102CD000020001002800C0B256F82000FFF7C0FE35
:102CE0002800C0B256F82000FFF7BDFE30F02000EB
:102CF00001002800C0B256F82000FFF7B1FE2800FE
:102D0000C0B256F82000FFF7AEFE30F040000100E0
:102D10002800C0B256F82000FFF7A2FE2800C0B27B
:102D200056F82000FFF79FFE30F010000100280049
:102D3000C0B256F82000FFF793FE2800C0B256F844
:102D40002000FFF790FE30F4807001002800C0B230
:102D500056F82000FFF784FE2800C0B256F8200085
:102D6000FFF781FE30F4806001002800C0B256F801
:102D70002000FFF775FE002C0ED02800C0B256F8D8
:102D80002000FFF76AFE50F400700100EDB256F823
:102D90002500FFF765FE0DE02800C0B256F82000C0
:102DA000FFF75BFE30F400700100EDB256F825002D
:102DB000FFF756FE70BD70B505000C00DFF8BC6271
:102DC0002800C0B256F82000FFF747FE4008400038
:102DD00001002800C0B256F82000FFF73BFE280093
:102DE000C0B256F82000FFF738FE30F008000100AE
:102DF0002800C0B256F82000FFF72CFE2800C0B211
:102E000056F82000FFF729FE30F0200001002800CE
:102E1000C0B256F82000FFF71DFE2800C0B256F8D9
:102E20002000FFF71AFE30F4807001002800C0B2C5
:102E300056F82000FFF70EFE2800C0B256F820001A
:102E4000FFF70BFE30F4007001002800C0B256F806
:102E50002000FFF7FFFD2800C0B256F82000FFF762
:102E6000FCFD30F4006001002800C0B256F82000DC
:102E7000FFF7F0FD002C0ED02800C0B256F820005D
:102E8000FFF7EBFD50F004000100EDB256F825000D
:102E9000FFF7E0FD0DE02800C0B256F82000FFF774
:102EA000DCFD30F004000100EDB256F82500FFF71C
:102EB000D1FD70BD2DE9F841A7B005000F00160047
:102EC00028003100C0B2C9B2884201D1012000E01F
:102ED00000201C00DFF88C814FF4CE724146C0B256
:102EE000FFF76CFA28002100C0B2C9B2884201D1B4
:102EF000012000E0002040F29D124146C0B2FFF7E1
:102F00005DFA02A8142100F077FB342100220DF1B4
:102F100068084046FFF786F84C2100220DF11C0896
:102F20004046FFF77FF8FF003A0000235448002195
:102F3000FEF72EFA07002200D2B23100C9B202A871
:102F4000FFF799FD08201B909DF80D008DF870008B
:102F50001AAA9DF80C100298FFF74DFB06201B9053
:102F60009DF80D008DF870001AAA9DF814100498B1
:102F7000FFF741FB002007900820089008200990E7
:102F800002200B9000200C90002012900020149042
:102F90003A4C2800C0B254F8200000F073FC3949C4
:102FA0002A00D2B2382042430A4407A92800C0B2FE
:102FB00054F8200000F024FB2800C0B254F8200090
:102FC000FFF754FD2A00D2B20321BDF91600FFF726
:102FD000BFFCBDF91600FFF7B7FC17F01F01009109
:102FE000C7F357132A00D2B20321C0B2FFF750FC37
:102FF000BDF91600FFF7A8FC2A00D2B20321C0B227
:10300000FFF7DBFCBDF91800ADF800000320ADF8B8
:10301000020001208DF8040007221B482900C9B2D4
:1030200050F82110684600F0CBFA00212800C0B209
:10303000FFF7C1FE00212800C0B2FFF72EFE28B026
:10304000BDE8F081000000001C5A08100000044098
:10305000000031400002314000053140800831401D
:1030600000073140EC560810000060400000654049
:103070000000644000006340000062401C0702281A
:103080000080969834070228080702280CB430B54F
:1030900083B00A4606A902910446002501940095D2
:1030A00002AB01A9084878441E30FCF7ECFF019AF6
:1030B000157000284EBF04460198041B204603B03B
:1030C00030BC5DF80CFB00BFFBDEFFFF8268891897
:1030D000816003E082684169521A826081684269B6
:1030E0009142F7D27047C2688918C16003E0C26894
:1030F0004169521AC260C16842699142F7D2704771
:1031000070B50400002C01D0012000E00020542202
:10311000DFF8FC13C0B2FFF751F90025207850F01A
:10312000010020700020A0600020E0606069206144
:103130006078002803D0022810D007D315E0616919
:10314000002266683000FEF76DFF0EE061694900FD
:10315000002266683000FEF765FF06E061698900BD
:10316000002266683000FEF75DFF00202070280016
:10317000C0B270BD10B50400002C01D0012000E0E9
:1031800000207022DFF88813C0B2FFF717F96069DA
:103190002169401A10BD2DE9F84305001600002DE5
:1031A00001D0012000E000200C00AA22DFF860130B
:1031B000C0B2FFF703F900270020002C01D103273C
:1031C000B5E0287810F0050F01D00427AFE028788B
:1031D00050F0040028702869B042C0F0A380D5F8F0
:1031E0001480A868B8EB0008B04567D2687800285A
:1031F00003D0022841D01FD390E0424621006868E6
:10320000AB6800EB03094846FDF748FF414628003C
:10321000FFF75CFFB6EB080204EB08016868AB68D7
:1032200000EB03042000FDF739FFB6EB0808414628
:103230002800FFF74BFF71E05FEA48022100686851
:10324000AB6800EB43094846FDF728FF41462800DC
:10325000FFF73CFFB6EB0802520004EB4801686838
:10326000AB6800EB43042000FDF718FFB6EB08083D
:1032700041462800FFF72AFF50E05FEA880221005C
:103280006868AB6800EB83094846FDF707FF4146D5
:103290002800FFF71BFFB6EB0802920004EB880141
:1032A0006868AB6800EB83042000FDF7F7FEB6EB1F
:1032B000080841462800FFF709FF2FE0687800283A
:1032C00003D002281DD00ED328E032002100686808
:1032D000AB6800EB03042000FDF7E0FE310028009E
:1032E000FFF7F4FE1AE0720021006868AB6800EB9B
:1032F00043042000FDF7D2FE31002800FFF7E6FE70
:103300000CE0B20021006868AB6800EB8304200089
:10331000FDF7C4FE31002800FFF7D8FE2869861BA0
:103320002E6100E00527287810F0FB002870380097
:10333000C0B2BDE8F2832DE9F04705000E001F0082
:10334000002D01D0012000E000201400DFF8C08132
:1033500040F25B124146C0B2FFF730F8002C01D0BA
:10336000012000E000204FF4AE724146C0B2FFF7EA
:1033700025F85FF0000800200020002E02D15FF049
:1033800003088BE0297811F0030F03D020605FF071
:1033900006089CE02800FFF7EDFE2168884209D26C
:1033A00020605FF00708002804D1287810F0F700AB
:1033B00028708CE0287850F008002870D5F8149018
:1033C000E868B9EB00092068814522D368780028B5
:1033D00003D0022813D008D35CE022686868E9684B
:1033E00001443000FDF75AFE54E02268520068683C
:1033F000E96800EB41013000FDF750FE4AE0226829
:1034000092006868E96800EB81013000FDF746FE34
:1034100040E06878002803D0022827D011D339E093
:103420004A466868E9680144B2465046FDF736FEF0
:103430002268B2EB090269684E443000FDF72EFEA7
:1034400028E05FEA49026868E96800EB4101B2469A
:103450005046FDF723FE2268B2EB0902520069686C
:1034600006EB49063000FDF719FE13E05FEA89021A
:103470006868E96800EB8101B2465046FDF70EFE30
:103480002268B2EB09029200696806EB89063000F7
:10349000FDF704FE287810F0F7002870FFB2002F27
:1034A00015D128780B2802D15FF002080FE02878A8
:1034B00050F00200287021682800FFF714FE2969E7
:1034C000206841182961287810F0FD0028704046D6
:1034D000C0B2BDE8F087F8B504000E0017001D006B
:1034E000002C01D0012000E000204FF407720849B1
:1034F000C0B2FEF763FF0020676000212170667094
:103500000021A1600021E16025616561C0B2F2BDCA
:1035100024560810010009B2002908D4012210F035
:103520001F018A401B4900B2400941F82020704722
:10353000010009B2002908D4012210F01F018A40BD
:10354000154900B2400941F820207047020012B22C
:10355000002A04D44901114A00B2115407E049017C
:103560000F4A00B210F00F00104400F8041C70471E
:10357000002800D162B60B480168491C0160704701
:1035800072B608490868002802D00868401E086022
:103590000868704700E100E080E200E000E400E03D
:1035A00018ED00E00C0B022880B5FFF7E9FF00F0F2
:1035B000B1F901BD80B5C9B200B2FFF7C7FF01BDC7
:1035C00070B504000D001600200000F0B3F92900CA
:1035D000B4F9000000F0EDF93100C9B2B4F902000D
:1035E000FFF7E8FFB4F90200FFF7A2FFB4F9020009
:1035F000FFF790FF70BD0000002200F0F1B900005D
:103600002DE9F44FDFF8D822DFF8D8321B68DFF855
:10361000D8422468DFF8D4522D68DFF8D4623668C7
:10362000DFF8D0723F68DFF8D0C2DCF800C0DFF806
:10363000CCE2DEF800E0DFF8C882D8F80080DFF8DE
:10364000C492D9F80090DFF8C0A2DAF800A00028F0
:1036500000F01581002900F012810A68022A06D1C3
:1036600091F82620002A02D15FF0000B03E0D1F888
:1036700004B0BBF1010B91F82420002A01D00122F3
:1036800000E0002262F3104333F440436BF3030382
:10369000022262F3196303600A7812F0030262F3F4
:1036A0001964046491F82520002A01D0012200E069
:1036B000002262F38615CA7E002A01D0012200E0B2
:1036C000002262F38A254A7E002A01D0012200E00E
:1036D000002262F308258A7E002A01D0012200E040
:1036E000002262F349258A6B521E12F00F0262F328
:1036F00013450A69521E12F00702ED08ED0015434A
:103700004A6962F304154A69520862F345158564F3
:103710000A7B002A01D0012200E0002262F3082681
:103720000A7E002A01D0012200E0002262F349262D
:103730008A68521E12F01F02760976011643C0F8FD
:1037400000630A7F02F0FF023F0A3F02174391F82D
:10375000202002F0FF0262F31747C0F8107391F8BF
:103760002720002A01D0012200E0002262F3082C69
:103770000A69521E12F007025FEADC0C5FEACC0C09
:1037800052EA0C0C4A6962F3041C4A69520862F35B
:10379000451CC0F844C00A7B002A01D0012200E089
:1037A000002262F3082E8A68521E12F01F025FEA9E
:1037B0005E1E5FEA4E1E52EA0E0E0A68012A01D111
:1037C000012200E0002262F3104EC0F800E291F8FE
:1037D0003C2002F0FF025FEA18285FEA082852EA5C
:1037E0000808C0F8048391F82820002A01D001229B
:1037F00000E0002262F35969CA6A012A01D101225C
:1038000000E0002262F318694A6B012A01D101230A
:1038100000E00023009A63F3104991F8303003F080
:10382000FF035FEA19295FEA092953EA0909C0F889
:10383000509091F8443003F0FF035FEA1A2A5FEAE0
:103840000A2A53EA0A0AC0F804A28B6CC0F8883F1F
:10385000096CC0F8C81F002A10D00020506000205A
:103860001060002090600020D060002010620020D6
:10387000D06200201063DFF8940050630022100033
:10388000BDE8F28FDFF8881001605FF44011016439
:103890000021816440F20711C0F800130022C0F833
:1038A00004230022C0F8102300224264C0F8001252
:1038B0000021C0F80412002101650021C0F8C81ED3
:1038C0000021C0F8881E0021C0F8C81F0021C0F8E0
:1038D000881F0021C0F8081F0021C0F8481F70474A
:1038E0000160AA00545A0810585A08105C5A08106F
:1038F000605A0810645A0810685A08106C5A081068
:10390000705A0810745A0810785A0810EFCDAB009E
:103910000F000003002007E00549C2018A5822F089
:103920000042C301CA50401C3F28F5DB704700002D
:103930000000584030B40021234A1368234A146819
:10394000002832D0224A1568C5F303250E2D0FD06A
:103950001268C2F303220D2A28D1827812F00F02D6
:103960002409240114430279002A15D0012214E00D
:10397000827812F00F021B091B0113430279002AFF
:1039800001D0012200E0002262F3DF73114AB0F996
:10399000000042F8203009E0002262F3DF740E4A92
:1039A000B0F9000042F8204000E00649080030BCB1
:1039B00070470A4B1A68002A03D01A6800B242F80E
:1039C00020107047010056007C5A0810805A0810D9
:1039D0000000204000A0204000C02040EC0602284B
:1039E00000B500BF130096469446103928BFA0E8E2
:1039F0000C50FAD85FEA417C28BF0CC048BF40F8A1
:103A0000042BC90728BF20F8022B48BF00F8012B60
:103A100000BD0000DFF8C4110868C0F340000028B2
:103A200001D0022002E0086810F001007047DFF8C2
:103A3000B001006810F0010070470000C21E022AA9
:103A400001D3012002E0C01E0860002070471CB5B1
:103A5000FF246946FFF7F2FFC0B2002802D0200021
:103A6000C0B207E0DFF8FC01009950F8210010F027
:103A70000100C0B216BD0000002801D0032801D308
:103A8000012002E0401E0860002070471CB5FF24A2
:103A90006946FFF7F1FFC0B2002802D02000C0B293
:103AA00008E0DFF8C401009909010844C06810F07B
:103AB0000100C0B216BD0000DFF8BC01006880083C
:103AC00010F00100704738B504002000C0B208288B
:103AD00011D3DFF898511822DFF89411280000F074
:103AE0000DFC0020E87540F65B00DFF888110860E7
:103AF000002000F03BFCDFF8CC112000C0B251F8F0
:103B00002000C0F30020002805D0E4B251F82400C2
:103B100010F00F0000E0FF2032BD38B50400200097
:103B2000C0B2082811D3DFF844511822DFF8401141
:103B3000280000F0E3FB0020E8754FF40960DFF88F
:103B400034110860002000F011FCDFF87801E4B2C5
:103B500050F82400C0F30110C0B232BDDFF8682174
:103B60001368C3F3072303601068C0F3C400086040
:103B70007047DFF858211368C3F307230360106808
:103B8000C0F3C4000860704738B50400072C11D397
:103B9000DFF8D8501822DFF8C411280000F0AEFB7F
:103BA0000020E8754FF4CE70DFF8C81008600020E0
:103BB00000F0DCFBDFF8A00150F8240010F0070053
:103BC000010009B2042907D1DFF8880150F8240068
:103BD00010F01F0050F4807000B232BD2415264052
:103BE00040152640DFF8B01209688A03920B026084
:103BF000090E11F00101C171DFF8A01209680A0075
:103C0000D204D20C82800A00120C02F0FF02028160
:103C1000090C01F0FF014181DFF84411096811F03E
:103C20000F0202730A00C2F3031242730A00120A5F
:103C3000D204D20CC281090F11F003010174DFF824
:103C4000641309680A00120A12F0070282710A005E
:103C5000120CD205D20D4282890F11F001010175BB
:103C6000704700004016264000192640940A02289A
:103C7000D4540810F00A0228100027401CB50C008C
:103C80006946FFF7DBFE0100C9B2002901D0C0B2CE
:103C900017E0DFF8B404009950F8210010F07F011C
:103CA0002160C0F304216160C0F30441A160010000
:103CB000090F11F003016173C00E10F001002073B1
:103CC000002016BD40122640080020400804204075
:103CD0001CB50C006946FFF7CFFE0100C9B20029F0
:103CE00001D0C0B235E0DFF8101500980001085887
:103CF00000F0FF022260C0F304226260C0F30442BD
:103D0000A260000F10F00300207300980001084427
:103D100042681000C00F6073C2F30270002801D027
:103D2000012000E00020A07322F07F422261009871
:103D30000001084480680100C90F21750100090EC7
:103D400011F001016175A075000C10F00700E0751D
:103D5000002016BD000126400012264048550810DC
:103D60003815264080B50100DFF868051822FDF7F8
:103D7000A5F90120DFF860150870002002BDDFF80A
:103D80005C150968C90F002908D0DFF84C150978BF
:103D9000002907D100210160032070470021016044
:103DA0000320FAE7DFF82C15096801600020F4E72A
:103DB00010B50400FFF72EFE002803D1002020607C
:103DC00003200DE0DFF810050078002805D0DFF8AB
:103DD000040580682060002002E0002020600320AD
:103DE00010BD0000DFF8F0140978002905D0DFF8D5
:103DF000E41449680160002002E000210160032012
:103E00007047DFF8DC140968C90F002908D0DFF813
:103E1000C8140978002907D10021016003207047E8
:103E2000002101600320FAE7DFF8A814C9680160E7
:103E30000020F4E7DFF8AC140968C90F002908D0A6
:103E4000DFF894140978002907D1002101600320CC
:103E50007047002101600320FAE7DFF87814096950
:103E600001600020F4E710B50400FFF725FE0028EC
:103E700003D10020206003200DE0DFF85C0400780F
:103E8000002805D0DFF84C0440692060002002E0E3
:103E900000202060032010BD301526403415264038
:103EA00010B50C00C0B2FFF76FFE00280ED001283D
:103EB00010D0022812D0B0F5887F13D040F2111133
:103EC000884213D0B0F58A7F14D017E02000FFF7A6
:103ED00056FF16E02000FFF785FF12E02000FFF7F5
:103EE00067FF0EE02000FFF78CFF0AE02000FFF7DD
:103EF000BAFF06E02000FFF79DFF02E000202060EF
:103F0000032010BD80B501000020FFF7C9FF02BDEE
:103F100080B50322D2B2824203D200200860012081
:103F200003E0401CC0B2FFF7BBFF02BD18B587B06D
:103F300004006846FFF7E6FF0100C9B2002903D07C
:103F400000212160C0B22BE001A8FFF74BFE9DF8D5
:103F50001400022803D100982060002020E0DFF840
:103F600088030068C00F002808D0FFF760FDC0B2CA
:103F7000002807D100202060032011E00098206075
:103F800000200DE0009901984143BDF80800B1FB05
:103F9000F0F09DF80B10491CB0FBF1F02060002000
:103FA00008B010BD3C152640F0B58BB005000C00E4
:103FB00069462800C0B2FFF7ABFF0100C9B2002973
:103FC00003D000212160C0B2BCE02800C0B20228AA
:103FD0004CD307A92800C0B2401CFFF74FFEC0B267
:103FE000002811D0DFF804631822DFF80413300032
:103FF00000F084F90020F07540F66310DFF8F41249
:104000000860002000F0B2F94F482900C9B200EB67
:10401000810050F8080CC00F002807D09DF8290037
:10402000022807D10098206000208BE000982060D3
:10403000002087E0EDB26D1C2800FFF708FD0100AD
:10404000C9B2002902D0C0B2FF2803D100202060ED
:10405000032077E00099079841430898B1FBF0F0FE
:104060000999B0FBF1F0206000206BE001A9280065
:10407000C0B2401CFFF72CFEC0B2002811D0DFF800
:104080006C621822DFF86812300000F037F9002067
:10409000F07540F67F10DFF85C120860002000F039
:1040A00065F955482900C9B209014058C00F0028D8
:1040B00007D09DF81000022807D10098206000204A
:1040C00040E00098206000203CE0EDB26D1C28002C
:1040D000FFF7DCFC0100C9B2002902D0C0B2FF2802
:1040E00003D10020206003202CE09DF8110001285E
:1040F0001DD1009A0023019E00273F0647EA16279C
:1041000036060598002136184F41A6FB020106FB32
:10411000031107FB0211029A039BA3FB0223FDF785
:1041200037F9000E40EA0120090E206009E00099ED
:10413000019841430298B1FBF0F00399B0FBF1F014
:10414000206000200BB0F0BD0016264010B5032300
:10415000421E0400E4B2002C03D10800FFF7E6FE83
:104160000CE01400DBB2E4B2A34204D31000C0B2EE
:10417000FFF71AFF02E0C0B2FFF792FE10BD38B59C
:1041800005000C002800C0B2FFF79DFC0100C9B279
:10419000FF2904D12000FFF7F2FDC0B21BE0694601
:1041A000C0B2FFF7D3FF0100C9B2002903D000213C
:1041B0002160C0B20FE02800C0B2FFF7AEFCC0B271
:1041C000002805D002280BD006D303280CD00FE01E
:1041D00000982060002032BD009840082060F9E778
:1041E000009880082060F5E70098C0082060F1E79B
:1041F000002020600320EEE7001926401FB50400D0
:1042000002A90120FFF7BBFF0100C9B2002903D0BA
:1042100000212160C0B21AE0694601A8FFF79EFCA8
:1042200001980021421C71F1FF335B0143EAD26324
:1042300052010098002112184B41029800214901B7
:1042400041EAD0614001FDF7A3F82060002004B0EE
:1042500010BD1FB5040002A90120FFF790FF010067
:10426000C9B2002903D000212160C0B21AE069461A
:1042700001A8FFF77EFC01980021421C71F1FF3379
:104280005B0143EAD26352010098002112184B41AE
:1042900002980021490141EAD0614001FDF778F818
:1042A0002060002004B010BD80B5DFF84C100A6813
:1042B000C2F303220E2A07D00968C1F303210D2996
:1042C00005D1FFF7C6FF02BDFFF798FFFBE701200E
:1042D000F9E700007C0A0228240B02281815264062
:1042E000081526400C15264030152640940A022851
:1042F00048550810F00A02280000204001B58B073D
:104300001AD1830724D1121F21D351F8043BA3F102
:10431000013C2CEA030C1CF0803C04BF40F8043B39
:10432000F1E79CFA8CFCBCFA8CF1C1F118018B40CE
:10433000CB4040F8043B13E0042A09D311F8013BB9
:10434000521E00F8013B5BB18B07F7D1D9E7121D74
:104350005AB111F8013B521E00F8013B03B1F8D1EC
:1043600011001CBF0022FDF761FE01BD01BEFEE78A
:1043700080B5234A23490B6893423ED00A60224A03
:1043800012684A62214A8A6202684A6042688A6008
:104390008268CA60C2680A6102694A6142698A61C8
:1043A0008269CA61C2690A62F1EE102A12F0900FA6
:1043B00023D0174A8A62026ACA62426A0A63826A20
:1043C0004A63C26A8A63026BCA63426B0A64826B85
:1043D0004A64C26B8A64026CCA64426C0A65826C6D
:1043E0004A65C26C8A65026DCA65426D0A66826D55
:1043F0004A66C26D8A66006EC86600F00BF801BDA1
:10440000FAF9F8F7CC09022828ED00E0A4A3A2A14C
:10441000ABAAA9A8FEE70000022801D301200FE003
:104420000B00DBB2042B01DB012009E0954B03EB11
:104430008000C9B2405C824201D3012000E000202C
:104440007047F8B506000F0015001C00022E01D3BE
:1044500001201CE02A003900C9B23000FFF7DCFF60
:10446000012801D1012012E03800C0B2002811D18A
:10447000B4F5807F0CD284487603304400EB85008D
:1044800010F58050016864F30F2101600020F2BD37
:104490000120FCE7FFB2012F10D1B4F5803F0BD211
:1044A00079487603304400EB850010F5A050016890
:1044B00064F317210160E9E70120E8E70120E6E75E
:1044C00000B20012C0B27047F8B505000E00170028
:1044D000280000B2FFF7F4FF04002000C0B2022859
:1044E00001D3012023E03A003100C9B22000C0B25C
:1044F000FFF792FF012801D1012018E06249200056
:10450000C0B2400308442A00D2B200EB8200D0F8C7
:10451000000CF6B266F3092067F30700E4B2640307
:104520002144EDB201EB8501C1F8000C0020F2BD81
:1045300070B504000D001600022C01D301201CE010
:1045400032002900C9B22000FFF766FF012801D11F
:10455000012012E04C496003085850F0004050F030
:10456000407050F47F00EDB265F3092066F3070058
:104570006203885064030859002070BDF8B5040038
:104580004FF4FA504443414D414E00212878C00178
:10459000304400F048F914E02878C001304400F0BD
:1045A00044F9B842F8D33B4F3C192878C001304455
:1045B00000F03BF93F1839002878C001304400F082
:1045C00032F94CF25137BC42E6D22878C00130446F
:1045D00000F02BF98442F8D2F1BD38B594B05021E7
:1045E00000226C462000FDF71DFD2B4C002201210E
:1045F000B4F90000FFF768FFB4F90000FFF760FFAF
:10460000092300220121C0B2FFF71BFFB4F900000B
:10461000FFF756FF00220121C0B2FFF789FF5FF0CC
:10462000FF30009000208DF8040000208DF8050078
:1046300000208DF8060000208DF8080003208DF87A
:1046400044000120129001208DF807000F4C104DFE
:1046500069462078C001284400F020F82078C00185
:10466000284400F0DBF800212078C001284400F045
:10467000DAF82078C001284400F0D9F815B030BD30
:10468000000000001C5A08100000044033070228F4
:1046900000005940B03CFFFF3007022810B401224F
:1046A00091F84C30052B03D291F84D30052B01D3F6
:1046B0001000A7E0002800F0A480002900F0A180ED
:1046C000514A12684B7963F392428B7913F00303DA
:1046D00063F311420B7A13F0070363F31A62CB7989
:1046E00063F39E720B7D63F3000291F8243063F351
:1046F000410202600A7910F130031C6862F307047A
:104700001C604A79012A0BD18A79002A02D1002241
:10471000826007E08A79012A04D10A68826001E098
:1047200001228260CA6802610A694261CA698261C3
:104730000A6AC2610A680262344A12680B7E03F098
:10474000FF03120A12021A4391F8303003F0FF03FC
:1047500063F3174291F8403003F0FF0363F31F62E5
:1047600091F8483003F0FF0363F30F224264284AB4
:10477000126891F8383003F0FF03120A12021A434C
:1047800091F8283003F0FF0363F30F228264214A7B
:1047900012688B7D13F00303920892001A4391F87C
:1047A000253013F0030363F38B2291F82C3013F0C0
:1047B000030363F3051291F8343013F0030363F33A
:1047C000092291F83C3013F0030363F3871291F848
:1047D000443013F0030363F38302C2640E4A126889
:1047E00091F84C3013F00703D208D2001A4391F825
:1047F0004D3013F0070363F306124265497D81676C
:104800000022100010BC7047845A0810885A081003
:104810008C5A0810905A0810945A0810016851F0E8
:104820000041016070478160704780687047403088
:10483000016851F0100101607047000038B500F0C8
:1048400077F900F042F800F0C9F871490868800370
:1048500012D4BFF34F8FBFF36F8F00206D4A1060EB
:10486000BFF34F8FBFF36F8F086850F400300860BC
:10487000BFF34F8FBFF36F8F0868C00324D40020AD
:10488000654A1060BFF34F8F64480268C2F34E332D
:10489000C2F3C90443F6E07010EA431050EA847092
:1048A0005F4D28602000441E0028F3D11800431EED
:1048B0000028EDD1BFF34F8F086850F480300860B6
:1048C000BFF34F8FBFF36F8F31BD70B586B06846B1
:1048D00054491822FCF7F2FB00200AE06946020066
:1048E000D2B201EBC2014968491C11F0070F0DD18A
:1048F000401C0100C9B2032909D269460200D2B2A4
:1049000011F8321011F0070FE8D0FEE7FEE7464C31
:10491000207810F0070F00D0FEE7444D2868401CB7
:1049200010F0070F00D0FEE7002622E068463100B5
:10493000C9B200EBC10041683000C0B252F830008B
:1049400000F043F814E000200028EFD02168491E51
:104950003000C0B252F8300000F037F8684631003D
:10496000C9B200EBC10041682868401C00F02DF876
:10497000761C3000C0B2032825D26A463000C0B28F
:1049800052F83000002813D020683100C9B252F824
:10499000311088420AD368463100C9B200EBC10029
:1049A00040682168884201D30120CDE70020CBE791
:1049B00068463100C9B200EBC100406821688842F6
:1049C000C1D30120C0E706B070BD0022002302E081
:1049D000C0E9002308308842FAD3704730B4144845
:1049E00080081449144A002308E01C00E4B252F87D
:1049F00024401D00EDB241F825405B1C1C00050061
:104A0000E4B2EDB2AC42F0D30C48016030BC704768
:104A100014ED00E050EF00E084ED00E080ED00E0F8
:104A200060EF00E06C5908107053081074530810C0
:104A300080000000800B02280000081008ED00E054
:104A400010B5002042490860BFF34F8F414801680C
:104A5000C1F34E32C1F3C90343F6E07010EA4210CD
:104A600050EA83703C4C20601800431E0028F3D1AC
:104A70001000421E0028EDD1BFF34F8FBFF36F8FA0
:104A8000BFF34F8FBFF36F8F002034490860BFF32F
:104A90004F8FBFF36F8F00F001F810BD38B586B0AF
:104AA00068462F491822FCF709FB6846FFF75AF9B8
:104AB000C0B200280DD02B4C18222B492000FFF744
:104AC0001DFC0020E0754E20284908600020FFF7FB
:104AD0004DFC274D2800FFF7E7FBC0B200280DD0A2
:104AE000204C182220492000FFF708FC0020E07528
:104AF00050201E4908600020FFF738FC1D49286837
:104B000008600A681C4882181C48B2FBF0F01C4A76
:104B100010601C48096801F2E7314FF47A72B1FB6A
:104B2000F2F101600068C0031749086007B030BDAA
:104B300080B500F02DF815490A6852F470020A6039
:104B4000BFF34F8FBFF36F8F00F026F801BD000059
:104B500084ED00E080ED00E074EF00E050EF00E055
:104B600084590810940A02285C540810F00A02289C
:104B7000F40A0228F80A02283F420F0040420F00C0
:104B8000000B0228FC0A0228040B022888ED00E032
:104B9000EFF3108072B6704780F310887047000002
:104BA00080B50A000821684B1960D2B20100C9B271
:104BB0000220FCF78FFF08206449086001BD80B522
:104BC00001000820604A106051F08001C9B2022043
:104BD000FCF7F4FF08215D4A1160C0B202BD10B5B8
:104BE00013000822584C22600A0050F08000010097
:104BF000C9B20220FDF74AF808205449086010BDE8
:104C000070B50020002500263000461C80B2B0F5AB
:104C1000807F0ADA0F20FFF7D2FF04000120FFF7A0
:104C2000ADFCE4B26B2CEFD100E001252800C0B24E
:104C300070BDE0B5062269462820FFF7D0FF9DF839
:104C400001009DF8001051EA0021414801809DF8C3
:104C500003009DF8021051EA00213E4801809DF8B2
:104C600005009DF8041051EA00213B48018007BD72
:104C7000E0B5062269462220FFF7B1FF9DF801004A
:104C80009DF8001051EA0021344801809DF803008E
:104C90009DF8021051EA0021314801809DF805007D
:104CA0009DF8041051EA00212E48018007BD000044
:104CB0001FB500241420FFF761FC08200290022099
:104CC0000190022000900223274A00210220FDF7D4
:104CD00057F80323012201217B2000F08CF8FFF715
:104CE0008FFF002808D040F20D13204A20490020F1
:104CF000FDF782FB012423E003210D20FFF750FF85
:104D00003C211020FFF74CFF5C211120FFF748FFEA
:104D100044211220FFF744FF02211320FFF740FF38
:104D200000211420FFF73CFF00211520FFF738FF7A
:104D300000211620FFF734FF01211820FFF730FF74
:104D40002000C0B204B010BD840731408807314054
:104D50001E0B0228200B0228220B0228180B022807
:104D60001A0B02281C0B022880969800BC550810CC
:104D700000590810012212FA01F1816070470122E6
:104D800012FA01F141607047012212FA01F1C1608B
:104D9000704780B5C9B200290ED00100C9B20822FF
:104DA00091FBF2F302FB1311354AC0B2C010C001EF
:104DB0001044FFF7DFFF0DE00100C9B2082291FBAC
:104DC000F2F302FB13112E4AC0B2C010C00110440E
:104DD000FFF7D5FF01BD80B50100C9B2082291FBE4
:104DE000F2F302FB1311264AC0B2C010C0011044F6
:104DF000FFF7CAFF01BD2DE9F8418DB004000E0098
:104E000015001F0034210022E8464046FDF70AF94C
:104E1000F6B2002E0ED1FFB2002F02D0022F03D027
:104E200005E00F2001900DE0082001900AE0082025
:104E3000019007E0FFB2042F02D10F20019001E0A2
:104E40000E2001902000C0B2C0280FD02100C9B2AE
:104E500008206A4691FBF0F300FB13110848230079
:104E6000DBB2DB10DB011844FDF7C5FB2900C9B23A
:104E70002000C0B2FFF78DFF0EB0BDE8F08100004A
:104E800000003140010009B2002908D4012210F0CD
:104E90001F018A404F4900B2400941F82020704765
:104EA000FEE780B54C4800684C4801680800C00F18
:104EB000002805D04A488905890D50F8210080470F
:104EC0000020FFF7DFFF01BD80B546480068464877
:104ED00001680800C00F002805D041488905890DE8
:104EE00050F8210080470120FFF7CCFF01BD80B5BD
:104EF0003E4800683E4801680800C00F002805D001
:104F000037488905890D50F8210080470220FFF7B6
:104F1000B9FF01BD80B5374800683748016808000F
:104F2000C00F002805D02E488905890D50F82100B2
:104F300080470320FFF7A6FF01BD80B52F4800681A
:104F40002F4801680800C00F002805D024488905B3
:104F5000890D50F8210080470420FFF793FF01BD21
:104F600080B528480068284801680800C00F00285C
:104F700005D01B488905890D50F821008047052080
:104F8000FFF780FF01BD80B5204800682048016818
:104F90000800C00F002805D011488905890D50F878
:104FA000210080470620FFF76DFF01BD80B519483D
:104FB0000068194801680800C00F002805D008489B
:104FC0008905890D50F8210080470720FFF75AFF17
:104FD00001BD000080E200E0245A081000012040DA
:104FE00000000228285A0810040120402C5A0810FA
:104FF00008012040305A08100C012040345A081093
:1050000010012040385A0810140120403C5A081062
:1050100018012040405A08101C012040D0F8C80F49
:105020007047C0F8C01FD0F8C00F7047D0F8880F85
:105030007047C0F8801FD0F8800F704780B50020FF
:10504000FDF7BFFDFFF7EAFF400708D50020FDF799
:10505000B8FD0421FFF7E5FFFDF797F90DE000200B
:10506000FDF7AFFDFFF7E2FF800506D50020FDF755
:10507000A8FD4FF40071FFF7DCFF01BD80B50120F2
:10508000FDF79FFDFFF7CAFF400709D50120FDF797
:1050900098FD0421FFF7C5FF3948006880470DE0FF
:1050A0000120FDF78EFDFFF7C1FF800506D5012029
:1050B000FDF787FD4FF40071FFF7BBFF01BD80B521
:1050C0000220FDF77EFDFFF7A9FF400708D502206B
:1050D000FDF777FD0421FFF7A4FF00F055F80DE080
:1050E0000220FDF76EFDFFF7A1FF800506D5022027
:1050F000FDF767FD4FF40071FFF79BFF01BD80B521
:105100000320FDF75EFDFFF789FF400706D503206A
:10511000FDF757FD0421FFF784FF0DE00320FDF7A5
:1051200050FDFFF783FF800506D50320FDF749FDFD
:105130004FF40071FFF77DFF01BD80B50420FDF73E
:1051400040FDFFF76BFF400709D50420FDF739FD4F
:105150000421FFF766FF0B48006880470DE004203C
:10516000FDF72FFDFFF762FF800506D50420FDF750
:1051700028FD4FF40071FFF75CFF01BD0000000047
:10518000F0060228F40602281FB5002001904048CE
:105190000078002868D004E0012269463D48FDF708
:1051A000FAFF69460220FDF75FFD0028F4D19DF863
:1051B00000000A2858D106200190364C012301AA8C
:1051C00002A92000FEF7B7F8032228A10DF10B0079
:1051D00000F064F8002810D12748017802293DD05A
:1051E000012101702000FDF7C5FF0190002301AAF5
:1051F00022492000FEF79FF830E003221CA10DF1A8
:105200000B0000F04BF8002810D11D48017802294E
:1052100024D0012101702000FDF7ACFF0190002394
:1052200001AA18492000FEF786F817E0032211A111
:105230000DF10B0000F032F800280FD11248017870
:1052400002290BD0012101702000FDF793FF01908E
:10525000002301AA0D492000FEF76DF82000FDF79C
:105260004FFF01200C4908701FBD0000524D430044
:1052700047474100544853002B0B0228CC08022812
:105280002A0B02284C0802282C0B02284C09022861
:10529000290B0228C40A0228280B02288AB10B789D
:1052A00090F800C09C4506D110F8013B4BB1491C59
:1052B000521EF4D105E002D24FF0FF3070470120BA
:1052C000704700207047000072B61D4908684FEA19
:1052D000102000F00F000E2808BF1A490D2808BF43
:1052E0001949072808BF1949082808BF184908683C
:1052F00020F00B0008600868BFF34F8F154816496F
:105300000860BFF34F8F1549086840F00700086038
:105310001349086840F007000860BFF34F8FBFF3E0
:105320006F8F00200021124AE2E802016A45FBD19A
:105330000C4FB8470C4FB8470C4FB847FEE700007A
:10534000000020400C0020400C0420400C082040AD
:105350000C0C20400000081008ED00E090EF00E089
:1053600094EF00E03D480810E15708103959081043
:1053700000FF0728FFFF072880B51D4800F04CF804
:10538000FDF77BF80323012201219820FFF733FD6D
:1053900005E0184800F04EF89820FFF71CFDFFF7D5
:1053A00087FC0028F5D1FFF744FCFFF761FC1248A9
:1053B000B0F900301148B0F900201148B0F90010E0
:1053C000104800F037F81048B0F900300F48B0F935
:1053D00000200F48B0F900100E4800F02BF898207C
:1053E000FFF7F9FC4FF47A70FFF7C8F8DBE700BF6E
:1053F00080B2E60E54590810220B0228200B022816
:105400001E0B0228885708101C0B02281A0B0228B2
:10541000180B0228B457081080B505490860FFF73B
:105420000FFBFFF7DAF80020FEF7A2F801BD00003D
:10543000080B02280EB4C0B5024603A80021019053
:10544000009101AB0121044878440C30FAF71BFEAF
:1054500006BC5DF810FB00BF5D050000433A5C53DD
:105460006F75726365747265655C4359543442426A
:10547000375F4C6962726172795C4578616D706CFE
:10548000655C4D6F74686572626F6172645F4465DC
:105490006D6F5C45345F696D755C6C6962726172D9
:1054A0006965735C73646B5C747669696268346D9A
:1054B0005C7372635C73797374656D5C7379737418
:1054C000656D5F747669696268346D5F636D372EF0
:1054D00063000000433A5C536F75726365747265D4
:1054E000655C435954344242375F4C696272617261
:1054F000795C4578616D706C655C4D6F7468657240
:10550000626F6172645F44656D6F5C45345F696DA5
:10551000755C6C69627261726965735C73646B5C03
:10552000747669696268346D5C7372635C64726915
:10553000766572735C737973636C6B5C63795F73AC
:105540007973636C6B2E6800433A5C536F757263BA
:1055500065747265655C435954344242375F4C69E7
:1055600062726172795C4578616D706C655C4D6FDB
:1055700074686572626F6172645F44656D6F5C45EB
:10558000345F696D755C6C69627261726965735CC8
:1055900073646B5C747669696268346D5C737263A2
:1055A0005C647269766572735C737973636C6B5C4F
:1055B00063795F737973636C6B2E6300433A5C535A
:1055C0006F75726365747265655C43595434424209
:1055D000375F4C6962726172795C4578616D706C9D
:1055E000655C4D6F74686572626F6172645F44657B
:1055F0006D6F5C45345F696D755C6C696272617278
:105600006965735C7A665F6465766963655C7A6612
:105610005F6465766963655F696D753636307262A1
:105620002E630000433A5C536F7572636574726554
:10563000655C435954344242375F4C69627261720F
:10564000795C4578616D706C655C4D6F74686572EE
:10565000626F6172645F44656D6F5C45345F696D54
:10566000755C6C69627261726965735C7A665F63AE
:105670006F6D6D6F6E5C7A665F636F6D6D6F6E5F81
:105680006669666F2E630000433A5C536F75726300
:1056900065747265655C435954344242375F4C69A6
:1056A00062726172795C4578616D706C655C4D6F9A
:1056B00074686572626F6172645F44656D6F5C45AA
:1056C000345F696D755C6C69627261726965735C87
:1056D0007A665F6472697665725C7A665F64726925
:1056E0007665725F7370692E63000000433A5C5305
:1056F0006F75726365747265655C435954344242D8
:10570000375F4C6962726172795C4578616D706C6B
:10571000655C4D6F74686572626F6172645F446549
:105720006D6F5C45345F696D755C6C696272617246
:105730006965735C7A665F6472697665725C7A66C5
:105740005F6472697665725F756172742E630000C2
:1057500030B4002512E050F8042BD30744BF4A446C
:10576000521E091F042942F8045BFAD213468C0723
:1057700044BF15809B1CC90748BF1D7050F8041B0F
:105780000029E8D130BC70470D0A696D7536363096
:1057900072622061636320646174613A2020783D05
:1057A0002535642C20793D2535642C207A3D25351E
:1057B000640D0A000D0A696D753636307262206715
:1057C00079726F20646174613A20783D2535642CCC
:1057D00020793D2535642C207A3D2535640D0A005D
:1057E00010B5074979441831064C7C44163404E05E
:1057F0000A68081D114488470146A142F8D110BD2E
:105800002C000000480000004EF68851CEF2000146
:10581000086840F470000860BFF34F8FBFF36F8FCC
:105820004FF00170E1EE100A7047000025FFFFFF06
:10583000FC0300003407022800000000F3B6FFFF5D
:1058400096020000B4000000000002280420714607
:10585000084202D0EFF3098001E0EFF3088000B5C1
:105860000149884700BD00007143081080B58DF8DC
:105870000000012269460120FCF797FD012802D1B2
:105880009DF8000002BD4FF0FF3002BD0000000097
:10589000801C800803D0401C801EFCD100BF7047D4
:1058A000EFF3108072B6704780F3108870470000E5
:1058B00000F00EF8002801D0FFF792FFAFF3008050
:1058C0000020AFF30080FFF757FD00F003F8000061
:1058D0000020704700F000B807463846FBF776FE18
:1058E000FBE700000D0A66696C65202573206C6972
:1058F0006E652025643A2025732E0D0A00000000F5
:10590000696D7536363072622073656C6620636827
:1059100065636B206572726F722E00000420714601
:10592000084201D0EFF30980EFF3088000B5014988
:10593000884700BD115A08100548014603B468465F
:1059400080F30988AFF30080FFF75EFFFFF7B0FF39
:10595000A5EDF5FE0D0A20696D75363630726220B0
:10596000696E6974206572726F722E0000000228E1
:10597000FFFF072800000020FF3F0020000000007C
:10598000FF3F000000127A00000000000024F40035
:105990000080000000800000008000000D0A6669A1
:1059A0006C65202573206C696E652025642E0D0AB8
:1059B0000000000038B504460D462846FFF756FFA4
:1059C000A84218BF0024204632BD000066696C65FD
:1059D0003A206D646B2F25730000000041737365DE
:1059E0007274206572726F720000000066696C65E7
:1059F0003A202573000000006C696E653A2025642A
:105A0000000000004C6F67206D657373616765006F
:105A1000816911F8021CC9B20160704703010000DE
:105A20001011001000000000000000000000000045
:105A30000000000000000000000000000000000066
:105A40000000000000000000000000000000000056
:105A50000000000000000000000000000000000046
:105A60000000000000000000000000000000000036
:105A70000000000000000000000000000000000026
:105A80000000000000000000000000000000000016
:105A90000000000000000000FFF7FEBFFFF7D6BEC9
:105AA000FFF7D4BEFFF7D2BEFFF7FEBFFFF7FEBF82
:105AB000FFF7FEBFFFF7FEBFFFF7FEBFFFF7FEBF1A
:105AC000FFF7FEBFFFF7FEBFFFF7FEBFFFF7FEBF0A
:105AD000FFF7FEBF7047F002FFA14E081004F1FF70
